{
  "contractName": "PropertyNFT",
  "abi": [
    {
      "inputs": [],
      "stateMutability": "nonpayable",
      "type": "constructor"
    },
    {
      "anonymous": false,
      "inputs": [
        {
          "indexed": true,
          "internalType": "address",
          "name": "owner",
          "type": "address"
        },
        {
          "indexed": true,
          "internalType": "address",
          "name": "approved",
          "type": "address"
        },
        {
          "indexed": true,
          "internalType": "uint256",
          "name": "tokenId",
          "type": "uint256"
        }
      ],
      "name": "Approval",
      "type": "event"
    },
    {
      "anonymous": false,
      "inputs": [
        {
          "indexed": true,
          "internalType": "address",
          "name": "owner",
          "type": "address"
        },
        {
          "indexed": true,
          "internalType": "address",
          "name": "operator",
          "type": "address"
        },
        {
          "indexed": false,
          "internalType": "bool",
          "name": "approved",
          "type": "bool"
        }
      ],
      "name": "ApprovalForAll",
      "type": "event"
    },
    {
      "anonymous": false,
      "inputs": [
        {
          "indexed": false,
          "internalType": "uint256",
          "name": "_fromTokenId",
          "type": "uint256"
        },
        {
          "indexed": false,
          "internalType": "uint256",
          "name": "_toTokenId",
          "type": "uint256"
        }
      ],
      "name": "BatchMetadataUpdate",
      "type": "event"
    },
    {
      "anonymous": false,
      "inputs": [
        {
          "indexed": false,
          "internalType": "uint256",
          "name": "_tokenId",
          "type": "uint256"
        }
      ],
      "name": "MetadataUpdate",
      "type": "event"
    },
    {
      "anonymous": false,
      "inputs": [
        {
          "indexed": false,
          "internalType": "uint256",
          "name": "tokenId",
          "type": "uint256"
        },
        {
          "indexed": false,
          "internalType": "string",
          "name": "propertyName",
          "type": "string"
        },
        {
          "indexed": false,
          "internalType": "uint256",
          "name": "apr",
          "type": "uint256"
        },
        {
          "indexed": false,
          "internalType": "uint256",
          "name": "totalPropertyRaised",
          "type": "uint256"
        },
        {
          "indexed": false,
          "internalType": "uint256",
          "name": "propertyParticipation",
          "type": "uint256"
        },
        {
          "indexed": false,
          "internalType": "uint256",
          "name": "propertyID",
          "type": "uint256"
        },
        {
          "indexed": false,
          "internalType": "uint256",
          "name": "redeemFees",
          "type": "uint256"
        },
        {
          "indexed": false,
          "internalType": "uint256",
          "name": "sellFees",
          "type": "uint256"
        },
        {
          "indexed": false,
          "internalType": "uint256",
          "name": "totalEarned",
          "type": "uint256"
        }
      ],
      "name": "PropertyMinted",
      "type": "event"
    },
    {
      "anonymous": false,
      "inputs": [
        {
          "indexed": true,
          "internalType": "address",
          "name": "from",
          "type": "address"
        },
        {
          "indexed": true,
          "internalType": "address",
          "name": "to",
          "type": "address"
        },
        {
          "indexed": true,
          "internalType": "uint256",
          "name": "tokenId",
          "type": "uint256"
        }
      ],
      "name": "Transfer",
      "type": "event"
    },
    {
      "inputs": [],
      "name": "admin",
      "outputs": [
        {
          "internalType": "address",
          "name": "",
          "type": "address"
        }
      ],
      "stateMutability": "view",
      "type": "function"
    },
    {
      "inputs": [
        {
          "internalType": "uint256",
          "name": "tokenId",
          "type": "uint256"
        }
      ],
      "name": "getApproved",
      "outputs": [
        {
          "internalType": "address",
          "name": "",
          "type": "address"
        }
      ],
      "stateMutability": "view",
      "type": "function"
    },
    {
      "inputs": [
        {
          "internalType": "address",
          "name": "owner",
          "type": "address"
        },
        {
          "internalType": "address",
          "name": "operator",
          "type": "address"
        }
      ],
      "name": "isApprovedForAll",
      "outputs": [
        {
          "internalType": "bool",
          "name": "",
          "type": "bool"
        }
      ],
      "stateMutability": "view",
      "type": "function"
    },
    {
      "inputs": [],
      "name": "minter",
      "outputs": [
        {
          "internalType": "address",
          "name": "",
          "type": "address"
        }
      ],
      "stateMutability": "view",
      "type": "function"
    },
    {
      "inputs": [],
      "name": "name",
      "outputs": [
        {
          "internalType": "string",
          "name": "",
          "type": "string"
        }
      ],
      "stateMutability": "view",
      "type": "function"
    },
    {
      "inputs": [],
      "name": "operator",
      "outputs": [
        {
          "internalType": "address",
          "name": "",
          "type": "address"
        }
      ],
      "stateMutability": "view",
      "type": "function"
    },
    {
      "inputs": [
        {
          "internalType": "uint256",
          "name": "",
          "type": "uint256"
        }
      ],
      "name": "properties",
      "outputs": [
        {
          "internalType": "string",
          "name": "propertyName",
          "type": "string"
        },
        {
          "internalType": "uint256",
          "name": "apr",
          "type": "uint256"
        },
        {
          "internalType": "uint256",
          "name": "totalPropertyRaised",
          "type": "uint256"
        },
        {
          "internalType": "uint256",
          "name": "propertyParticipation",
          "type": "uint256"
        },
        {
          "internalType": "uint256",
          "name": "propertyID",
          "type": "uint256"
        },
        {
          "internalType": "uint256",
          "name": "redeemFees",
          "type": "uint256"
        },
        {
          "internalType": "uint256",
          "name": "sellFees",
          "type": "uint256"
        },
        {
          "internalType": "uint256",
          "name": "totalEarned",
          "type": "uint256"
        }
      ],
      "stateMutability": "view",
      "type": "function"
    },
    {
      "inputs": [
        {
          "internalType": "uint256",
          "name": "",
          "type": "uint256"
        },
        {
          "internalType": "uint256",
          "name": "",
          "type": "uint256"
        }
      ],
      "name": "propertyIDToTokenIds",
      "outputs": [
        {
          "internalType": "uint256",
          "name": "",
          "type": "uint256"
        }
      ],
      "stateMutability": "view",
      "type": "function"
    },
    {
      "inputs": [],
      "name": "redeemer",
      "outputs": [
        {
          "internalType": "address",
          "name": "",
          "type": "address"
        }
      ],
      "stateMutability": "view",
      "type": "function"
    },
    {
      "inputs": [
        {
          "internalType": "address",
          "name": "operator",
          "type": "address"
        },
        {
          "internalType": "bool",
          "name": "approved",
          "type": "bool"
        }
      ],
      "name": "setApprovalForAll",
      "outputs": [],
      "stateMutability": "nonpayable",
      "type": "function"
    },
    {
      "inputs": [],
      "name": "symbol",
      "outputs": [
        {
          "internalType": "string",
          "name": "",
          "type": "string"
        }
      ],
      "stateMutability": "view",
      "type": "function"
    },
    {
      "inputs": [
        {
          "internalType": "uint256",
          "name": "index",
          "type": "uint256"
        }
      ],
      "name": "tokenByIndex",
      "outputs": [
        {
          "internalType": "uint256",
          "name": "",
          "type": "uint256"
        }
      ],
      "stateMutability": "view",
      "type": "function"
    },
    {
      "inputs": [
        {
          "internalType": "address",
          "name": "owner",
          "type": "address"
        },
        {
          "internalType": "uint256",
          "name": "index",
          "type": "uint256"
        }
      ],
      "name": "tokenOfOwnerByIndex",
      "outputs": [
        {
          "internalType": "uint256",
          "name": "",
          "type": "uint256"
        }
      ],
      "stateMutability": "view",
      "type": "function"
    },
    {
      "inputs": [],
      "name": "totalSupply",
      "outputs": [
        {
          "internalType": "uint256",
          "name": "",
          "type": "uint256"
        }
      ],
      "stateMutability": "view",
      "type": "function"
    },
    {
      "inputs": [
        {
          "internalType": "address",
          "name": "_newAdmin",
          "type": "address"
        }
      ],
      "name": "setNewAdmin",
      "outputs": [],
      "stateMutability": "nonpayable",
      "type": "function"
    },
    {
      "inputs": [
        {
          "internalType": "address",
          "name": "_minter",
          "type": "address"
        }
      ],
      "name": "setMinter",
      "outputs": [],
      "stateMutability": "nonpayable",
      "type": "function"
    },
    {
      "inputs": [
        {
          "internalType": "address",
          "name": "_redeemer",
          "type": "address"
        }
      ],
      "name": "setRedeemer",
      "outputs": [],
      "stateMutability": "nonpayable",
      "type": "function"
    },
    {
      "inputs": [
        {
          "internalType": "address",
          "name": "_operator",
          "type": "address"
        }
      ],
      "name": "setOperator",
      "outputs": [],
      "stateMutability": "nonpayable",
      "type": "function"
    },
    {
      "inputs": [
        {
          "internalType": "address",
          "name": "to",
          "type": "address"
        },
        {
          "internalType": "string",
          "name": "propertyName",
          "type": "string"
        },
        {
          "internalType": "uint256",
          "name": "apr",
          "type": "uint256"
        },
        {
          "internalType": "uint256",
          "name": "totalPropertyRaised",
          "type": "uint256"
        },
        {
          "internalType": "uint256",
          "name": "propertyParticipation",
          "type": "uint256"
        },
        {
          "internalType": "uint256",
          "name": "propertyID",
          "type": "uint256"
        },
        {
          "internalType": "uint256",
          "name": "redeemFees",
          "type": "uint256"
        },
        {
          "internalType": "uint256",
          "name": "sellFees",
          "type": "uint256"
        },
        {
          "internalType": "uint256",
          "name": "totalEarned",
          "type": "uint256"
        }
      ],
      "name": "mintProperty",
      "outputs": [
        {
          "internalType": "uint256",
          "name": "",
          "type": "uint256"
        }
      ],
      "stateMutability": "nonpayable",
      "type": "function"
    },
    {
      "inputs": [
        {
          "internalType": "uint256",
          "name": "_propertyID",
          "type": "uint256"
        }
      ],
      "name": "getTokensBypropertyID",
      "outputs": [
        {
          "internalType": "uint256[]",
          "name": "",
          "type": "uint256[]"
        }
      ],
      "stateMutability": "view",
      "type": "function"
    },
    {
      "inputs": [
        {
          "internalType": "uint256",
          "name": "tokenId",
          "type": "uint256"
        },
        {
          "internalType": "uint256",
          "name": "_sellFees",
          "type": "uint256"
        }
      ],
      "name": "updateSellFees",
      "outputs": [],
      "stateMutability": "nonpayable",
      "type": "function"
    },
    {
      "inputs": [
        {
          "internalType": "uint256",
          "name": "tokenId",
          "type": "uint256"
        },
        {
          "internalType": "uint256",
          "name": "_redeemFees",
          "type": "uint256"
        }
      ],
      "name": "updateRedeemFees",
      "outputs": [],
      "stateMutability": "nonpayable",
      "type": "function"
    },
    {
      "inputs": [
        {
          "internalType": "uint256[]",
          "name": "tokenIds",
          "type": "uint256[]"
        },
        {
          "internalType": "uint256",
          "name": "_sellFees",
          "type": "uint256"
        }
      ],
      "name": "updateBulkSellFees",
      "outputs": [],
      "stateMutability": "nonpayable",
      "type": "function"
    },
    {
      "inputs": [
        {
          "internalType": "uint256[]",
          "name": "tokenIds",
          "type": "uint256[]"
        },
        {
          "internalType": "uint256",
          "name": "_redeemFees",
          "type": "uint256"
        }
      ],
      "name": "updateBulkRedeemFees",
      "outputs": [],
      "stateMutability": "nonpayable",
      "type": "function"
    },
    {
      "inputs": [
        {
          "internalType": "uint256",
          "name": "propertyID",
          "type": "uint256"
        },
        {
          "internalType": "uint256",
          "name": "amount",
          "type": "uint256"
        },
        {
          "internalType": "address",
          "name": "TokenAddress",
          "type": "address"
        }
      ],
      "name": "distributeRewards",
      "outputs": [],
      "stateMutability": "nonpayable",
      "type": "function"
    },
    {
      "inputs": [
        {
          "internalType": "uint256",
          "name": "tokenId",
          "type": "uint256"
        }
      ],
      "name": "burnTokenWithApproval",
      "outputs": [],
      "stateMutability": "nonpayable",
      "type": "function"
    },
    {
      "inputs": [
        {
          "internalType": "uint256",
          "name": "tokenId",
          "type": "uint256"
        },
        {
          "internalType": "string",
          "name": "_tokenURI",
          "type": "string"
        }
      ],
      "name": "setTokenURI",
      "outputs": [],
      "stateMutability": "nonpayable",
      "type": "function"
    },
    {
      "inputs": [
        {
          "internalType": "uint256",
          "name": "tokenId",
          "type": "uint256"
        }
      ],
      "name": "tokenURI",
      "outputs": [
        {
          "internalType": "string",
          "name": "",
          "type": "string"
        }
      ],
      "stateMutability": "view",
      "type": "function"
    },
    {
      "inputs": [
        {
          "internalType": "uint256",
          "name": "tokenId",
          "type": "uint256"
        }
      ],
      "name": "getProperty",
      "outputs": [
        {
          "components": [
            {
              "internalType": "string",
              "name": "propertyName",
              "type": "string"
            },
            {
              "internalType": "uint256",
              "name": "apr",
              "type": "uint256"
            },
            {
              "internalType": "uint256",
              "name": "totalPropertyRaised",
              "type": "uint256"
            },
            {
              "internalType": "uint256",
              "name": "propertyParticipation",
              "type": "uint256"
            },
            {
              "internalType": "uint256",
              "name": "propertyID",
              "type": "uint256"
            },
            {
              "internalType": "uint256",
              "name": "redeemFees",
              "type": "uint256"
            },
            {
              "internalType": "uint256",
              "name": "sellFees",
              "type": "uint256"
            },
            {
              "internalType": "uint256",
              "name": "totalEarned",
              "type": "uint256"
            }
          ],
          "internalType": "struct PropertyNFT.Property",
          "name": "",
          "type": "tuple"
        }
      ],
      "stateMutability": "view",
      "type": "function"
    },
    {
      "inputs": [
        {
          "internalType": "address",
          "name": "owner",
          "type": "address"
        }
      ],
      "name": "balanceOf",
      "outputs": [
        {
          "internalType": "uint256",
          "name": "",
          "type": "uint256"
        }
      ],
      "stateMutability": "view",
      "type": "function"
    },
    {
      "inputs": [
        {
          "internalType": "uint256",
          "name": "tokenId",
          "type": "uint256"
        }
      ],
      "name": "ownerOf",
      "outputs": [
        {
          "internalType": "address",
          "name": "",
          "type": "address"
        }
      ],
      "stateMutability": "view",
      "type": "function"
    },
    {
      "inputs": [
        {
          "internalType": "address",
          "name": "to",
          "type": "address"
        },
        {
          "internalType": "uint256",
          "name": "tokenId",
          "type": "uint256"
        }
      ],
      "name": "approve",
      "outputs": [],
      "stateMutability": "nonpayable",
      "type": "function"
    },
    {
      "inputs": [
        {
          "internalType": "address",
          "name": "from",
          "type": "address"
        },
        {
          "internalType": "address",
          "name": "to",
          "type": "address"
        },
        {
          "internalType": "uint256",
          "name": "tokenId",
          "type": "uint256"
        }
      ],
      "name": "transferFrom",
      "outputs": [],
      "stateMutability": "nonpayable",
      "type": "function"
    },
    {
      "inputs": [
        {
          "internalType": "address",
          "name": "from",
          "type": "address"
        },
        {
          "internalType": "address",
          "name": "to",
          "type": "address"
        },
        {
          "internalType": "uint256",
          "name": "tokenId",
          "type": "uint256"
        }
      ],
      "name": "safeTransferFrom",
      "outputs": [],
      "stateMutability": "nonpayable",
      "type": "function"
    },
    {
      "inputs": [
        {
          "internalType": "address",
          "name": "from",
          "type": "address"
        },
        {
          "internalType": "address",
          "name": "to",
          "type": "address"
        },
        {
          "internalType": "uint256",
          "name": "tokenId",
          "type": "uint256"
        },
        {
          "internalType": "bytes",
          "name": "_data",
          "type": "bytes"
        }
      ],
      "name": "safeTransferFrom",
      "outputs": [],
      "stateMutability": "nonpayable",
      "type": "function"
    },
    {
      "inputs": [
        {
          "internalType": "bytes4",
          "name": "interfaceId",
          "type": "bytes4"
        }
      ],
      "name": "supportsInterface",
      "outputs": [
        {
          "internalType": "bool",
          "name": "",
          "type": "bool"
        }
      ],
      "stateMutability": "view",
      "type": "function"
    }
  ],
  "bytecode": "0x608060405234801562000010575f80fd5b506040518060400160405280600b81526020017f50726f70657274794e46540000000000000000000000000000000000000000008152506040518060400160405280600481526020017f504e465400000000000000000000000000000000000000000000000000000000815250815f90816200008d919062000354565b5080600190816200009f919062000354565b5050506001600b8190555033600e5f6101000a81548173ffffffffffffffffffffffffffffffffffffffff021916908373ffffffffffffffffffffffffffffffffffffffff16021790555062000438565b5f81519050919050565b7f4e487b71000000000000000000000000000000000000000000000000000000005f52604160045260245ffd5b7f4e487b71000000000000000000000000000000000000000000000000000000005f52602260045260245ffd5b5f60028204905060018216806200016c57607f821691505b60208210810362000182576200018162000127565b5b50919050565b5f819050815f5260205f209050919050565b5f6020601f8301049050919050565b5f82821b905092915050565b5f60088302620001e67fffffffffffffffffffffffffffffffffffffffffffffffffffffffffffffffff82620001a9565b620001f28683620001a9565b95508019841693508086168417925050509392505050565b5f819050919050565b5f819050919050565b5f6200023c6200023662000230846200020a565b62000213565b6200020a565b9050919050565b5f819050919050565b62000257836200021c565b6200026f620002668262000243565b848454620001b5565b825550505050565b5f90565b6200028562000277565b620002928184846200024c565b505050565b5b81811015620002b957620002ad5f826200027b565b60018101905062000298565b5050565b601f8211156200030857620002d28162000188565b620002dd846200019a565b81016020851015620002ed578190505b62000305620002fc856200019a565b83018262000297565b50505b505050565b5f82821c905092915050565b5f6200032a5f19846008026200030d565b1980831691505092915050565b5f62000344838362000319565b9150826002028217905092915050565b6200035f82620000f0565b67ffffffffffffffff8111156200037b576200037a620000fa565b5b62000387825462000154565b62000394828285620002bd565b5f60209050601f831160018114620003ca575f8415620003b5578287015190505b620003c1858262000337565b86555062000430565b601f198416620003da8662000188565b5f5b828110156200040357848901518255600182019150602085019450602081019050620003dc565b868310156200042357848901516200041f601f89168262000319565b8355505b6001600288020188555050505b505050505050565b61564780620004465f395ff3fe608060405234801561000f575f80fd5b506004361061021a575f3560e01c8063570ca73511610123578063a8176de1116100ab578063c87b56dd1161007a578063c87b56dd14610656578063e985e9c514610686578063f7b10808146106b6578063f851a440146106ed578063fca3b5aa1461070b5761021a565b8063a8176de1146105e6578063aa54791514610602578063b3ab15fb1461061e578063b88d4fde1461063a5761021a565b80637350bf5b116100f25780637350bf5b146105445780638eec99c81461057457806395d89b411461059057806399fd4d3c146105ae578063a22cb465146105ca5761021a565b8063570ca735146104965780636352211e146104b457806369dae3c7146104e457806370a08231146105145761021a565b806323b872dd116101a657806331d6ea901161017557806331d6ea90146103e257806332665ffb146103fe5780633307ce841461042e57806342842e0e1461044a5780634f6ccce7146104665761021a565b806323b872dd1461035c5780632a42a70c146103785780632ba29d38146103945780632f745c59146103b25761021a565b8063081812fc116101ed578063081812fc146102a6578063095ea7b3146102d6578063162094c4146102f257806318160ddd1461030e5780631cc5a78f1461032c5761021a565b806301ffc9a71461021e57806302dbd8f81461024e57806306fdde031461026a5780630754617214610288575b5f80fd5b610238600480360381019061023391906138a4565b610727565b60405161024591906138e9565b60405180910390f35b61026860048036038101906102639190613935565b610738565b005b61027261082c565b60405161027f91906139fd565b60405180910390f35b6102906108bb565b60405161029d9190613a5c565b60405180910390f35b6102c060048036038101906102bb9190613a75565b6108e0565b6040516102cd9190613a5c565b60405180910390f35b6102f060048036038101906102eb9190613aca565b610922565b005b61030c60048036038101906103079190613c34565b610930565b005b6103166109cd565b6040516103239190613c9d565b60405180910390f35b61034660048036038101906103419190613cb6565b6109d9565b6040516103539190613c9d565b60405180910390f35b61037660048036038101906103719190613d96565b610bc4565b005b610392600480360381019061038d9190613935565b610bd4565b005b61039c610cc8565b6040516103a99190613a5c565b60405180910390f35b6103cc60048036038101906103c79190613aca565b610ced565b6040516103d99190613c9d565b60405180910390f35b6103fc60048036038101906103f79190613eaa565b610d8d565b005b61041860048036038101906104139190613a75565b610ed4565b6040516104259190614008565b60405180910390f35b61044860048036038101906104439190614028565b610fd5565b005b610464600480360381019061045f9190613d96565b6110a7565b005b610480600480360381019061047b9190613a75565b6110b7565b60405161048d9190613c9d565b60405180910390f35b61049e611125565b6040516104ab9190613a5c565b60405180910390f35b6104ce60048036038101906104c99190613a75565b61114a565b6040516104db9190613a5c565b60405180910390f35b6104fe60048036038101906104f99190613935565b61115b565b60405161050b9190613c9d565b60405180910390f35b61052e60048036038101906105299190614028565b611186565b60405161053b9190613c9d565b60405180910390f35b61055e60048036038101906105599190613a75565b611197565b60405161056b91906140fb565b60405180910390f35b61058e60048036038101906105899190614028565b6111fe565b005b6105986112d0565b6040516105a591906139fd565b60405180910390f35b6105c860048036038101906105c39190613eaa565b611360565b005b6105e460048036038101906105df9190614145565b6114a7565b005b61060060048036038101906105fb9190613a75565b6114bd565b005b61061c60048036038101906106179190614183565b6115e7565b005b61063860048036038101906106339190614028565b61199f565b005b610654600480360381019061064f9190614271565b611a71565b005b610670600480360381019061066b9190613a75565b611a83565b60405161067d91906139fd565b60405180910390f35b6106a0600480360381019061069b91906142f1565b611a95565b6040516106ad91906138e9565b60405180910390f35b6106d060048036038101906106cb9190613a75565b611b23565b6040516106e498979695949392919061432f565b60405180910390f35b6106f5611bed565b6040516107029190613a5c565b60405180910390f35b61072560048036038101906107209190614028565b611c12565b005b5f61073182611ce4565b9050919050565b60115f9054906101000a900473ffffffffffffffffffffffffffffffffffffffff1673ffffffffffffffffffffffffffffffffffffffff163373ffffffffffffffffffffffffffffffffffffffff16146107c7576040517f08c379a00000000000000000000000000000000000000000000000000000000081526004016107be906143fc565b60405180910390fd5b6107d082611d44565b61080f576040517f08c379a000000000000000000000000000000000000000000000000000000000815260040161080690614464565b60405180910390fd5b80600c5f8481526020019081526020015f20600601819055505050565b60605f805461083a906144af565b80601f0160208091040260200160405190810160405280929190818152602001828054610866906144af565b80156108b15780601f10610888576101008083540402835291602001916108b1565b820191905f5260205f20905b81548152906001019060200180831161089457829003601f168201915b5050505050905090565b600f5f9054906101000a900473ffffffffffffffffffffffffffffffffffffffff1681565b5f6108ea82611d84565b60045f8381526020019081526020015f205f9054906101000a900473ffffffffffffffffffffffffffffffffffffffff169050919050565b61092c8282611dcf565b5050565b60115f9054906101000a900473ffffffffffffffffffffffffffffffffffffffff1673ffffffffffffffffffffffffffffffffffffffff163373ffffffffffffffffffffffffffffffffffffffff16146109bf576040517f08c379a00000000000000000000000000000000000000000000000000000000081526004016109b6906143fc565b60405180910390fd5b6109c98282611ee5565b5050565b5f600880549050905090565b5f600f5f9054906101000a900473ffffffffffffffffffffffffffffffffffffffff1673ffffffffffffffffffffffffffffffffffffffff163373ffffffffffffffffffffffffffffffffffffffff1614610a69576040517f08c379a0000000000000000000000000000000000000000000000000000000008152600401610a6090614529565b60405180910390fd5b5f6001610a746109cd565b610a7e9190614574565b9050610a8a8b82611f87565b5f6040518061010001604052808c81526020018b81526020018a815260200189815260200188815260200187815260200186815260200185815250905080600c5f8481526020019081526020015f205f820151815f019081610aec9190614744565b506020820151816001015560408201518160020155606082015181600301556080820151816004015560a0820151816005015560c0820151816006015560e08201518160070155905050600d5f8881526020019081526020015f2082908060018154018082558091505060019003905f5260205f20015f90919091909150557f14926207e1b9c5feafd58c4b181d1d83ed01c5f4bd11a09517e8216835475a03828c8c8c8c8c8c8c8c604051610baa99989796959493929190614813565b60405180910390a181925050509998505050505050505050565b610bcf838383611fa4565b505050565b60115f9054906101000a900473ffffffffffffffffffffffffffffffffffffffff1673ffffffffffffffffffffffffffffffffffffffff163373ffffffffffffffffffffffffffffffffffffffff1614610c63576040517f08c379a0000000000000000000000000000000000000000000000000000000008152600401610c5a906143fc565b60405180910390fd5b610c6c82611d44565b610cab576040517f08c379a0000000000000000000000000000000000000000000000000000000008152600401610ca290614464565b60405180910390fd5b80600c5f8481526020019081526020015f20600501819055505050565b60105f9054906101000a900473ffffffffffffffffffffffffffffffffffffffff1681565b5f610cf783612004565b8210610d38576040517f08c379a0000000000000000000000000000000000000000000000000000000008152600401610d2f90614915565b60405180910390fd5b60065f8473ffffffffffffffffffffffffffffffffffffffff1673ffffffffffffffffffffffffffffffffffffffff1681526020019081526020015f205f8381526020019081526020015f2054905092915050565b60115f9054906101000a900473ffffffffffffffffffffffffffffffffffffffff1673ffffffffffffffffffffffffffffffffffffffff163373ffffffffffffffffffffffffffffffffffffffff1614610e1c576040517f08c379a0000000000000000000000000000000000000000000000000000000008152600401610e13906143fc565b60405180910390fd5b5f5b8251811015610ecf57610e4a838281518110610e3d57610e3c614933565b5b6020026020010151611d44565b610e89576040517f08c379a0000000000000000000000000000000000000000000000000000000008152600401610e8090614464565b60405180910390fd5b81600c5f858481518110610ea057610e9f614933565b5b602002602001015181526020019081526020015f20600501819055508080610ec790614960565b915050610e1e565b505050565b610edc6137a8565b600c5f8381526020019081526020015f20604051806101000160405290815f82018054610f08906144af565b80601f0160208091040260200160405190810160405280929190818152602001828054610f34906144af565b8015610f7f5780601f10610f5657610100808354040283529160200191610f7f565b820191905f5260205f20905b815481529060010190602001808311610f6257829003601f168201915b505050505081526020016001820154815260200160028201548152602001600382015481526020016004820154815260200160058201548152602001600682015481526020016007820154815250509050919050565b600e5f9054906101000a900473ffffffffffffffffffffffffffffffffffffffff1673ffffffffffffffffffffffffffffffffffffffff163373ffffffffffffffffffffffffffffffffffffffff1614611064576040517f08c379a000000000000000000000000000000000000000000000000000000000815260040161105b906149f1565b60405180910390fd5b8060105f6101000a81548173ffffffffffffffffffffffffffffffffffffffff021916908373ffffffffffffffffffffffffffffffffffffffff16021790555050565b6110b28383836120b8565b505050565b5f6110c06109cd565b8210611101576040517f08c379a00000000000000000000000000000000000000000000000000000000081526004016110f890614a7f565b60405180910390fd5b6008828154811061111557611114614933565b5b905f5260205f2001549050919050565b60115f9054906101000a900473ffffffffffffffffffffffffffffffffffffffff1681565b5f611154826120d7565b9050919050565b600d602052815f5260405f208181548110611174575f80fd5b905f5260205f20015f91509150505481565b5f61119082612004565b9050919050565b6060600d5f8381526020019081526020015f208054806020026020016040519081016040528092919081815260200182805480156111f257602002820191905f5260205f20905b8154815260200190600101908083116111de575b50505050509050919050565b600e5f9054906101000a900473ffffffffffffffffffffffffffffffffffffffff1673ffffffffffffffffffffffffffffffffffffffff163373ffffffffffffffffffffffffffffffffffffffff161461128d576040517f08c379a0000000000000000000000000000000000000000000000000000000008152600401611284906149f1565b60405180910390fd5b80600e5f6101000a81548173ffffffffffffffffffffffffffffffffffffffff021916908373ffffffffffffffffffffffffffffffffffffffff16021790555050565b6060600180546112df906144af565b80601f016020809104026020016040519081016040528092919081815260200182805461130b906144af565b80156113565780601f1061132d57610100808354040283529160200191611356565b820191905f5260205f20905b81548152906001019060200180831161133957829003601f168201915b5050505050905090565b60115f9054906101000a900473ffffffffffffffffffffffffffffffffffffffff1673ffffffffffffffffffffffffffffffffffffffff163373ffffffffffffffffffffffffffffffffffffffff16146113ef576040517f08c379a00000000000000000000000000000000000000000000000000000000081526004016113e6906143fc565b60405180910390fd5b5f5b82518110156114a25761141d8382815181106114105761140f614933565b5b6020026020010151611d44565b61145c576040517f08c379a000000000000000000000000000000000000000000000000000000000815260040161145390614464565b60405180910390fd5b81600c5f85848151811061147357611472614933565b5b602002602001015181526020019081526020015f2060060181905550808061149a90614960565b9150506113f1565b505050565b6114b96114b261215b565b8383612162565b5050565b60105f9054906101000a900473ffffffffffffffffffffffffffffffffffffffff1673ffffffffffffffffffffffffffffffffffffffff163373ffffffffffffffffffffffffffffffffffffffff161461154c576040517f08c379a000000000000000000000000000000000000000000000000000000000815260040161154390614ae7565b60405180910390fd5b3373ffffffffffffffffffffffffffffffffffffffff1661156c8261114a565b73ffffffffffffffffffffffffffffffffffffffff16148061159c575061159b6115958261114a565b33611a95565b5b6115db576040517f08c379a00000000000000000000000000000000000000000000000000000000081526004016115d290614b4f565b60405180910390fd5b6115e4816122c9565b50565b60115f9054906101000a900473ffffffffffffffffffffffffffffffffffffffff1673ffffffffffffffffffffffffffffffffffffffff163373ffffffffffffffffffffffffffffffffffffffff1614611676576040517f08c379a000000000000000000000000000000000000000000000000000000000815260040161166d906143fc565b60405180910390fd5b61167e6122d5565b5f819050828173ffffffffffffffffffffffffffffffffffffffff1663dd62ed3e33306040518363ffffffff1660e01b81526004016116be929190614b6d565b602060405180830381865afa1580156116d9573d5f803e3d5ffd5b505050506040513d601f19601f820116820180604052508101906116fd9190614ba8565b101561173e576040517f08c379a000000000000000000000000000000000000000000000000000000000815260040161173590614c43565b60405180910390fd5b5f61174885611197565b90505f805b825181101561198e575f600c5f85848151811061176d5761176c614933565b5b602002602001015181526020019081526020015f20604051806101000160405290815f8201805461179d906144af565b80601f01602080910402602001604051908101604052809291908181526020018280546117c9906144af565b80156118145780601f106117eb57610100808354040283529160200191611814565b820191905f5260205f20905b8154815290600101906020018083116117f757829003601f168201915b5050505050815260200160018201548152602001600282015481526020016003820154815260200160048201548152602001600582015481526020016006820154815260200160078201548152505090505f816040015182606001518961187b9190614c61565b6118859190614ccf565b905080846118939190614574565b93508573ffffffffffffffffffffffffffffffffffffffff166323b872dd336118d58887815181106118c8576118c7614933565b5b602002602001015161114a565b846040518463ffffffff1660e01b81526004016118f493929190614cff565b6020604051808303815f875af1158015611910573d5f803e3d5ffd5b505050506040513d601f19601f820116820180604052508101906119349190614d48565b5080600c5f87868151811061194c5761194b614933565b5b602002602001015181526020019081526020015f206007015f8282546119729190614574565b925050819055505050808061198690614960565b91505061174d565b5050505061199a612324565b505050565b600e5f9054906101000a900473ffffffffffffffffffffffffffffffffffffffff1673ffffffffffffffffffffffffffffffffffffffff163373ffffffffffffffffffffffffffffffffffffffff1614611a2e576040517f08c379a0000000000000000000000000000000000000000000000000000000008152600401611a25906149f1565b60405180910390fd5b8060115f6101000a81548173ffffffffffffffffffffffffffffffffffffffff021916908373ffffffffffffffffffffffffffffffffffffffff16021790555050565b611a7d8484848461232e565b50505050565b6060611a8e82612390565b9050919050565b5f60055f8473ffffffffffffffffffffffffffffffffffffffff1673ffffffffffffffffffffffffffffffffffffffff1681526020019081526020015f205f8373ffffffffffffffffffffffffffffffffffffffff1673ffffffffffffffffffffffffffffffffffffffff1681526020019081526020015f205f9054906101000a900460ff16905092915050565b600c602052805f5260405f205f91509050805f018054611b42906144af565b80601f0160208091040260200160405190810160405280929190818152602001828054611b6e906144af565b8015611bb95780601f10611b9057610100808354040283529160200191611bb9565b820191905f5260205f20905b815481529060010190602001808311611b9c57829003601f168201915b5050505050908060010154908060020154908060030154908060040154908060050154908060060154908060070154905088565b600e5f9054906101000a900473ffffffffffffffffffffffffffffffffffffffff1681565b600e5f9054906101000a900473ffffffffffffffffffffffffffffffffffffffff1673ffffffffffffffffffffffffffffffffffffffff163373ffffffffffffffffffffffffffffffffffffffff1614611ca1576040517f08c379a0000000000000000000000000000000000000000000000000000000008152600401611c98906149f1565b60405180910390fd5b80600f5f6101000a81548173ffffffffffffffffffffffffffffffffffffffff021916908373ffffffffffffffffffffffffffffffffffffffff16021790555050565b5f634906490660e01b7bffffffffffffffffffffffffffffffffffffffffffffffffffffffff1916827bffffffffffffffffffffffffffffffffffffffffffffffffffffffff19161480611d3d5750611d3c8261249a565b5b9050919050565b5f8073ffffffffffffffffffffffffffffffffffffffff16611d6583612513565b73ffffffffffffffffffffffffffffffffffffffff1614159050919050565b611d8d81611d44565b611dcc576040517f08c379a0000000000000000000000000000000000000000000000000000000008152600401611dc390614dbd565b60405180910390fd5b50565b5f611dd9826120d7565b90508073ffffffffffffffffffffffffffffffffffffffff168373ffffffffffffffffffffffffffffffffffffffff1603611e49576040517f08c379a0000000000000000000000000000000000000000000000000000000008152600401611e4090614e4b565b60405180910390fd5b8073ffffffffffffffffffffffffffffffffffffffff16611e6861215b565b73ffffffffffffffffffffffffffffffffffffffff161480611e975750611e9681611e9161215b565b611a95565b5b611ed6576040517f08c379a0000000000000000000000000000000000000000000000000000000008152600401611ecd90614ed9565b60405180910390fd5b611ee0838361254c565b505050565b611eee82611d44565b611f2d576040517f08c379a0000000000000000000000000000000000000000000000000000000008152600401611f2490614f67565b60405180910390fd5b80600a5f8481526020019081526020015f209081611f4b9190614744565b507ff8e1a15aba9398e019f0b49df1a4fde98ee17ae345cb5f6b5e2c27f5033e8ce782604051611f7b9190613c9d565b60405180910390a15050565b611fa0828260405180602001604052805f815250612602565b5050565b611fb5611faf61215b565b8261265c565b611ff4576040517f08c379a0000000000000000000000000000000000000000000000000000000008152600401611feb90614ff5565b60405180910390fd5b611fff8383836126f0565b505050565b5f8073ffffffffffffffffffffffffffffffffffffffff168273ffffffffffffffffffffffffffffffffffffffff1603612073576040517f08c379a000000000000000000000000000000000000000000000000000000000815260040161206a90615083565b60405180910390fd5b60035f8373ffffffffffffffffffffffffffffffffffffffff1673ffffffffffffffffffffffffffffffffffffffff1681526020019081526020015f20549050919050565b6120d283838360405180602001604052805f815250611a71565b505050565b5f806120e283612513565b90505f73ffffffffffffffffffffffffffffffffffffffff168173ffffffffffffffffffffffffffffffffffffffff1603612152576040517f08c379a000000000000000000000000000000000000000000000000000000000815260040161214990614dbd565b60405180910390fd5b80915050919050565b5f33905090565b8173ffffffffffffffffffffffffffffffffffffffff168373ffffffffffffffffffffffffffffffffffffffff16036121d0576040517f08c379a00000000000000000000000000000000000000000000000000000000081526004016121c7906150eb565b60405180910390fd5b8060055f8573ffffffffffffffffffffffffffffffffffffffff1673ffffffffffffffffffffffffffffffffffffffff1681526020019081526020015f205f8473ffffffffffffffffffffffffffffffffffffffff1673ffffffffffffffffffffffffffffffffffffffff1681526020019081526020015f205f6101000a81548160ff0219169083151502179055508173ffffffffffffffffffffffffffffffffffffffff168373ffffffffffffffffffffffffffffffffffffffff167f17307eab39ab6107e8899845ad3d59bd9653f200f220920489ca2b5937696c31836040516122bc91906138e9565b60405180910390a3505050565b6122d2816129dc565b50565b6002600b540361231a576040517f08c379a000000000000000000000000000000000000000000000000000000000815260040161231190615153565b60405180910390fd5b6002600b81905550565b6001600b81905550565b61233f61233961215b565b8361265c565b61237e576040517f08c379a000000000000000000000000000000000000000000000000000000000815260040161237590614ff5565b60405180910390fd5b61238a84848484612a29565b50505050565b606061239b82611d84565b5f600a5f8481526020019081526020015f2080546123b8906144af565b80601f01602080910402602001604051908101604052809291908181526020018280546123e4906144af565b801561242f5780601f106124065761010080835404028352916020019161242f565b820191905f5260205f20905b81548152906001019060200180831161241257829003601f168201915b505050505090505f61243f612a85565b90505f815103612453578192505050612495565b5f8251111561248757808260405160200161246f9291906151ab565b60405160208183030381529060405292505050612495565b61249084612a9b565b925050505b919050565b5f7f780e9d63000000000000000000000000000000000000000000000000000000007bffffffffffffffffffffffffffffffffffffffffffffffffffffffff1916827bffffffffffffffffffffffffffffffffffffffffffffffffffffffff1916148061250c575061250b82612b00565b5b9050919050565b5f60025f8381526020019081526020015f205f9054906101000a900473ffffffffffffffffffffffffffffffffffffffff169050919050565b8160045f8381526020019081526020015f205f6101000a81548173ffffffffffffffffffffffffffffffffffffffff021916908373ffffffffffffffffffffffffffffffffffffffff160217905550808273ffffffffffffffffffffffffffffffffffffffff166125bc836120d7565b73ffffffffffffffffffffffffffffffffffffffff167f8c5be1e5ebec7d5bd14f71427d1e84f3dd0314c0f7b2291e5b200ac8c7c3b92560405160405180910390a45050565b61260c8383612be1565b6126185f848484612df4565b612657576040517f08c379a000000000000000000000000000000000000000000000000000000000815260040161264e9061523e565b60405180910390fd5b505050565b5f80612667836120d7565b90508073ffffffffffffffffffffffffffffffffffffffff168473ffffffffffffffffffffffffffffffffffffffff1614806126a957506126a88185611a95565b5b806126e757508373ffffffffffffffffffffffffffffffffffffffff166126cf846108e0565b73ffffffffffffffffffffffffffffffffffffffff16145b91505092915050565b8273ffffffffffffffffffffffffffffffffffffffff16612710826120d7565b73ffffffffffffffffffffffffffffffffffffffff1614612766576040517f08c379a000000000000000000000000000000000000000000000000000000000815260040161275d906152cc565b60405180910390fd5b5f73ffffffffffffffffffffffffffffffffffffffff168273ffffffffffffffffffffffffffffffffffffffff16036127d4576040517f08c379a00000000000000000000000000000000000000000000000000000000081526004016127cb9061535a565b60405180910390fd5b6127e18383836001612f76565b8273ffffffffffffffffffffffffffffffffffffffff16612801826120d7565b73ffffffffffffffffffffffffffffffffffffffff1614612857576040517f08c379a000000000000000000000000000000000000000000000000000000000815260040161284e906152cc565b60405180910390fd5b60045f8281526020019081526020015f205f6101000a81549073ffffffffffffffffffffffffffffffffffffffff0219169055600160035f8573ffffffffffffffffffffffffffffffffffffffff1673ffffffffffffffffffffffffffffffffffffffff1681526020019081526020015f205f8282540392505081905550600160035f8473ffffffffffffffffffffffffffffffffffffffff1673ffffffffffffffffffffffffffffffffffffffff1681526020019081526020015f205f82825401925050819055508160025f8381526020019081526020015f205f6101000a81548173ffffffffffffffffffffffffffffffffffffffff021916908373ffffffffffffffffffffffffffffffffffffffff160217905550808273ffffffffffffffffffffffffffffffffffffffff168473ffffffffffffffffffffffffffffffffffffffff167fddf252ad1be2c89b69c2b068fc378daa952ba7f163c4a11628f55a4df523b3ef60405160405180910390a46129d78383836001612f88565b505050565b6129e581612f8e565b5f600a5f8381526020019081526020015f208054612a02906144af565b905014612a2657600a5f8281526020019081526020015f205f612a2591906137e6565b5b50565b612a348484846126f0565b612a4084848484612df4565b612a7f576040517f08c379a0000000000000000000000000000000000000000000000000000000008152600401612a769061523e565b60405180910390fd5b50505050565b606060405180602001604052805f815250905090565b6060612aa682611d84565b5f612aaf612a85565b90505f815111612acd5760405180602001604052805f815250612af8565b80612ad7846130cf565b604051602001612ae89291906151ab565b6040516020818303038152906040525b915050919050565b5f7f80ac58cd000000000000000000000000000000000000000000000000000000007bffffffffffffffffffffffffffffffffffffffffffffffffffffffff1916827bffffffffffffffffffffffffffffffffffffffffffffffffffffffff19161480612bca57507f5b5e139f000000000000000000000000000000000000000000000000000000007bffffffffffffffffffffffffffffffffffffffffffffffffffffffff1916827bffffffffffffffffffffffffffffffffffffffffffffffffffffffff1916145b80612bda5750612bd982613199565b5b9050919050565b5f73ffffffffffffffffffffffffffffffffffffffff168273ffffffffffffffffffffffffffffffffffffffff1603612c4f576040517f08c379a0000000000000000000000000000000000000000000000000000000008152600401612c46906153c2565b60405180910390fd5b612c5881611d44565b15612c98576040517f08c379a0000000000000000000000000000000000000000000000000000000008152600401612c8f9061542a565b60405180910390fd5b612ca55f83836001612f76565b612cae81611d44565b15612cee576040517f08c379a0000000000000000000000000000000000000000000000000000000008152600401612ce59061542a565b60405180910390fd5b600160035f8473ffffffffffffffffffffffffffffffffffffffff1673ffffffffffffffffffffffffffffffffffffffff1681526020019081526020015f205f82825401925050819055508160025f8381526020019081526020015f205f6101000a81548173ffffffffffffffffffffffffffffffffffffffff021916908373ffffffffffffffffffffffffffffffffffffffff160217905550808273ffffffffffffffffffffffffffffffffffffffff165f73ffffffffffffffffffffffffffffffffffffffff167fddf252ad1be2c89b69c2b068fc378daa952ba7f163c4a11628f55a4df523b3ef60405160405180910390a4612df05f83836001612f88565b5050565b5f612e148473ffffffffffffffffffffffffffffffffffffffff16613202565b15612f69578373ffffffffffffffffffffffffffffffffffffffff1663150b7a02612e3d61215b565b8786866040518563ffffffff1660e01b8152600401612e5f949392919061549a565b6020604051808303815f875af1925050508015612e9a57506040513d601f19601f82011682018060405250810190612e9791906154f8565b60015b612f19573d805f8114612ec8576040519150601f19603f3d011682016040523d82523d5f602084013e612ecd565b606091505b505f815103612f11576040517f08c379a0000000000000000000000000000000000000000000000000000000008152600401612f089061523e565b60405180910390fd5b805181602001fd5b63150b7a0260e01b7bffffffffffffffffffffffffffffffffffffffffffffffffffffffff1916817bffffffffffffffffffffffffffffffffffffffffffffffffffffffff191614915050612f6e565b600190505b949350505050565b612f8284848484613224565b50505050565b50505050565b5f612f98826120d7565b9050612fa7815f846001612f76565b612fb0826120d7565b905060045f8381526020019081526020015f205f6101000a81549073ffffffffffffffffffffffffffffffffffffffff0219169055600160035f8373ffffffffffffffffffffffffffffffffffffffff1673ffffffffffffffffffffffffffffffffffffffff1681526020019081526020015f205f828254039250508190555060025f8381526020019081526020015f205f6101000a81549073ffffffffffffffffffffffffffffffffffffffff0219169055815f73ffffffffffffffffffffffffffffffffffffffff168273ffffffffffffffffffffffffffffffffffffffff167fddf252ad1be2c89b69c2b068fc378daa952ba7f163c4a11628f55a4df523b3ef60405160405180910390a46130cb815f846001612f88565b5050565b60605f60016130dd8461337f565b0190505f8167ffffffffffffffff8111156130fb576130fa613b10565b5b6040519080825280601f01601f19166020018201604052801561312d5781602001600182028036833780820191505090505b5090505f82602001820190505b60011561318e578080600190039150507f3031323334353637383961626364656600000000000000000000000000000000600a86061a8153600a858161318357613182614ca2565b5b0494505f850361313a575b819350505050919050565b5f7f01ffc9a7000000000000000000000000000000000000000000000000000000007bffffffffffffffffffffffffffffffffffffffffffffffffffffffff1916827bffffffffffffffffffffffffffffffffffffffffffffffffffffffff1916149050919050565b5f808273ffffffffffffffffffffffffffffffffffffffff163b119050919050565b613230848484846134d0565b6001811115613274576040517f08c379a000000000000000000000000000000000000000000000000000000000815260040161326b90615593565b60405180910390fd5b5f8290505f73ffffffffffffffffffffffffffffffffffffffff168573ffffffffffffffffffffffffffffffffffffffff16036132b9576132b4816134d6565b6132f8565b8373ffffffffffffffffffffffffffffffffffffffff168573ffffffffffffffffffffffffffffffffffffffff16146132f7576132f6858261351a565b5b5b5f73ffffffffffffffffffffffffffffffffffffffff168473ffffffffffffffffffffffffffffffffffffffff16036133395761333481613670565b613378565b8473ffffffffffffffffffffffffffffffffffffffff168473ffffffffffffffffffffffffffffffffffffffff1614613377576133768482613730565b5b5b5050505050565b5f805f90507a184f03e93ff9f4daa797ed6e38ed64bf6a1f01000000000000000083106133db577a184f03e93ff9f4daa797ed6e38ed64bf6a1f01000000000000000083816133d1576133d0614ca2565b5b0492506040810190505b6d04ee2d6d415b85acef81000000008310613418576d04ee2d6d415b85acef8100000000838161340e5761340d614ca2565b5b0492506020810190505b662386f26fc10000831061344757662386f26fc10000838161343d5761343c614ca2565b5b0492506010810190505b6305f5e1008310613470576305f5e100838161346657613465614ca2565b5b0492506008810190505b612710831061349557612710838161348b5761348a614ca2565b5b0492506004810190505b606483106134b857606483816134ae576134ad614ca2565b5b0492506002810190505b600a83106134c7576001810190505b80915050919050565b50505050565b60088054905060095f8381526020019081526020015f2081905550600881908060018154018082558091505060019003905f5260205f20015f909190919091505550565b5f600161352684612004565b61353091906155b1565b90505f60075f8481526020019081526020015f20549050818114613607575f60065f8673ffffffffffffffffffffffffffffffffffffffff1673ffffffffffffffffffffffffffffffffffffffff1681526020019081526020015f205f8481526020019081526020015f205490508060065f8773ffffffffffffffffffffffffffffffffffffffff1673ffffffffffffffffffffffffffffffffffffffff1681526020019081526020015f205f8481526020019081526020015f20819055508160075f8381526020019081526020015f2081905550505b60075f8481526020019081526020015f205f905560065f8573ffffffffffffffffffffffffffffffffffffffff1673ffffffffffffffffffffffffffffffffffffffff1681526020019081526020015f205f8381526020019081526020015f205f905550505050565b5f600160088054905061368391906155b1565b90505f60095f8481526020019081526020015f205490505f600883815481106136af576136ae614933565b5b905f5260205f200154905080600883815481106136cf576136ce614933565b5b905f5260205f2001819055508160095f8381526020019081526020015f208190555060095f8581526020019081526020015f205f90556008805480613717576137166155e4565b5b600190038181905f5260205f20015f9055905550505050565b5f61373a83612004565b90508160065f8573ffffffffffffffffffffffffffffffffffffffff1673ffffffffffffffffffffffffffffffffffffffff1681526020019081526020015f205f8381526020019081526020015f20819055508060075f8481526020019081526020015f2081905550505050565b604051806101000160405280606081526020015f81526020015f81526020015f81526020015f81526020015f81526020015f81526020015f81525090565b5080546137f2906144af565b5f825580601f106138035750613820565b601f0160209004905f5260205f209081019061381f9190613823565b5b50565b5b8082111561383a575f815f905550600101613824565b5090565b5f604051905090565b5f80fd5b5f80fd5b5f7fffffffff0000000000000000000000000000000000000000000000000000000082169050919050565b6138838161384f565b811461388d575f80fd5b50565b5f8135905061389e8161387a565b92915050565b5f602082840312156138b9576138b8613847565b5b5f6138c684828501613890565b91505092915050565b5f8115159050919050565b6138e3816138cf565b82525050565b5f6020820190506138fc5f8301846138da565b92915050565b5f819050919050565b61391481613902565b811461391e575f80fd5b50565b5f8135905061392f8161390b565b92915050565b5f806040838503121561394b5761394a613847565b5b5f61395885828601613921565b925050602061396985828601613921565b9150509250929050565b5f81519050919050565b5f82825260208201905092915050565b5f5b838110156139aa57808201518184015260208101905061398f565b5f8484015250505050565b5f601f19601f8301169050919050565b5f6139cf82613973565b6139d9818561397d565b93506139e981856020860161398d565b6139f2816139b5565b840191505092915050565b5f6020820190508181035f830152613a1581846139c5565b905092915050565b5f73ffffffffffffffffffffffffffffffffffffffff82169050919050565b5f613a4682613a1d565b9050919050565b613a5681613a3c565b82525050565b5f602082019050613a6f5f830184613a4d565b92915050565b5f60208284031215613a8a57613a89613847565b5b5f613a9784828501613921565b91505092915050565b613aa981613a3c565b8114613ab3575f80fd5b50565b5f81359050613ac481613aa0565b92915050565b5f8060408385031215613ae057613adf613847565b5b5f613aed85828601613ab6565b9250506020613afe85828601613921565b9150509250929050565b5f80fd5b5f80fd5b7f4e487b71000000000000000000000000000000000000000000000000000000005f52604160045260245ffd5b613b46826139b5565b810181811067ffffffffffffffff82111715613b6557613b64613b10565b5b80604052505050565b5f613b7761383e565b9050613b838282613b3d565b919050565b5f67ffffffffffffffff821115613ba257613ba1613b10565b5b613bab826139b5565b9050602081019050919050565b828183375f83830152505050565b5f613bd8613bd384613b88565b613b6e565b905082815260208101848484011115613bf457613bf3613b0c565b5b613bff848285613bb8565b509392505050565b5f82601f830112613c1b57613c1a613b08565b5b8135613c2b848260208601613bc6565b91505092915050565b5f8060408385031215613c4a57613c49613847565b5b5f613c5785828601613921565b925050602083013567ffffffffffffffff811115613c7857613c7761384b565b5b613c8485828601613c07565b9150509250929050565b613c9781613902565b82525050565b5f602082019050613cb05f830184613c8e565b92915050565b5f805f805f805f805f6101208a8c031215613cd457613cd3613847565b5b5f613ce18c828d01613ab6565b99505060208a013567ffffffffffffffff811115613d0257613d0161384b565b5b613d0e8c828d01613c07565b9850506040613d1f8c828d01613921565b9750506060613d308c828d01613921565b9650506080613d418c828d01613921565b95505060a0613d528c828d01613921565b94505060c0613d638c828d01613921565b93505060e0613d748c828d01613921565b925050610100613d868c828d01613921565b9150509295985092959850929598565b5f805f60608486031215613dad57613dac613847565b5b5f613dba86828701613ab6565b9350506020613dcb86828701613ab6565b9250506040613ddc86828701613921565b9150509250925092565b5f67ffffffffffffffff821115613e0057613dff613b10565b5b602082029050602081019050919050565b5f80fd5b5f613e27613e2284613de6565b613b6e565b90508083825260208201905060208402830185811115613e4a57613e49613e11565b5b835b81811015613e735780613e5f8882613921565b845260208401935050602081019050613e4c565b5050509392505050565b5f82601f830112613e9157613e90613b08565b5b8135613ea1848260208601613e15565b91505092915050565b5f8060408385031215613ec057613ebf613847565b5b5f83013567ffffffffffffffff811115613edd57613edc61384b565b5b613ee985828601613e7d565b9250506020613efa85828601613921565b9150509250929050565b5f82825260208201905092915050565b5f613f1e82613973565b613f288185613f04565b9350613f3881856020860161398d565b613f41816139b5565b840191505092915050565b613f5581613902565b82525050565b5f61010083015f8301518482035f860152613f768282613f14565b9150506020830151613f8b6020860182613f4c565b506040830151613f9e6040860182613f4c565b506060830151613fb16060860182613f4c565b506080830151613fc46080860182613f4c565b5060a0830151613fd760a0860182613f4c565b5060c0830151613fea60c0860182613f4c565b5060e0830151613ffd60e0860182613f4c565b508091505092915050565b5f6020820190508181035f8301526140208184613f5b565b905092915050565b5f6020828403121561403d5761403c613847565b5b5f61404a84828501613ab6565b91505092915050565b5f81519050919050565b5f82825260208201905092915050565b5f819050602082019050919050565b5f6140878383613f4c565b60208301905092915050565b5f602082019050919050565b5f6140a982614053565b6140b3818561405d565b93506140be8361406d565b805f5b838110156140ee5781516140d5888261407c565b97506140e083614093565b9250506001810190506140c1565b5085935050505092915050565b5f6020820190508181035f830152614113818461409f565b905092915050565b614124816138cf565b811461412e575f80fd5b50565b5f8135905061413f8161411b565b92915050565b5f806040838503121561415b5761415a613847565b5b5f61416885828601613ab6565b925050602061417985828601614131565b9150509250929050565b5f805f6060848603121561419a57614199613847565b5b5f6141a786828701613921565b93505060206141b886828701613921565b92505060406141c986828701613ab6565b9150509250925092565b5f67ffffffffffffffff8211156141ed576141ec613b10565b5b6141f6826139b5565b9050602081019050919050565b5f614215614210846141d3565b613b6e565b90508281526020810184848401111561423157614230613b0c565b5b61423c848285613bb8565b509392505050565b5f82601f83011261425857614257613b08565b5b8135614268848260208601614203565b91505092915050565b5f805f806080858703121561428957614288613847565b5b5f61429687828801613ab6565b94505060206142a787828801613ab6565b93505060406142b887828801613921565b925050606085013567ffffffffffffffff8111156142d9576142d861384b565b5b6142e587828801614244565b91505092959194509250565b5f806040838503121561430757614306613847565b5b5f61431485828601613ab6565b925050602061432585828601613ab6565b9150509250929050565b5f610100820190508181035f830152614348818b6139c5565b9050614357602083018a613c8e565b6143646040830189613c8e565b6143716060830188613c8e565b61437e6080830187613c8e565b61438b60a0830186613c8e565b61439860c0830185613c8e565b6143a560e0830184613c8e565b9998505050505050505050565b7f43616c6c6572206973206e6f7420616e206f70657261746f72000000000000005f82015250565b5f6143e660198361397d565b91506143f1826143b2565b602082019050919050565b5f6020820190508181035f830152614413816143da565b9050919050565b7f4e465420646f6573206e6f7420657869737400000000000000000000000000005f82015250565b5f61444e60128361397d565b91506144598261441a565b602082019050919050565b5f6020820190508181035f83015261447b81614442565b9050919050565b7f4e487b71000000000000000000000000000000000000000000000000000000005f52602260045260245ffd5b5f60028204905060018216806144c657607f821691505b6020821081036144d9576144d8614482565b5b50919050565b7f43616c6c6572206973206e6f742061206d696e746572000000000000000000005f82015250565b5f61451360168361397d565b915061451e826144df565b602082019050919050565b5f6020820190508181035f83015261454081614507565b9050919050565b7f4e487b71000000000000000000000000000000000000000000000000000000005f52601160045260245ffd5b5f61457e82613902565b915061458983613902565b92508282019050808211156145a1576145a0614547565b5b92915050565b5f819050815f5260205f209050919050565b5f6020601f8301049050919050565b5f82821b905092915050565b5f600883026146037fffffffffffffffffffffffffffffffffffffffffffffffffffffffffffffffff826145c8565b61460d86836145c8565b95508019841693508086168417925050509392505050565b5f819050919050565b5f61464861464361463e84613902565b614625565b613902565b9050919050565b5f819050919050565b6146618361462e565b61467561466d8261464f565b8484546145d4565b825550505050565b5f90565b61468961467d565b614694818484614658565b505050565b5b818110156146b7576146ac5f82614681565b60018101905061469a565b5050565b601f8211156146fc576146cd816145a7565b6146d6846145b9565b810160208510156146e5578190505b6146f96146f1856145b9565b830182614699565b50505b505050565b5f82821c905092915050565b5f61471c5f1984600802614701565b1980831691505092915050565b5f614734838361470d565b9150826002028217905092915050565b61474d82613973565b67ffffffffffffffff81111561476657614765613b10565b5b61477082546144af565b61477b8282856146bb565b5f60209050601f8311600181146147ac575f841561479a578287015190505b6147a48582614729565b86555061480b565b601f1984166147ba866145a7565b5f5b828110156147e1578489015182556001820191506020850194506020810190506147bc565b868310156147fe57848901516147fa601f89168261470d565b8355505b6001600288020188555050505b505050505050565b5f610120820190506148275f83018c613c8e565b8181036020830152614839818b6139c5565b9050614848604083018a613c8e565b6148556060830189613c8e565b6148626080830188613c8e565b61486f60a0830187613c8e565b61487c60c0830186613c8e565b61488960e0830185613c8e565b614897610100830184613c8e565b9a9950505050505050505050565b7f455243373231456e756d657261626c653a206f776e657220696e646578206f755f8201527f74206f6620626f756e6473000000000000000000000000000000000000000000602082015250565b5f6148ff602b8361397d565b915061490a826148a5565b604082019050919050565b5f6020820190508181035f83015261492c816148f3565b9050919050565b7f4e487b71000000000000000000000000000000000000000000000000000000005f52603260045260245ffd5b5f61496a82613902565b91507fffffffffffffffffffffffffffffffffffffffffffffffffffffffffffffffff820361499c5761499b614547565b5b600182019050919050565b7f43616c6c6572206973206e6f7420616e2061646d696e000000000000000000005f82015250565b5f6149db60168361397d565b91506149e6826149a7565b602082019050919050565b5f6020820190508181035f830152614a08816149cf565b9050919050565b7f455243373231456e756d657261626c653a20676c6f62616c20696e646578206f5f8201527f7574206f6620626f756e64730000000000000000000000000000000000000000602082015250565b5f614a69602c8361397d565b9150614a7482614a0f565b604082019050919050565b5f6020820190508181035f830152614a9681614a5d565b9050919050565b7f43616c6c6572206973206e6f7420612072656465656d657200000000000000005f82015250565b5f614ad160188361397d565b9150614adc82614a9d565b602082019050919050565b5f6020820190508181035f830152614afe81614ac5565b9050919050565b7f4e6f7420617070726f76656420746f206275726e0000000000000000000000005f82015250565b5f614b3960148361397d565b9150614b4482614b05565b602082019050919050565b5f6020820190508181035f830152614b6681614b2d565b9050919050565b5f604082019050614b805f830185613a4d565b614b8d6020830184613a4d565b9392505050565b5f81519050614ba28161390b565b92915050565b5f60208284031215614bbd57614bbc613847565b5b5f614bca84828501614b94565b91505092915050565b7f436f6e7472616374206e6f7420617070726f76656420746f207370656e6420745f8201527f686520726571756972656420616d6f756e74206f662055534400000000000000602082015250565b5f614c2d60398361397d565b9150614c3882614bd3565b604082019050919050565b5f6020820190508181035f830152614c5a81614c21565b9050919050565b5f614c6b82613902565b9150614c7683613902565b9250828202614c8481613902565b91508282048414831517614c9b57614c9a614547565b5b5092915050565b7f4e487b71000000000000000000000000000000000000000000000000000000005f52601260045260245ffd5b5f614cd982613902565b9150614ce483613902565b925082614cf457614cf3614ca2565b5b828204905092915050565b5f606082019050614d125f830186613a4d565b614d1f6020830185613a4d565b614d2c6040830184613c8e565b949350505050565b5f81519050614d428161411b565b92915050565b5f60208284031215614d5d57614d5c613847565b5b5f614d6a84828501614d34565b91505092915050565b7f4552433732313a20696e76616c696420746f6b656e20494400000000000000005f82015250565b5f614da760188361397d565b9150614db282614d73565b602082019050919050565b5f6020820190508181035f830152614dd481614d9b565b9050919050565b7f4552433732313a20617070726f76616c20746f2063757272656e74206f776e655f8201527f7200000000000000000000000000000000000000000000000000000000000000602082015250565b5f614e3560218361397d565b9150614e4082614ddb565b604082019050919050565b5f6020820190508181035f830152614e6281614e29565b9050919050565b7f4552433732313a20617070726f76652063616c6c6572206973206e6f7420746f5f8201527f6b656e206f776e6572206f7220617070726f76656420666f7220616c6c000000602082015250565b5f614ec3603d8361397d565b9150614ece82614e69565b604082019050919050565b5f6020820190508181035f830152614ef081614eb7565b9050919050565b7f45524337323155524953746f726167653a2055524920736574206f66206e6f6e5f8201527f6578697374656e7420746f6b656e000000000000000000000000000000000000602082015250565b5f614f51602e8361397d565b9150614f5c82614ef7565b604082019050919050565b5f6020820190508181035f830152614f7e81614f45565b9050919050565b7f4552433732313a2063616c6c6572206973206e6f7420746f6b656e206f776e655f8201527f72206f7220617070726f76656400000000000000000000000000000000000000602082015250565b5f614fdf602d8361397d565b9150614fea82614f85565b604082019050919050565b5f6020820190508181035f83015261500c81614fd3565b9050919050565b7f4552433732313a2061646472657373207a65726f206973206e6f7420612076615f8201527f6c6964206f776e65720000000000000000000000000000000000000000000000602082015250565b5f61506d60298361397d565b915061507882615013565b604082019050919050565b5f6020820190508181035f83015261509a81615061565b9050919050565b7f4552433732313a20617070726f766520746f2063616c6c6572000000000000005f82015250565b5f6150d560198361397d565b91506150e0826150a1565b602082019050919050565b5f6020820190508181035f830152615102816150c9565b9050919050565b7f5265656e7472616e637947756172643a207265656e7472616e742063616c6c005f82015250565b5f61513d601f8361397d565b915061514882615109565b602082019050919050565b5f6020820190508181035f83015261516a81615131565b9050919050565b5f81905092915050565b5f61518582613973565b61518f8185615171565b935061519f81856020860161398d565b80840191505092915050565b5f6151b6828561517b565b91506151c2828461517b565b91508190509392505050565b7f4552433732313a207472616e7366657220746f206e6f6e2045524337323152655f8201527f63656976657220696d706c656d656e7465720000000000000000000000000000602082015250565b5f61522860328361397d565b9150615233826151ce565b604082019050919050565b5f6020820190508181035f8301526152558161521c565b9050919050565b7f4552433732313a207472616e736665722066726f6d20696e636f7272656374205f8201527f6f776e6572000000000000000000000000000000000000000000000000000000602082015250565b5f6152b660258361397d565b91506152c18261525c565b604082019050919050565b5f6020820190508181035f8301526152e3816152aa565b9050919050565b7f4552433732313a207472616e7366657220746f20746865207a65726f206164645f8201527f7265737300000000000000000000000000000000000000000000000000000000602082015250565b5f61534460248361397d565b915061534f826152ea565b604082019050919050565b5f6020820190508181035f83015261537181615338565b9050919050565b7f4552433732313a206d696e7420746f20746865207a65726f20616464726573735f82015250565b5f6153ac60208361397d565b91506153b782615378565b602082019050919050565b5f6020820190508181035f8301526153d9816153a0565b9050919050565b7f4552433732313a20746f6b656e20616c7265616479206d696e746564000000005f82015250565b5f615414601c8361397d565b915061541f826153e0565b602082019050919050565b5f6020820190508181035f83015261544181615408565b9050919050565b5f81519050919050565b5f82825260208201905092915050565b5f61546c82615448565b6154768185615452565b935061548681856020860161398d565b61548f816139b5565b840191505092915050565b5f6080820190506154ad5f830187613a4d565b6154ba6020830186613a4d565b6154c76040830185613c8e565b81810360608301526154d98184615462565b905095945050505050565b5f815190506154f28161387a565b92915050565b5f6020828403121561550d5761550c613847565b5b5f61551a848285016154e4565b91505092915050565b7f455243373231456e756d657261626c653a20636f6e73656375746976652074725f8201527f616e7366657273206e6f7420737570706f727465640000000000000000000000602082015250565b5f61557d60358361397d565b915061558882615523565b604082019050919050565b5f6020820190508181035f8301526155aa81615571565b9050919050565b5f6155bb82613902565b91506155c683613902565b92508282039050818111156155de576155dd614547565b5b92915050565b7f4e487b71000000000000000000000000000000000000000000000000000000005f52603160045260245ffdfea2646970667358221220ce3f5bf4c53ff079e364448e8bbe4125ced9c630be1d130ef566ba386acf8b1a64736f6c63430008150033",
  "immutableReferences": {},
  "source": "// SPDX-License-Identifier: MIT\r\npragma solidity ^0.8.0;\r\n\r\nimport \"@openzeppelin/contracts/token/ERC721/extensions/ERC721Enumerable.sol\";\r\nimport \"@openzeppelin/contracts/token/ERC721/extensions/ERC721URIStorage.sol\";\r\nimport \"@openzeppelin/contracts/token/ERC20/IERC20.sol\";\r\nimport \"@openzeppelin/contracts/security/ReentrancyGuard.sol\";\r\n\r\n\r\n\r\n    /**\r\n    * @title PropertyNFT\r\n    * @dev An NFT representation of a property. This contract allows for minting property NFTs, updating their attributes,\r\n    * and querying based on certain attributes like propertyID. It also provides role-based access control for various operations.\r\n    */\r\ncontract PropertyNFT is ERC721, ERC721Enumerable, ERC721URIStorage, ReentrancyGuard  {\r\n\r\n    /**\r\n    * @dev Struct representing a Property with various attributes.\r\n    */\r\n    struct Property {\r\n        string propertyName; // name of the property\r\n        uint apr; // apr the property guarantee\r\n        uint totalPropertyRaised; // total sell value of the property\r\n        uint propertyParticipation; // amount user partecipated in the property\r\n        uint propertyID; // id of the launchpad that sold the property\r\n        uint redeemFees; // fees that will be paid when redeem the profit from property selling\r\n        uint sellFees; // fees from selling the NFT in the marketplace\r\n        uint totalEarned; // revenue generated by the NFT property over time\r\n    }\r\n\r\n    mapping(uint256 => Property) public properties; // Mapping of token ID to its associated Property\r\n    mapping(uint => uint256[]) public propertyIDToTokenIds; // Mapping of launchpad ID to an array of token IDs\r\n\r\n    \r\n\r\n    // Role-based access controls\r\n    address public admin;\r\n    address public minter;\r\n    address public redeemer;\r\n    address public operator;\r\n\r\n    /**\r\n     * @dev Ensures that the caller is the admin.\r\n     */\r\n    modifier onlyAdmin() {\r\n        require(msg.sender == admin, \"Caller is not an admin\");\r\n        _;\r\n    }\r\n\r\n    /**\r\n     * @dev Ensures that the caller has minting privileges.\r\n     */\r\n    modifier onlyMinter() {\r\n        require(msg.sender == minter, \"Caller is not a minter\");\r\n        _;\r\n    }\r\n\r\n    /**\r\n     * @dev Ensures that the caller has redeeming privileges.\r\n     */\r\n    modifier onlyRedeemer() {\r\n        require(msg.sender == redeemer, \"Caller is not a redeemer\");\r\n        _;\r\n    }\r\n\r\n    /**\r\n     * @dev Ensures that the caller has operational privileges.\r\n     */\r\n    modifier onlyOperator() {\r\n        require(msg.sender == operator, \"Caller is not an operator\");\r\n        _;\r\n    }\r\n\r\n    /**\r\n    * @dev Emitted when a new property NFT is minted.\r\n    */\r\n    event PropertyMinted(\r\n        uint256 tokenId,\r\n        string propertyName,\r\n        uint apr,\r\n        uint totalPropertyRaised,\r\n        uint propertyParticipation,\r\n        uint propertyID,\r\n        uint redeemFees,\r\n        uint sellFees,\r\n        uint totalEarned\r\n    );\r\n\r\n\r\n    /**\r\n    * @dev Sets up the main admin role on contract deployment.\r\n    */\r\n    constructor() ERC721(\"PropertyNFT\", \"PNFT\") {\r\n        admin = msg.sender;  // Set deployer as the initial admin\r\n    }\r\n\r\n\r\n    /**\r\n     * @dev Assigns a new admin.\r\n     * @param _newAdmin Address of the new admin.\r\n     */\r\n    function setNewAdmin(address _newAdmin) public onlyAdmin {\r\n        admin = _newAdmin;\r\n    }\r\n\r\n    /**\r\n     * @dev Assigns a minter role to an address.\r\n     * @param _minter Address to be assigned the minter role.\r\n     */\r\n    function setMinter(address _minter) public onlyAdmin {\r\n        minter = _minter;\r\n    }\r\n\r\n    /**\r\n     * @dev Assigns a redeemer role to an address.\r\n     * @param _redeemer Address to be assigned the redeemer role.\r\n     */\r\n    function setRedeemer(address _redeemer) public onlyAdmin {\r\n        redeemer = _redeemer;\r\n    }\r\n\r\n    /**\r\n     * @dev Assigns an operator role to an address.\r\n     * @param _operator Address to be assigned the operator role.\r\n     */\r\n    function setOperator(address _operator) public onlyAdmin {\r\n        operator = _operator;\r\n    }\r\n\r\n    /**\r\n    * @dev Mints a new property NFT.\r\n    * @param to - the recipient address of the minted token.\r\n    * @param propertyName - name of property NFT represent.\r\n    * @param apr - APR expected from the property.\r\n    * @param totalPropertyRaised - Total sell value of the property.\r\n    * @param propertyParticipation - amount user partecipated in the property.\r\n    * @param propertyID - id of the launchpad that sold the property.\r\n    * @param redeemFees - fees that will be paid when redeem the profit from property selling.\r\n    * @param sellFees - fees from selling the NFT in the marketplace.\r\n    * @param totalEarned - revenue generated by the NFT property over time.\r\n    * @notice Only callable by an address with the MinterPad role.\r\n    */\r\n    function mintProperty(\r\n        address to,\r\n        string memory propertyName,\r\n        uint apr,\r\n        uint totalPropertyRaised,\r\n        uint propertyParticipation,\r\n        uint propertyID,\r\n        uint redeemFees,\r\n        uint sellFees,\r\n        uint totalEarned\r\n    ) external onlyMinter returns (uint256) {\r\n        uint256 newTokenId = totalSupply() + 1;\r\n        _safeMint(to, newTokenId);\r\n\r\n        Property memory newProperty = Property({\r\n            propertyName: propertyName,\r\n            apr: apr,\r\n            totalPropertyRaised: totalPropertyRaised,\r\n            propertyParticipation: propertyParticipation,\r\n            propertyID: propertyID,\r\n            redeemFees: redeemFees,\r\n            sellFees: sellFees,\r\n            totalEarned: totalEarned\r\n        });\r\n\r\n        properties[newTokenId] = newProperty;\r\n        propertyIDToTokenIds[propertyID].push(newTokenId);\r\n\r\n        emit PropertyMinted(\r\n            newTokenId,\r\n            propertyName,\r\n            apr,\r\n            totalPropertyRaised,\r\n            propertyParticipation,\r\n            propertyID,\r\n            redeemFees,\r\n            sellFees,\r\n            totalEarned\r\n        );\r\n\r\n        return newTokenId;\r\n    }\r\n\r\n    /**\r\n    * @dev Fetches all tokens associated with a particular propertyID.\r\n    * @param _propertyID - the ID of the launchpad to query.\r\n    * @return A list of token IDs associated with the provided propertyID.\r\n    */\r\n    function getTokensBypropertyID(uint _propertyID) public view returns (uint256[] memory) {\r\n        return propertyIDToTokenIds[_propertyID];\r\n    }\r\n\r\n\r\n    /**\r\n    * @dev Updates the sellFees attribute for a single  tokenIds.\r\n    * @param tokenId - NFT token IDs.\r\n    * @param _sellFees - the new value for sellFees to be set.\r\n    * @notice Only callable by an operator.\r\n    */\r\n    function updateSellFees(uint256 tokenId, uint _sellFees) external onlyOperator {\r\n        require(_exists(tokenId), \"NFT does not exist\");\r\n        properties[tokenId].sellFees = _sellFees;\r\n    }\r\n\r\n    /**\r\n    * @dev Updates the redeemfees attribute for a single  tokenIds.\r\n    * @param tokenId - NFT token IDs.\r\n    * @param _redeemFees - the new value for redeemfees to be set.\r\n    * @notice Only callable by an operator.\r\n    */\r\n    function updateRedeemFees(uint256 tokenId, uint _redeemFees) external onlyOperator {\r\n        require(_exists(tokenId), \"NFT does not exist\");\r\n        properties[tokenId].redeemFees = _redeemFees;\r\n    }\r\n\r\n\r\n    /**\r\n    * @dev Updates the sellFees attribute for a multiple tokenIds.\r\n    * @param tokenIds - Array of NFT token IDs.\r\n    * @param _sellFees - the new value for sellFees to be set.\r\n    * @notice Only callable by an operator.\r\n    */\r\n    function updateBulkSellFees(uint256[] memory tokenIds, uint _sellFees) external onlyOperator {\r\n        for (uint i = 0; i < tokenIds.length; i++) {\r\n            require(_exists(tokenIds[i]), \"NFT does not exist\");\r\n            properties[tokenIds[i]].sellFees = _sellFees;\r\n        }\r\n    }\r\n\r\n    /**\r\n    * @dev Updates the redeemFees attribute for a multiple tokenIds.\r\n    * @param tokenIds - Array of NFT token IDs.\r\n    * @param _redeemFees - the new value for redeemFees to be set.\r\n    * @notice Only callable by an operator.\r\n    */\r\n    function updateBulkRedeemFees(uint256[] memory tokenIds, uint _redeemFees) external onlyOperator {\r\n        for (uint i = 0; i < tokenIds.length; i++) {\r\n            require(_exists(tokenIds[i]), \"NFT does not exist\");\r\n            properties[tokenIds[i]].redeemFees = _redeemFees;\r\n        }\r\n    }\r\n\r\n    /**\r\n    * @dev Distributes rewards to NFT holders based on their properties' participation in a specified launchpad.\r\n    * The rewards are distributed in USD token. The contract needs to be approved by the operator to spend the USDT before calling this function.\r\n    *\r\n    * @param propertyID The ID of the launchpad for which rewards are to be distributed.\r\n    * @param amount The total amount of USD to be distributed among the NFT holders.\r\n    * @param TokenAddress The address of the ERC20 token contract.\r\n    *\r\n    * Emits a `Transfer` event for each reward distribution.\r\n    *\r\n    * Requirements:\r\n    * - The caller must have the `operator` role.\r\n    * - The contract must be approved by the operator to spend at least `amount` of USDT.\r\n    * - The total distributed amount should match the specified `amount`.\r\n    */\r\n    function distributeRewards(uint propertyID, uint amount, address TokenAddress) external onlyOperator nonReentrant  {\r\n        IERC20 Token = IERC20(TokenAddress); // Initialize USD token using the provided address\r\n\r\n        // Ensure that the operator has approved the contract to spend the required amount of USD\r\n        require(Token.allowance(msg.sender, address(this)) >= amount, \"Contract not approved to spend the required amount of USD\");\r\n\r\n        uint256[] memory tokenIDs = getTokensBypropertyID(propertyID);\r\n        uint totalDistributed = 0; // Keep track of total USD distributed\r\n\r\n        for (uint i = 0; i < tokenIDs.length; i++) {\r\n            Property memory property = properties[tokenIDs[i]];\r\n            \r\n            uint reward = (amount * property.propertyParticipation / property.totalPropertyRaised);\r\n            totalDistributed += reward;\r\n\r\n            // Transfer reward to NFT owner using USDT\r\n            Token.transferFrom(msg.sender, ownerOf(tokenIDs[i]), reward);\r\n\r\n            // Update totalEarned for the NFT\r\n            properties[tokenIDs[i]].totalEarned += reward;\r\n        }\r\n\r\n        // Ensure that the total distributed amount matches the specified amount\r\n        // require(totalDistributed == amount, \"Distributed amount does not match the specified amount\");\r\n    }\r\n\r\n\r\n\r\n    /**\r\n    * @dev Internal function to burn a token. Overrides the ERC721 burn functionality.\r\n    * @param tokenId - the ID of the token to be burned.\r\n    */\r\n    function _burn(uint256 tokenId) internal override(ERC721, ERC721URIStorage) {\r\n        super._burn(tokenId);\r\n    }\r\n\r\n    /**\r\n    * @dev Allows burning of a token after user's approval.\r\n    * @param tokenId - the ID of the token to be burned.\r\n    * @notice Only callable by an address with the RedeemPad role.\r\n    */\r\n    function burnTokenWithApproval(uint256 tokenId) external onlyRedeemer {\r\n        require(ownerOf(tokenId) == msg.sender || isApprovedForAll(ownerOf(tokenId), msg.sender), \"Not approved to burn\");\r\n        _burn(tokenId);\r\n    }\r\n\r\n    /**\r\n    * @dev Sets the URI for a given token ID. Overrides the ERC721URIStorage setTokenURI functionality.\r\n    * @param tokenId - the ID of the token to set the URI for.\r\n    * @param _tokenURI - the new URL for metadata.\r\n    */\r\n    function setTokenURI(uint256 tokenId, string memory _tokenURI) external onlyOperator {\r\n        _setTokenURI(tokenId, _tokenURI);\r\n    }\r\n\r\n    /**\r\n    * @dev Returns the URI associated with a specific token ID. Overrides ERC721's tokenURI functionality.\r\n    * @param tokenId - The ID of the token to fetch the URI for.\r\n    * @return A string representing the URI of the specified token.\r\n    */\r\n    function tokenURI(uint256 tokenId) public view override(ERC721, ERC721URIStorage) returns (string memory) {\r\n        return super.tokenURI(tokenId);\r\n    }\r\n    \r\n    /**\r\n    * @dev Fetches the Property details for a specific token ID.\r\n    * @param tokenId - The ID of the token to fetch the Property details for.\r\n    * @return A Property struct containing details about the specified property.\r\n    */\r\n    function getProperty(uint256 tokenId) external view returns (Property memory) {\r\n        return properties[tokenId];\r\n    }\r\n\r\n    /**\r\n    * @dev Returns the balance (number of tokens) of the specified owner. Overrides ERC721's balanceOf function.\r\n    * @param owner - The address of the user to fetch the balance for.\r\n    * @return The number of tokens owned by the specified address.\r\n    */\r\n    function balanceOf(address owner) public view virtual override(ERC721, IERC721) returns (uint256) {\r\n        return super.balanceOf(owner);\r\n    }\r\n\r\n    /**\r\n    * @dev Returns the owner of the specified token ID. Overrides ERC721's ownerOf function.\r\n    * @param tokenId - The ID of the token to fetch the owner for.\r\n    * @return The address of the owner of the specified token.\r\n    */\r\n    function ownerOf(uint256 tokenId) public view virtual override(ERC721, IERC721) returns (address) {\r\n        return super.ownerOf(tokenId);\r\n    }\r\n    \r\n    /**\r\n    * @dev Approves another address to manage the specified token. Overrides ERC721's approve function.\r\n    * @param to - The address to be approved.\r\n    * @param tokenId - The ID of the token to be approved for management.\r\n    */\r\n    function approve(address to, uint256 tokenId) public virtual override(ERC721, IERC721) {\r\n        super.approve(to, tokenId);\r\n    }\r\n\r\n    /**\r\n    * @dev Transfers the ownership of a token from one address to another. Overrides ERC721's transferFrom function.\r\n    * @param from - The current owner of the token.\r\n    * @param to - The address to receive the token.\r\n    * @param tokenId - The ID of the token to be transferred.\r\n    */\r\n    function transferFrom(address from, address to, uint256 tokenId) public virtual override(ERC721, IERC721) {\r\n        super.transferFrom(from, to, tokenId);\r\n    }\r\n\r\n    /**\r\n    * @dev Safely transfers the ownership of a token from one address to another. Overrides ERC721's safeTransferFrom function.\r\n    * @param from - The current owner of the token.\r\n    * @param to - The address to receive the token.\r\n    * @param tokenId - The ID of the token to be transferred.\r\n    */\r\n    function safeTransferFrom(address from, address to, uint256 tokenId) public virtual override(ERC721, IERC721) {\r\n        super.safeTransferFrom(from, to, tokenId);\r\n    }\r\n\r\n    /**\r\n    * @dev Safely transfers the ownership of a token from one address to another, with additional data. Overrides ERC721's safeTransferFrom function.\r\n    * @param from - The current owner of the token.\r\n    * @param to - The address to receive the token.\r\n    * @param tokenId - The ID of the token to be transferred.\r\n    * @param _data - Additional data to accompany the transfer.\r\n    */\r\n    function safeTransferFrom(address from, address to, uint256 tokenId, bytes memory _data) public virtual override(ERC721, IERC721) {\r\n        super.safeTransferFrom(from, to, tokenId, _data);\r\n    }\r\n    \r\n    /** Additional Overrides to avoid library conflicts */\r\n    function _beforeTokenTransfer(address from, address to, uint256 tokenId, uint256 batchSize) internal virtual override(ERC721, ERC721Enumerable) {\r\n        super._beforeTokenTransfer(from, to, tokenId, batchSize); \r\n    }\r\n    \r\n    function supportsInterface(bytes4 interfaceId) public view virtual override(ERC721, ERC721Enumerable, ERC721URIStorage) returns (bool) {\r\n        return super.supportsInterface(interfaceId);\r\n    }\r\n}",
  "sourcePath": "C:\\Users\\loren\\Desktop\\PersonalProjects\\PropertyNFT\\contracts\\PropertyNFT.sol",
  "compiler": {
    "name": "solc",
    "version": "0.8.21+commit.d9974bed.Emscripten.clang"
  },
  "schemaVersion": "3.4.16",
  "updatedAt": "2023-10-06T23:27:46.626Z",
  "devdoc": {
    "details": "An NFT representation of a property. This contract allows for minting property NFTs, updating their attributes, and querying based on certain attributes like propertyID. It also provides role-based access control for various operations.",
    "events": {
      "Approval(address,address,uint256)": {
        "details": "Emitted when `owner` enables `approved` to manage the `tokenId` token."
      },
      "ApprovalForAll(address,address,bool)": {
        "details": "Emitted when `owner` enables or disables (`approved`) `operator` to manage all of its assets."
      },
      "BatchMetadataUpdate(uint256,uint256)": {
        "details": "This event emits when the metadata of a range of tokens is changed. So that the third-party platforms such as NFT market could timely update the images and related attributes of the NFTs."
      },
      "MetadataUpdate(uint256)": {
        "details": "This event emits when the metadata of a token is changed. So that the third-party platforms such as NFT market could timely update the images and related attributes of the NFT."
      },
      "PropertyMinted(uint256,string,uint256,uint256,uint256,uint256,uint256,uint256,uint256)": {
        "details": "Emitted when a new property NFT is minted."
      },
      "Transfer(address,address,uint256)": {
        "details": "Emitted when `tokenId` token is transferred from `from` to `to`."
      }
    },
    "kind": "dev",
    "methods": {
      "approve(address,uint256)": {
        "details": "Approves another address to manage the specified token. Overrides ERC721's approve function.",
        "params": {
          "to": "- The address to be approved.",
          "tokenId": "- The ID of the token to be approved for management."
        }
      },
      "balanceOf(address)": {
        "details": "Returns the balance (number of tokens) of the specified owner. Overrides ERC721's balanceOf function.",
        "params": {
          "owner": "- The address of the user to fetch the balance for."
        },
        "returns": {
          "_0": "The number of tokens owned by the specified address."
        }
      },
      "burnTokenWithApproval(uint256)": {
        "details": "Allows burning of a token after user's approval.",
        "params": {
          "tokenId": "- the ID of the token to be burned."
        }
      },
      "constructor": {
        "details": "Sets up the main admin role on contract deployment."
      },
      "distributeRewards(uint256,uint256,address)": {
        "details": "Distributes rewards to NFT holders based on their properties' participation in a specified launchpad. The rewards are distributed in USD token. The contract needs to be approved by the operator to spend the USDT before calling this function.",
        "params": {
          "TokenAddress": "The address of the ERC20 token contract. Emits a `Transfer` event for each reward distribution. Requirements: - The caller must have the `operator` role. - The contract must be approved by the operator to spend at least `amount` of USDT. - The total distributed amount should match the specified `amount`.",
          "amount": "The total amount of USD to be distributed among the NFT holders.",
          "propertyID": "The ID of the launchpad for which rewards are to be distributed."
        }
      },
      "getApproved(uint256)": {
        "details": "See {IERC721-getApproved}."
      },
      "getProperty(uint256)": {
        "details": "Fetches the Property details for a specific token ID.",
        "params": {
          "tokenId": "- The ID of the token to fetch the Property details for."
        },
        "returns": {
          "_0": "A Property struct containing details about the specified property."
        }
      },
      "getTokensBypropertyID(uint256)": {
        "details": "Fetches all tokens associated with a particular propertyID.",
        "params": {
          "_propertyID": "- the ID of the launchpad to query."
        },
        "returns": {
          "_0": "A list of token IDs associated with the provided propertyID."
        }
      },
      "isApprovedForAll(address,address)": {
        "details": "See {IERC721-isApprovedForAll}."
      },
      "mintProperty(address,string,uint256,uint256,uint256,uint256,uint256,uint256,uint256)": {
        "details": "Mints a new property NFT.",
        "params": {
          "apr": "- APR expected from the property.",
          "propertyID": "- id of the launchpad that sold the property.",
          "propertyName": "- name of property NFT represent.",
          "propertyParticipation": "- amount user partecipated in the property.",
          "redeemFees": "- fees that will be paid when redeem the profit from property selling.",
          "sellFees": "- fees from selling the NFT in the marketplace.",
          "to": "- the recipient address of the minted token.",
          "totalEarned": "- revenue generated by the NFT property over time.",
          "totalPropertyRaised": "- Total sell value of the property."
        }
      },
      "name()": {
        "details": "See {IERC721Metadata-name}."
      },
      "ownerOf(uint256)": {
        "details": "Returns the owner of the specified token ID. Overrides ERC721's ownerOf function.",
        "params": {
          "tokenId": "- The ID of the token to fetch the owner for."
        },
        "returns": {
          "_0": "The address of the owner of the specified token."
        }
      },
      "safeTransferFrom(address,address,uint256)": {
        "details": "Safely transfers the ownership of a token from one address to another. Overrides ERC721's safeTransferFrom function.",
        "params": {
          "from": "- The current owner of the token.",
          "to": "- The address to receive the token.",
          "tokenId": "- The ID of the token to be transferred."
        }
      },
      "safeTransferFrom(address,address,uint256,bytes)": {
        "details": "Safely transfers the ownership of a token from one address to another, with additional data. Overrides ERC721's safeTransferFrom function.",
        "params": {
          "_data": "- Additional data to accompany the transfer.",
          "from": "- The current owner of the token.",
          "to": "- The address to receive the token.",
          "tokenId": "- The ID of the token to be transferred."
        }
      },
      "setApprovalForAll(address,bool)": {
        "details": "See {IERC721-setApprovalForAll}."
      },
      "setMinter(address)": {
        "details": "Assigns a minter role to an address.",
        "params": {
          "_minter": "Address to be assigned the minter role."
        }
      },
      "setNewAdmin(address)": {
        "details": "Assigns a new admin.",
        "params": {
          "_newAdmin": "Address of the new admin."
        }
      },
      "setOperator(address)": {
        "details": "Assigns an operator role to an address.",
        "params": {
          "_operator": "Address to be assigned the operator role."
        }
      },
      "setRedeemer(address)": {
        "details": "Assigns a redeemer role to an address.",
        "params": {
          "_redeemer": "Address to be assigned the redeemer role."
        }
      },
      "setTokenURI(uint256,string)": {
        "details": "Sets the URI for a given token ID. Overrides the ERC721URIStorage setTokenURI functionality.",
        "params": {
          "_tokenURI": "- the new URL for metadata.",
          "tokenId": "- the ID of the token to set the URI for."
        }
      },
      "symbol()": {
        "details": "See {IERC721Metadata-symbol}."
      },
      "tokenByIndex(uint256)": {
        "details": "See {IERC721Enumerable-tokenByIndex}."
      },
      "tokenOfOwnerByIndex(address,uint256)": {
        "details": "See {IERC721Enumerable-tokenOfOwnerByIndex}."
      },
      "tokenURI(uint256)": {
        "details": "Returns the URI associated with a specific token ID. Overrides ERC721's tokenURI functionality.",
        "params": {
          "tokenId": "- The ID of the token to fetch the URI for."
        },
        "returns": {
          "_0": "A string representing the URI of the specified token."
        }
      },
      "totalSupply()": {
        "details": "See {IERC721Enumerable-totalSupply}."
      },
      "transferFrom(address,address,uint256)": {
        "details": "Transfers the ownership of a token from one address to another. Overrides ERC721's transferFrom function.",
        "params": {
          "from": "- The current owner of the token.",
          "to": "- The address to receive the token.",
          "tokenId": "- The ID of the token to be transferred."
        }
      },
      "updateBulkRedeemFees(uint256[],uint256)": {
        "details": "Updates the redeemFees attribute for a multiple tokenIds.",
        "params": {
          "_redeemFees": "- the new value for redeemFees to be set.",
          "tokenIds": "- Array of NFT token IDs."
        }
      },
      "updateBulkSellFees(uint256[],uint256)": {
        "details": "Updates the sellFees attribute for a multiple tokenIds.",
        "params": {
          "_sellFees": "- the new value for sellFees to be set.",
          "tokenIds": "- Array of NFT token IDs."
        }
      },
      "updateRedeemFees(uint256,uint256)": {
        "details": "Updates the redeemfees attribute for a single  tokenIds.",
        "params": {
          "_redeemFees": "- the new value for redeemfees to be set.",
          "tokenId": "- NFT token IDs."
        }
      },
      "updateSellFees(uint256,uint256)": {
        "details": "Updates the sellFees attribute for a single  tokenIds.",
        "params": {
          "_sellFees": "- the new value for sellFees to be set.",
          "tokenId": "- NFT token IDs."
        }
      }
    },
    "title": "PropertyNFT",
    "version": 1
  },
  "userdoc": {
    "kind": "user",
    "methods": {
      "burnTokenWithApproval(uint256)": {
        "notice": "Only callable by an address with the RedeemPad role."
      },
      "mintProperty(address,string,uint256,uint256,uint256,uint256,uint256,uint256,uint256)": {
        "notice": "Only callable by an address with the MinterPad role."
      },
      "updateBulkRedeemFees(uint256[],uint256)": {
        "notice": "Only callable by an operator."
      },
      "updateBulkSellFees(uint256[],uint256)": {
        "notice": "Only callable by an operator."
      },
      "updateRedeemFees(uint256,uint256)": {
        "notice": "Only callable by an operator."
      },
      "updateSellFees(uint256,uint256)": {
        "notice": "Only callable by an operator."
      }
    },
    "version": 1
  }
}