{
  "contractName": "PropertyREDEEM",
  "abi": [
    {
      "inputs": [
        {
          "internalType": "address",
          "name": "_propertyNFT",
          "type": "address"
        }
      ],
      "stateMutability": "nonpayable",
      "type": "constructor"
    },
    {
      "anonymous": false,
      "inputs": [
        {
          "indexed": true,
          "internalType": "address",
          "name": "oldAdmin",
          "type": "address"
        },
        {
          "indexed": true,
          "internalType": "address",
          "name": "newAdmin",
          "type": "address"
        }
      ],
      "name": "AdminTransferred",
      "type": "event"
    },
    {
      "anonymous": false,
      "inputs": [
        {
          "indexed": true,
          "internalType": "uint256",
          "name": "tokenId",
          "type": "uint256"
        },
        {
          "indexed": true,
          "internalType": "uint256",
          "name": "propertyID",
          "type": "uint256"
        },
        {
          "indexed": false,
          "internalType": "uint256",
          "name": "claimAmount",
          "type": "uint256"
        },
        {
          "indexed": false,
          "internalType": "uint256",
          "name": "fees",
          "type": "uint256"
        },
        {
          "indexed": false,
          "internalType": "address",
          "name": "tokenAddress",
          "type": "address"
        }
      ],
      "name": "ClaimEvent",
      "type": "event"
    },
    {
      "anonymous": false,
      "inputs": [
        {
          "indexed": true,
          "internalType": "uint256",
          "name": "propertyID",
          "type": "uint256"
        },
        {
          "indexed": false,
          "internalType": "uint256",
          "name": "amount",
          "type": "uint256"
        },
        {
          "indexed": false,
          "internalType": "address",
          "name": "tokenAddress",
          "type": "address"
        }
      ],
      "name": "TopUpEvent",
      "type": "event"
    },
    {
      "inputs": [],
      "name": "admin",
      "outputs": [
        {
          "internalType": "address",
          "name": "",
          "type": "address"
        }
      ],
      "stateMutability": "view",
      "type": "function"
    },
    {
      "inputs": [
        {
          "internalType": "uint256",
          "name": "",
          "type": "uint256"
        }
      ],
      "name": "claimAmounts",
      "outputs": [
        {
          "internalType": "uint256",
          "name": "",
          "type": "uint256"
        }
      ],
      "stateMutability": "view",
      "type": "function"
    },
    {
      "inputs": [
        {
          "internalType": "uint256",
          "name": "",
          "type": "uint256"
        }
      ],
      "name": "claimingInProgress",
      "outputs": [
        {
          "internalType": "bool",
          "name": "",
          "type": "bool"
        }
      ],
      "stateMutability": "view",
      "type": "function"
    },
    {
      "inputs": [
        {
          "internalType": "uint256",
          "name": "",
          "type": "uint256"
        }
      ],
      "name": "numberOfClaims",
      "outputs": [
        {
          "internalType": "uint256",
          "name": "",
          "type": "uint256"
        }
      ],
      "stateMutability": "view",
      "type": "function"
    },
    {
      "inputs": [
        {
          "internalType": "uint256",
          "name": "",
          "type": "uint256"
        }
      ],
      "name": "propertyIDs",
      "outputs": [
        {
          "internalType": "uint256",
          "name": "",
          "type": "uint256"
        }
      ],
      "stateMutability": "view",
      "type": "function"
    },
    {
      "inputs": [],
      "name": "propertyNFT",
      "outputs": [
        {
          "internalType": "contract IPropertyNFT",
          "name": "",
          "type": "address"
        }
      ],
      "stateMutability": "view",
      "type": "function"
    },
    {
      "inputs": [
        {
          "internalType": "uint256",
          "name": "",
          "type": "uint256"
        }
      ],
      "name": "totalClaimedAmounts",
      "outputs": [
        {
          "internalType": "uint256",
          "name": "",
          "type": "uint256"
        }
      ],
      "stateMutability": "view",
      "type": "function"
    },
    {
      "inputs": [
        {
          "internalType": "uint256",
          "name": "_propertyID",
          "type": "uint256"
        },
        {
          "internalType": "uint256",
          "name": "_amount",
          "type": "uint256"
        },
        {
          "internalType": "address",
          "name": "_tokenAddress",
          "type": "address"
        }
      ],
      "name": "topUp",
      "outputs": [],
      "stateMutability": "nonpayable",
      "type": "function"
    },
    {
      "inputs": [
        {
          "internalType": "uint256",
          "name": "_tokenId",
          "type": "uint256"
        },
        {
          "internalType": "address",
          "name": "_tokenAddress",
          "type": "address"
        }
      ],
      "name": "claim",
      "outputs": [],
      "stateMutability": "nonpayable",
      "type": "function"
    },
    {
      "inputs": [
        {
          "internalType": "uint256",
          "name": "_propertyID",
          "type": "uint256"
        },
        {
          "internalType": "address",
          "name": "_tokenAddress",
          "type": "address"
        }
      ],
      "name": "refundTopUp",
      "outputs": [],
      "stateMutability": "nonpayable",
      "type": "function"
    },
    {
      "inputs": [
        {
          "internalType": "address",
          "name": "_tokenAddress",
          "type": "address"
        },
        {
          "internalType": "uint256",
          "name": "_amount",
          "type": "uint256"
        }
      ],
      "name": "emergencyWithdraw",
      "outputs": [],
      "stateMutability": "nonpayable",
      "type": "function"
    },
    {
      "inputs": [
        {
          "internalType": "uint256",
          "name": "_propertyID",
          "type": "uint256"
        }
      ],
      "name": "getClaimStats",
      "outputs": [
        {
          "internalType": "uint256",
          "name": "claims",
          "type": "uint256"
        },
        {
          "internalType": "uint256",
          "name": "totalClaimed",
          "type": "uint256"
        },
        {
          "internalType": "uint256",
          "name": "remainingToClaim",
          "type": "uint256"
        }
      ],
      "stateMutability": "view",
      "type": "function"
    },
    {
      "inputs": [],
      "name": "getClaimingInProgress",
      "outputs": [
        {
          "internalType": "uint256",
          "name": "count",
          "type": "uint256"
        },
        {
          "internalType": "uint256[]",
          "name": "activePropertyIDs",
          "type": "uint256[]"
        }
      ],
      "stateMutability": "view",
      "type": "function"
    },
    {
      "inputs": [
        {
          "internalType": "address",
          "name": "newAdmin",
          "type": "address"
        }
      ],
      "name": "transferAdmin",
      "outputs": [],
      "stateMutability": "nonpayable",
      "type": "function"
    }
  ],
  "bytecode": "0x608060405234801562000010575f80fd5b506040516200225338038062002253833981810160405281019062000036919062000129565b60015f819055503360015f6101000a81548173ffffffffffffffffffffffffffffffffffffffff021916908373ffffffffffffffffffffffffffffffffffffffff1602179055508060025f6101000a81548173ffffffffffffffffffffffffffffffffffffffff021916908373ffffffffffffffffffffffffffffffffffffffff1602179055505062000159565b5f80fd5b5f73ffffffffffffffffffffffffffffffffffffffff82169050919050565b5f620000f382620000c8565b9050919050565b6200010581620000e7565b811462000110575f80fd5b50565b5f815190506200012381620000fa565b92915050565b5f60208284031215620001415762000140620000c4565b5b5f620001508482850162000113565b91505092915050565b6120ec80620001675f395ff3fe608060405234801561000f575f80fd5b50600436106100e8575f3560e01c806375829def1161008a578063c1ae85fe11610064578063c1ae85fe1461026c578063c23e04611461029c578063ddd5e1b2146102bb578063f851a440146102d7576100e8565b806375829def1461021857806395ccea6714610234578063b5b61d7114610250576100e8565b80632a5d21b0116100c65780632a5d21b01461016857806337f768381461019a578063509bc786146101b857806362d724ae146101e8576100e8565b80630cf30077146100ec5780630f4388c01461010857806311b9fbc914610138575b5f80fd5b61010660048036038101906101019190611418565b6102f5565b005b610122600480360381019061011d9190611456565b6104cc565b60405161012f9190611490565b60405180910390f35b610152600480360381019061014d9190611456565b6104e1565b60405161015f91906114c3565b60405180910390f35b610182600480360381019061017d9190611456565b6104fe565b604051610191939291906114dc565b60405180910390f35b6101a261054f565b6040516101af919061156c565b60405180910390f35b6101d260048036038101906101cd9190611456565b610574565b6040516101df9190611490565b60405180910390f35b61020260048036038101906101fd9190611456565b610589565b60405161020f9190611490565b60405180910390f35b610232600480360381019061022d9190611585565b61059e565b005b61024e600480360381019061024991906115b0565b610759565b005b61026a600480360381019061026591906115ee565b6108dc565b005b61028660048036038101906102819190611456565b610b5a565b6040516102939190611490565b60405180910390f35b6102a4610b7a565b6040516102b29291906116f5565b60405180910390f35b6102d560048036038101906102d09190611418565b610d28565b005b6102df6112ab565b6040516102ec9190611732565b60405180910390f35b60015f9054906101000a900473ffffffffffffffffffffffffffffffffffffffff1673ffffffffffffffffffffffffffffffffffffffff163373ffffffffffffffffffffffffffffffffffffffff1614610384576040517f08c379a000000000000000000000000000000000000000000000000000000000815260040161037b906117a5565b60405180910390fd5b61038c6112d0565b5f8190505f60035f8581526020019081526020015f205490508173ffffffffffffffffffffffffffffffffffffffff1663a9059cbb60015f9054906101000a900473ffffffffffffffffffffffffffffffffffffffff16836040518363ffffffff1660e01b81526004016104019291906117c3565b6020604051808303815f875af115801561041d573d5f803e3d5ffd5b505050506040513d601f19601f820116820180604052508101906104419190611814565b610480576040517f08c379a000000000000000000000000000000000000000000000000000000000815260040161047790611889565b60405180910390fd5b5f60035f8681526020019081526020015f20819055505f60065f8681526020019081526020015f205f6101000a81548160ff02191690831515021790555050506104c861131d565b5050565b6003602052805f5260405f205f915090505481565b6006602052805f5260405f205f915054906101000a900460ff1681565b5f805f60055f8581526020019081526020015f2054925060045f8581526020019081526020015f205491508160035f8681526020019081526020015f205461054691906118d4565b90509193909250565b60025f9054906101000a900473ffffffffffffffffffffffffffffffffffffffff1681565b6005602052805f5260405f205f915090505481565b6004602052805f5260405f205f915090505481565b60015f9054906101000a900473ffffffffffffffffffffffffffffffffffffffff1673ffffffffffffffffffffffffffffffffffffffff163373ffffffffffffffffffffffffffffffffffffffff161461062d576040517f08c379a0000000000000000000000000000000000000000000000000000000008152600401610624906117a5565b60405180910390fd5b5f73ffffffffffffffffffffffffffffffffffffffff168173ffffffffffffffffffffffffffffffffffffffff160361069b576040517f08c379a000000000000000000000000000000000000000000000000000000000815260040161069290611951565b60405180910390fd5b8073ffffffffffffffffffffffffffffffffffffffff1660015f9054906101000a900473ffffffffffffffffffffffffffffffffffffffff1673ffffffffffffffffffffffffffffffffffffffff167ff8ccb027dfcd135e000e9d45e6cc2d662578a8825d4c45b5e32e0adf67e79ec660405160405180910390a38060015f6101000a81548173ffffffffffffffffffffffffffffffffffffffff021916908373ffffffffffffffffffffffffffffffffffffffff16021790555050565b60015f9054906101000a900473ffffffffffffffffffffffffffffffffffffffff1673ffffffffffffffffffffffffffffffffffffffff163373ffffffffffffffffffffffffffffffffffffffff16146107e8576040517f08c379a00000000000000000000000000000000000000000000000000000000081526004016107df906117a5565b60405180910390fd5b6107f06112d0565b5f8290508073ffffffffffffffffffffffffffffffffffffffff1663a9059cbb60015f9054906101000a900473ffffffffffffffffffffffffffffffffffffffff16846040518363ffffffff1660e01b81526004016108509291906117c3565b6020604051808303815f875af115801561086c573d5f803e3d5ffd5b505050506040513d601f19601f820116820180604052508101906108909190611814565b6108cf576040517f08c379a00000000000000000000000000000000000000000000000000000000081526004016108c6906119b9565b60405180910390fd5b506108d861131d565b5050565b60015f9054906101000a900473ffffffffffffffffffffffffffffffffffffffff1673ffffffffffffffffffffffffffffffffffffffff163373ffffffffffffffffffffffffffffffffffffffff161461096b576040517f08c379a0000000000000000000000000000000000000000000000000000000008152600401610962906117a5565b60405180910390fd5b6109736112d0565b5f8190508073ffffffffffffffffffffffffffffffffffffffff166323b872dd3330866040518463ffffffff1660e01b81526004016109b4939291906119d7565b6020604051808303815f875af11580156109d0573d5f803e3d5ffd5b505050506040513d601f19601f820116820180604052508101906109f49190611814565b610a33576040517f08c379a0000000000000000000000000000000000000000000000000000000008152600401610a2a90611a56565b60405180910390fd5b610a578360035f8781526020019081526020015f205461132690919063ffffffff16565b60035f8681526020019081526020015f2081905550600160065f8681526020019081526020015f205f6101000a81548160ff0219169083151502179055505f805b600780549050811015610ae4578560078281548110610aba57610ab9611a74565b5b905f5260205f20015403610ad15760019150610ae4565b8080610adc90611aa1565b915050610a98565b5080610b1157600785908060018154018082558091505060019003905f5260205f20015f90919091909150555b847f4027cbf6be1f98b15b8025df32b82a311342d8375c2837d1ce8bf3d716402c008585604051610b43929190611ae8565b60405180910390a25050610b5561131d565b505050565b60078181548110610b69575f80fd5b905f5260205f20015f915090505481565b5f60605f60078054905067ffffffffffffffff811115610b9d57610b9c611b0f565b5b604051908082528060200260200182016040528015610bcb5781602001602082028036833780820191505090505b5090505f805b600780549050811015610c7b5760065f60078381548110610bf557610bf4611a74565b5b905f5260205f20015481526020019081526020015f205f9054906101000a900460ff1615610c685760078181548110610c3157610c30611a74565b5b905f5260205f200154838381518110610c4d57610c4c611a74565b5b6020026020010181815250508180610c6490611aa1565b9250505b8080610c7390611aa1565b915050610bd1565b508067ffffffffffffffff811115610c9657610c95611b0f565b5b604051908082528060200260200182016040528015610cc45781602001602082028036833780820191505090505b5092505f5b81811015610d1e57828181518110610ce457610ce3611a74565b5b6020026020010151848281518110610cff57610cfe611a74565b5b6020026020010181815250508080610d1690611aa1565b915050610cc9565b5080935050509091565b610d306112d0565b5f60025f9054906101000a900473ffffffffffffffffffffffffffffffffffffffff1673ffffffffffffffffffffffffffffffffffffffff1663f7b10808846040518263ffffffff1660e01b8152600401610d8b9190611490565b5f60405180830381865afa158015610da5573d5f803e3d5ffd5b505050506040513d5f823e3d601f19601f82011682018060405250810190610dcd9190611d64565b90503373ffffffffffffffffffffffffffffffffffffffff1660025f9054906101000a900473ffffffffffffffffffffffffffffffffffffffff1673ffffffffffffffffffffffffffffffffffffffff16636352211e856040518263ffffffff1660e01b8152600401610e409190611490565b602060405180830381865afa158015610e5b573d5f803e3d5ffd5b505050506040513d601f19601f82011682018060405250810190610e7f9190611dbf565b73ffffffffffffffffffffffffffffffffffffffff1614610ed5576040517f08c379a0000000000000000000000000000000000000000000000000000000008152600401610ecc90611e5a565b60405180910390fd5b5f610f188260400151610f0a846060015160035f876080015181526020019081526020015f205461133b90919063ffffffff16565b61135090919063ffffffff16565b90505f610f456064610f378560a001518561133b90919063ffffffff16565b61135090919063ffffffff16565b90505f8490508073ffffffffffffffffffffffffffffffffffffffff1663a9059cbb33610f7b858761136590919063ffffffff16565b6040518363ffffffff1660e01b8152600401610f989291906117c3565b6020604051808303815f875af1158015610fb4573d5f803e3d5ffd5b505050506040513d601f19601f82011682018060405250810190610fd89190611814565b611017576040517f08c379a000000000000000000000000000000000000000000000000000000000815260040161100e90611ec2565b60405180910390fd5b8073ffffffffffffffffffffffffffffffffffffffff1663a9059cbb60015f9054906101000a900473ffffffffffffffffffffffffffffffffffffffff16846040518363ffffffff1660e01b81526004016110739291906117c3565b6020604051808303815f875af115801561108f573d5f803e3d5ffd5b505050506040513d601f19601f820116820180604052508101906110b39190611814565b6110f2576040517f08c379a00000000000000000000000000000000000000000000000000000000081526004016110e990611f2a565b60405180910390fd5b61111a8360045f876080015181526020019081526020015f205461132690919063ffffffff16565b60045f866080015181526020019081526020015f208190555061115c600160055f876080015181526020019081526020015f205461132690919063ffffffff16565b60055f866080015181526020019081526020015f208190555060045f856080015181526020019081526020015f205460035f866080015181526020019081526020015f2054036111d3575f60065f866080015181526020019081526020015f205f6101000a81548160ff0219169083151502179055505b8360800151867f50d8b664f54832202d78c42df30d6651ad7d7745fa19e91112c19babc125aa6d85858960405161120c93929190611f48565b60405180910390a360025f9054906101000a900473ffffffffffffffffffffffffffffffffffffffff1673ffffffffffffffffffffffffffffffffffffffff166342966c68876040518263ffffffff1660e01b815260040161126e9190611490565b5f604051808303815f87803b158015611285575f80fd5b505af1158015611297573d5f803e3d5ffd5b50505050505050506112a761131d565b5050565b60015f9054906101000a900473ffffffffffffffffffffffffffffffffffffffff1681565b60025f5403611314576040517f08c379a000000000000000000000000000000000000000000000000000000000815260040161130b90611fc7565b60405180910390fd5b60025f81905550565b60015f81905550565b5f81836113339190611fe5565b905092915050565b5f81836113489190612018565b905092915050565b5f818361135d9190612086565b905092915050565b5f818361137291906118d4565b905092915050565b5f604051905090565b5f80fd5b5f80fd5b5f819050919050565b61139d8161138b565b81146113a7575f80fd5b50565b5f813590506113b881611394565b92915050565b5f73ffffffffffffffffffffffffffffffffffffffff82169050919050565b5f6113e7826113be565b9050919050565b6113f7816113dd565b8114611401575f80fd5b50565b5f81359050611412816113ee565b92915050565b5f806040838503121561142e5761142d611383565b5b5f61143b858286016113aa565b925050602061144c85828601611404565b9150509250929050565b5f6020828403121561146b5761146a611383565b5b5f611478848285016113aa565b91505092915050565b61148a8161138b565b82525050565b5f6020820190506114a35f830184611481565b92915050565b5f8115159050919050565b6114bd816114a9565b82525050565b5f6020820190506114d65f8301846114b4565b92915050565b5f6060820190506114ef5f830186611481565b6114fc6020830185611481565b6115096040830184611481565b949350505050565b5f819050919050565b5f61153461152f61152a846113be565b611511565b6113be565b9050919050565b5f6115458261151a565b9050919050565b5f6115568261153b565b9050919050565b6115668161154c565b82525050565b5f60208201905061157f5f83018461155d565b92915050565b5f6020828403121561159a57611599611383565b5b5f6115a784828501611404565b91505092915050565b5f80604083850312156115c6576115c5611383565b5b5f6115d385828601611404565b92505060206115e4858286016113aa565b9150509250929050565b5f805f6060848603121561160557611604611383565b5b5f611612868287016113aa565b9350506020611623868287016113aa565b925050604061163486828701611404565b9150509250925092565b5f81519050919050565b5f82825260208201905092915050565b5f819050602082019050919050565b6116708161138b565b82525050565b5f6116818383611667565b60208301905092915050565b5f602082019050919050565b5f6116a38261163e565b6116ad8185611648565b93506116b883611658565b805f5b838110156116e85781516116cf8882611676565b97506116da8361168d565b9250506001810190506116bb565b5085935050505092915050565b5f6040820190506117085f830185611481565b818103602083015261171a8184611699565b90509392505050565b61172c816113dd565b82525050565b5f6020820190506117455f830184611723565b92915050565b5f82825260208201905092915050565b7f43616c6c6572206973206e6f74207468652061646d696e0000000000000000005f82015250565b5f61178f60178361174b565b915061179a8261175b565b602082019050919050565b5f6020820190508181035f8301526117bc81611783565b9050919050565b5f6040820190506117d65f830185611723565b6117e36020830184611481565b9392505050565b6117f3816114a9565b81146117fd575f80fd5b50565b5f8151905061180e816117ea565b92915050565b5f6020828403121561182957611828611383565b5b5f61183684828501611800565b91505092915050565b7f526566756e64207472616e73666572206661696c6564000000000000000000005f82015250565b5f61187360168361174b565b915061187e8261183f565b602082019050919050565b5f6020820190508181035f8301526118a081611867565b9050919050565b7f4e487b71000000000000000000000000000000000000000000000000000000005f52601160045260245ffd5b5f6118de8261138b565b91506118e98361138b565b9250828203905081811115611901576119006118a7565b5b92915050565b7f4e65772061646d696e20697320746865207a65726f20616464726573730000005f82015250565b5f61193b601d8361174b565b915061194682611907565b602082019050919050565b5f6020820190508181035f8301526119688161192f565b9050919050565b7f456d657267656e6379207769746864726177616c206661696c656400000000005f82015250565b5f6119a3601b8361174b565b91506119ae8261196f565b602082019050919050565b5f6020820190508181035f8301526119d081611997565b9050919050565b5f6060820190506119ea5f830186611723565b6119f76020830185611723565b611a046040830184611481565b949350505050565b7f5472616e73666572206661696c656400000000000000000000000000000000005f82015250565b5f611a40600f8361174b565b9150611a4b82611a0c565b602082019050919050565b5f6020820190508181035f830152611a6d81611a34565b9050919050565b7f4e487b71000000000000000000000000000000000000000000000000000000005f52603260045260245ffd5b5f611aab8261138b565b91507fffffffffffffffffffffffffffffffffffffffffffffffffffffffffffffffff8203611add57611adc6118a7565b5b600182019050919050565b5f604082019050611afb5f830185611481565b611b086020830184611723565b9392505050565b7f4e487b71000000000000000000000000000000000000000000000000000000005f52604160045260245ffd5b5f80fd5b5f601f19601f8301169050919050565b611b5982611b40565b810181811067ffffffffffffffff82111715611b7857611b77611b0f565b5b80604052505050565b5f611b8a61137a565b9050611b968282611b50565b919050565b5f80fd5b5f80fd5b5f80fd5b5f67ffffffffffffffff821115611bc157611bc0611b0f565b5b611bca82611b40565b9050602081019050919050565b5f5b83811015611bf4578082015181840152602081019050611bd9565b5f8484015250505050565b5f611c11611c0c84611ba7565b611b81565b905082815260208101848484011115611c2d57611c2c611ba3565b5b611c38848285611bd7565b509392505050565b5f82601f830112611c5457611c53611b9f565b5b8151611c64848260208601611bff565b91505092915050565b5f81519050611c7b81611394565b92915050565b5f6101008284031215611c9757611c96611b3c565b5b611ca2610100611b81565b90505f82015167ffffffffffffffff811115611cc157611cc0611b9b565b5b611ccd84828501611c40565b5f830152506020611ce084828501611c6d565b6020830152506040611cf484828501611c6d565b6040830152506060611d0884828501611c6d565b6060830152506080611d1c84828501611c6d565b60808301525060a0611d3084828501611c6d565b60a08301525060c0611d4484828501611c6d565b60c08301525060e0611d5884828501611c6d565b60e08301525092915050565b5f60208284031215611d7957611d78611383565b5b5f82015167ffffffffffffffff811115611d9657611d95611387565b5b611da284828501611c81565b91505092915050565b5f81519050611db9816113ee565b92915050565b5f60208284031215611dd457611dd3611383565b5b5f611de184828501611dab565b91505092915050565b7f43616c6c6572206973206e6f7420746865206f776e6572206f6620746865204e5f8201527f4654000000000000000000000000000000000000000000000000000000000000602082015250565b5f611e4460228361174b565b9150611e4f82611dea565b604082019050919050565b5f6020820190508181035f830152611e7181611e38565b9050919050565b7f5472616e7366657220746f2075736572206661696c65640000000000000000005f82015250565b5f611eac60178361174b565b9150611eb782611e78565b602082019050919050565b5f6020820190508181035f830152611ed981611ea0565b9050919050565b7f5472616e73666572206f66206665657320746f2061646d696e206661696c65645f82015250565b5f611f1460208361174b565b9150611f1f82611ee0565b602082019050919050565b5f6020820190508181035f830152611f4181611f08565b9050919050565b5f606082019050611f5b5f830186611481565b611f686020830185611481565b611f756040830184611723565b949350505050565b7f5265656e7472616e637947756172643a207265656e7472616e742063616c6c005f82015250565b5f611fb1601f8361174b565b9150611fbc82611f7d565b602082019050919050565b5f6020820190508181035f830152611fde81611fa5565b9050919050565b5f611fef8261138b565b9150611ffa8361138b565b9250828201905080821115612012576120116118a7565b5b92915050565b5f6120228261138b565b915061202d8361138b565b925082820261203b8161138b565b91508282048414831517612052576120516118a7565b5b5092915050565b7f4e487b71000000000000000000000000000000000000000000000000000000005f52601260045260245ffd5b5f6120908261138b565b915061209b8361138b565b9250826120ab576120aa612059565b5b82820490509291505056fea26469706673582212203223a82154b0bc1e294c9a018f62819f02419b13deaef98a6e18171111adc6ea64736f6c63430008150033",
  "immutableReferences": {},
  "source": "// SPDX-License-Identifier: MIT\r\npragma solidity ^0.8.0;\r\n\r\nimport \"@openzeppelin/contracts/token/ERC20/IERC20.sol\";\r\nimport \"@openzeppelin/contracts/security/ReentrancyGuard.sol\";\r\nimport \"@openzeppelin/contracts/utils/math/SafeMath.sol\";\r\n\r\n\r\n/**\r\n * @title Interface for the PropertyNFT contract\r\n */\r\ninterface IPropertyNFT {\r\n    struct Property {\r\n        string propertyName;\r\n        uint apr;\r\n        uint totalPropertyRaised;\r\n        uint propertyParticipation;\r\n        uint propertyID;\r\n        uint redeemFees;\r\n        uint sellFees;\r\n        uint totalEarned;\r\n    }\r\n    \r\n    /**\r\n     * @notice Fetch the owner of the NFT with the given token ID.\r\n     * @param tokenId The ID of the NFT\r\n     * @return Address of the NFT owner\r\n     */\r\n    function ownerOf(uint256 tokenId) external view returns (address);\r\n    \r\n    /**\r\n     * @notice Fetch property details associated with the NFT.\r\n     * @param tokenId The ID of the NFT\r\n     * @return Property data structure with all the property details\r\n     */\r\n    function properties(uint256 tokenId) external view returns (Property memory);\r\n    \r\n    /**\r\n     * @notice Burn (destroy) an NFT with the given token ID.\r\n     * @param tokenId The ID of the NFT to be burned\r\n     */\r\n    function burn(uint256 tokenId) external;\r\n}\r\n\r\n/**\r\n * @title PropertyREDEEM contract for managing and redeeming property NFTs\r\n * @dev This contract allows the admin to top up funds for property NFTs and users to claim their share.\r\n */\r\ncontract PropertyREDEEM is ReentrancyGuard {\r\n    using SafeMath for uint;\r\n\r\n    address public admin;\r\n    IPropertyNFT public propertyNFT;\r\n    \r\n    // State variables\r\n    mapping(uint => uint) public claimAmounts;\r\n    mapping(uint => uint) public totalClaimedAmounts;\r\n    mapping(uint => uint) public numberOfClaims;\r\n    mapping(uint => bool) public claimingInProgress;\r\n    uint[] public propertyIDs;\r\n\r\n\r\n    // Events\r\n    event TopUpEvent(uint indexed propertyID, uint amount, address tokenAddress);\r\n    event ClaimEvent(uint256 indexed tokenId, uint indexed propertyID, uint claimAmount, uint fees, address tokenAddress);\r\n    event AdminTransferred(address indexed oldAdmin, address indexed newAdmin);\r\n\r\n    /**\r\n     * @notice Ensure only the admin can perform certain tasks.\r\n     */\r\n    modifier onlyAdmin() {\r\n        require(msg.sender == admin, \"Caller is not the admin\");\r\n        _;\r\n    }\r\n\r\n    /**\r\n     * @notice Constructor to set the PropertyNFT contract address and initialize the admin.\r\n     * @param _propertyNFT Address of the PropertyNFT contract\r\n     */\r\n    constructor(address _propertyNFT) {\r\n        admin = msg.sender;\r\n        propertyNFT = IPropertyNFT(_propertyNFT);\r\n    }\r\n\r\n    /**\r\n     * @notice Top up the claim amount for a specific property.\r\n     * @dev Only callable by the admin.\r\n     * @param _propertyID The ID of the property\r\n     * @param _amount The amount to top up\r\n     * @param _tokenAddress The address of the ERC20 token to use for the top-up\r\n     */\r\nfunction topUp(uint _propertyID, uint _amount, address _tokenAddress) external onlyAdmin nonReentrant {\r\n    IERC20 token = IERC20(_tokenAddress);\r\n    require(token.transferFrom(msg.sender, address(this), _amount), \"Transfer failed\");\r\n    claimAmounts[_propertyID] = claimAmounts[_propertyID].add(_amount);\r\n    claimingInProgress[_propertyID] = true;\r\n    \r\n    // Check if the property ID exists in propertyIDs\r\n    bool exists = false;\r\n    for (uint i = 0; i < propertyIDs.length; i++) {\r\n        if (propertyIDs[i] == _propertyID) {\r\n            exists = true;\r\n            break;\r\n        }\r\n    }\r\n    if (!exists) {\r\n        propertyIDs.push(_propertyID);\r\n    }\r\n    \r\n    emit TopUpEvent(_propertyID, _amount, _tokenAddress);\r\n}\r\n\r\n\r\n    /**\r\n     * @notice Claim the share associated with the user's NFT.\r\n     * @param _tokenId The ID of the user's NFT\r\n     * @param _tokenAddress The address of the ERC20 token to receive the claim in\r\n     */\r\n    function claim(uint256 _tokenId, address _tokenAddress) external nonReentrant {\r\n        IPropertyNFT.Property memory property = propertyNFT.properties(_tokenId);\r\n        require(propertyNFT.ownerOf(_tokenId) == msg.sender, \"Caller is not the owner of the NFT\");\r\n        \r\n        uint userClaim = (claimAmounts[property.propertyID].mul(property.propertyParticipation)).div(property.totalPropertyRaised);\r\n        uint fees = (userClaim.mul(property.redeemFees)).div(100);\r\n        \r\n        IERC20 token = IERC20(_tokenAddress);\r\n        require(token.transfer(msg.sender, userClaim.sub(fees)), \"Transfer to user failed\");\r\n        require(token.transfer(admin, fees), \"Transfer of fees to admin failed\");\r\n        \r\n        // Update the state variables\r\n        totalClaimedAmounts[property.propertyID] = totalClaimedAmounts[property.propertyID].add(userClaim);\r\n        numberOfClaims[property.propertyID] = numberOfClaims[property.propertyID].add(1);\r\n        if (claimAmounts[property.propertyID] == totalClaimedAmounts[property.propertyID]) {\r\n            claimingInProgress[property.propertyID] = false;  // Mark the property ID as done if all funds are claimed\r\n        }\r\n\r\n        // Emit ClaimEvent\r\n        emit ClaimEvent(_tokenId, property.propertyID, userClaim, fees, _tokenAddress);\r\n\r\n        // Burn the NFT after successful claim\r\n        propertyNFT.burn(_tokenId);\r\n    }\r\n\r\n\r\n    /**\r\n     * @notice Refund the top-up amount for a specific property.\r\n     * @dev Only callable by the admin. Resets the claim amount for the given property ID.\r\n     * @param _propertyID The ID of the property\r\n     * @param _tokenAddress The address of the ERC20 token in which the refund will be received\r\n     */\r\n    function refundTopUp(uint _propertyID, address _tokenAddress) external onlyAdmin nonReentrant {\r\n        IERC20 token = IERC20(_tokenAddress);\r\n        uint refundAmount = claimAmounts[_propertyID];\r\n        require(token.transfer(admin, refundAmount), \"Refund transfer failed\");\r\n        claimAmounts[_propertyID] = 0; // Reset the claim amount for the property ID\r\n        claimingInProgress[_propertyID] = false;  // Mark the property ID as no longer in the \"claiming process\"\r\n    }\r\n\r\n    /**\r\n     * @notice Withdraw a specified amount of tokens from the contract (emergency function).\r\n     * @dev Only callable by the admin.\r\n     * @param _tokenAddress The address of the ERC20 token to withdraw\r\n     * @param _amount The amount to withdraw\r\n     */\r\n    function emergencyWithdraw(address _tokenAddress, uint _amount) external onlyAdmin nonReentrant {\r\n        IERC20 token = IERC20(_tokenAddress);\r\n        require(token.transfer(admin, _amount), \"Emergency withdrawal failed\");\r\n    }\r\n\r\n    /**\r\n     * @notice Fetch the claim statistics for a given property.\r\n     * @param _propertyID The ID of the property\r\n     * @return claims The number of claims made for the property\r\n     * @return totalClaimed The total amount claimed for the property\r\n     * @return remainingToClaim The amount remaining to be claimed for the property\r\n     */\r\n    function getClaimStats(uint _propertyID) external view returns (uint claims, uint totalClaimed, uint remainingToClaim) {\r\n        claims = numberOfClaims[_propertyID];\r\n        totalClaimed = totalClaimedAmounts[_propertyID];\r\n        remainingToClaim = claimAmounts[_propertyID] - totalClaimed;\r\n    }\r\n\r\n    /**\r\n    * @notice Retrieves the properties that are currently in the \"claiming process\".\r\n    * @dev Iterates through the propertyIDs array to determine which properties are being claimed.\r\n    * @return count The number of properties currently in the \"claiming process\".\r\n    * @return activePropertyIDs An array of property IDs that are currently being claimed.\r\n    */\r\n    function getClaimingInProgress() external view returns (uint count, uint[] memory activePropertyIDs) {\r\n        uint[] memory tempPropertyIDs = new uint[](propertyIDs.length);\r\n        uint index = 0;\r\n        for (uint i = 0; i < propertyIDs.length; i++) {\r\n            if (claimingInProgress[propertyIDs[i]]) {\r\n                tempPropertyIDs[index] = propertyIDs[i];\r\n                index++;\r\n            }\r\n        }\r\n        activePropertyIDs = new uint[](index);\r\n        for (uint i = 0; i < index; i++) {\r\n            activePropertyIDs[i] = tempPropertyIDs[i];\r\n        }\r\n        return (index, activePropertyIDs);\r\n    }\r\n\r\n    \r\n    /**\r\n     * @notice Transfer the admin rights to a new address.\r\n     * @param newAdmin Address of the new admin.\r\n     */\r\n    function transferAdmin(address newAdmin) external onlyAdmin {\r\n        require(newAdmin != address(0), \"New admin is the zero address\");\r\n        emit AdminTransferred(admin, newAdmin);\r\n        admin = newAdmin;\r\n    }\r\n\r\n}",
  "sourcePath": "C:\\Users\\loren\\Desktop\\PersonalProjects\\PropertyNFT\\contracts\\PropertyRedeem.sol",
  "compiler": {
    "name": "solc",
    "version": "0.8.21+commit.d9974bed.Emscripten.clang"
  },
  "schemaVersion": "3.4.16",
  "updatedAt": "2023-10-06T23:27:46.666Z",
  "devdoc": {
    "details": "This contract allows the admin to top up funds for property NFTs and users to claim their share.",
    "kind": "dev",
    "methods": {
      "claim(uint256,address)": {
        "params": {
          "_tokenAddress": "The address of the ERC20 token to receive the claim in",
          "_tokenId": "The ID of the user's NFT"
        }
      },
      "constructor": {
        "params": {
          "_propertyNFT": "Address of the PropertyNFT contract"
        }
      },
      "emergencyWithdraw(address,uint256)": {
        "details": "Only callable by the admin.",
        "params": {
          "_amount": "The amount to withdraw",
          "_tokenAddress": "The address of the ERC20 token to withdraw"
        }
      },
      "getClaimStats(uint256)": {
        "params": {
          "_propertyID": "The ID of the property"
        },
        "returns": {
          "claims": "The number of claims made for the property",
          "remainingToClaim": "The amount remaining to be claimed for the property",
          "totalClaimed": "The total amount claimed for the property"
        }
      },
      "getClaimingInProgress()": {
        "details": "Iterates through the propertyIDs array to determine which properties are being claimed.",
        "returns": {
          "activePropertyIDs": "An array of property IDs that are currently being claimed.",
          "count": "The number of properties currently in the \"claiming process\"."
        }
      },
      "refundTopUp(uint256,address)": {
        "details": "Only callable by the admin. Resets the claim amount for the given property ID.",
        "params": {
          "_propertyID": "The ID of the property",
          "_tokenAddress": "The address of the ERC20 token in which the refund will be received"
        }
      },
      "topUp(uint256,uint256,address)": {
        "details": "Only callable by the admin.",
        "params": {
          "_amount": "The amount to top up",
          "_propertyID": "The ID of the property",
          "_tokenAddress": "The address of the ERC20 token to use for the top-up"
        }
      },
      "transferAdmin(address)": {
        "params": {
          "newAdmin": "Address of the new admin."
        }
      }
    },
    "title": "PropertyREDEEM contract for managing and redeeming property NFTs",
    "version": 1
  },
  "userdoc": {
    "kind": "user",
    "methods": {
      "claim(uint256,address)": {
        "notice": "Claim the share associated with the user's NFT."
      },
      "constructor": {
        "notice": "Constructor to set the PropertyNFT contract address and initialize the admin."
      },
      "emergencyWithdraw(address,uint256)": {
        "notice": "Withdraw a specified amount of tokens from the contract (emergency function)."
      },
      "getClaimStats(uint256)": {
        "notice": "Fetch the claim statistics for a given property."
      },
      "getClaimingInProgress()": {
        "notice": "Retrieves the properties that are currently in the \"claiming process\"."
      },
      "refundTopUp(uint256,address)": {
        "notice": "Refund the top-up amount for a specific property."
      },
      "topUp(uint256,uint256,address)": {
        "notice": "Top up the claim amount for a specific property."
      },
      "transferAdmin(address)": {
        "notice": "Transfer the admin rights to a new address."
      }
    },
    "version": 1
  }
}