{
  "contractName": "PropertyNFT",
  "abi": [
    {
      "inputs": [],
      "stateMutability": "nonpayable",
      "type": "constructor"
    },
    {
      "anonymous": false,
      "inputs": [
        {
          "indexed": true,
          "internalType": "address",
          "name": "owner",
          "type": "address"
        },
        {
          "indexed": true,
          "internalType": "address",
          "name": "approved",
          "type": "address"
        },
        {
          "indexed": true,
          "internalType": "uint256",
          "name": "tokenId",
          "type": "uint256"
        }
      ],
      "name": "Approval",
      "type": "event"
    },
    {
      "anonymous": false,
      "inputs": [
        {
          "indexed": true,
          "internalType": "address",
          "name": "owner",
          "type": "address"
        },
        {
          "indexed": true,
          "internalType": "address",
          "name": "operator",
          "type": "address"
        },
        {
          "indexed": false,
          "internalType": "bool",
          "name": "approved",
          "type": "bool"
        }
      ],
      "name": "ApprovalForAll",
      "type": "event"
    },
    {
      "anonymous": false,
      "inputs": [
        {
          "indexed": false,
          "internalType": "uint256",
          "name": "_fromTokenId",
          "type": "uint256"
        },
        {
          "indexed": false,
          "internalType": "uint256",
          "name": "_toTokenId",
          "type": "uint256"
        }
      ],
      "name": "BatchMetadataUpdate",
      "type": "event"
    },
    {
      "anonymous": false,
      "inputs": [
        {
          "indexed": false,
          "internalType": "uint256",
          "name": "_tokenId",
          "type": "uint256"
        }
      ],
      "name": "MetadataUpdate",
      "type": "event"
    },
    {
      "anonymous": false,
      "inputs": [
        {
          "indexed": false,
          "internalType": "uint256",
          "name": "tokenId",
          "type": "uint256"
        },
        {
          "indexed": false,
          "internalType": "string",
          "name": "propertyName",
          "type": "string"
        },
        {
          "indexed": false,
          "internalType": "uint256",
          "name": "apr",
          "type": "uint256"
        },
        {
          "indexed": false,
          "internalType": "uint256",
          "name": "totalPropertyRaised",
          "type": "uint256"
        },
        {
          "indexed": false,
          "internalType": "uint256",
          "name": "propertyParticipation",
          "type": "uint256"
        },
        {
          "indexed": false,
          "internalType": "uint256",
          "name": "launchpadID",
          "type": "uint256"
        },
        {
          "indexed": false,
          "internalType": "uint256",
          "name": "redeemFees",
          "type": "uint256"
        },
        {
          "indexed": false,
          "internalType": "uint256",
          "name": "sellFees",
          "type": "uint256"
        },
        {
          "indexed": false,
          "internalType": "uint256",
          "name": "totalEarned",
          "type": "uint256"
        }
      ],
      "name": "PropertyMinted",
      "type": "event"
    },
    {
      "anonymous": false,
      "inputs": [
        {
          "indexed": true,
          "internalType": "address",
          "name": "from",
          "type": "address"
        },
        {
          "indexed": true,
          "internalType": "address",
          "name": "to",
          "type": "address"
        },
        {
          "indexed": true,
          "internalType": "uint256",
          "name": "tokenId",
          "type": "uint256"
        }
      ],
      "name": "Transfer",
      "type": "event"
    },
    {
      "inputs": [],
      "name": "admin",
      "outputs": [
        {
          "internalType": "address",
          "name": "",
          "type": "address"
        }
      ],
      "stateMutability": "view",
      "type": "function"
    },
    {
      "inputs": [
        {
          "internalType": "uint256",
          "name": "tokenId",
          "type": "uint256"
        }
      ],
      "name": "getApproved",
      "outputs": [
        {
          "internalType": "address",
          "name": "",
          "type": "address"
        }
      ],
      "stateMutability": "view",
      "type": "function"
    },
    {
      "inputs": [
        {
          "internalType": "address",
          "name": "owner",
          "type": "address"
        },
        {
          "internalType": "address",
          "name": "operator",
          "type": "address"
        }
      ],
      "name": "isApprovedForAll",
      "outputs": [
        {
          "internalType": "bool",
          "name": "",
          "type": "bool"
        }
      ],
      "stateMutability": "view",
      "type": "function"
    },
    {
      "inputs": [
        {
          "internalType": "uint256",
          "name": "",
          "type": "uint256"
        },
        {
          "internalType": "uint256",
          "name": "",
          "type": "uint256"
        }
      ],
      "name": "launchpadIDToTokenIds",
      "outputs": [
        {
          "internalType": "uint256",
          "name": "",
          "type": "uint256"
        }
      ],
      "stateMutability": "view",
      "type": "function"
    },
    {
      "inputs": [],
      "name": "minter",
      "outputs": [
        {
          "internalType": "address",
          "name": "",
          "type": "address"
        }
      ],
      "stateMutability": "view",
      "type": "function"
    },
    {
      "inputs": [],
      "name": "name",
      "outputs": [
        {
          "internalType": "string",
          "name": "",
          "type": "string"
        }
      ],
      "stateMutability": "view",
      "type": "function"
    },
    {
      "inputs": [],
      "name": "operator",
      "outputs": [
        {
          "internalType": "address",
          "name": "",
          "type": "address"
        }
      ],
      "stateMutability": "view",
      "type": "function"
    },
    {
      "inputs": [
        {
          "internalType": "uint256",
          "name": "",
          "type": "uint256"
        }
      ],
      "name": "properties",
      "outputs": [
        {
          "internalType": "string",
          "name": "propertyName",
          "type": "string"
        },
        {
          "internalType": "uint256",
          "name": "apr",
          "type": "uint256"
        },
        {
          "internalType": "uint256",
          "name": "totalPropertyRaised",
          "type": "uint256"
        },
        {
          "internalType": "uint256",
          "name": "propertyParticipation",
          "type": "uint256"
        },
        {
          "internalType": "uint256",
          "name": "launchpadID",
          "type": "uint256"
        },
        {
          "internalType": "uint256",
          "name": "redeemFees",
          "type": "uint256"
        },
        {
          "internalType": "uint256",
          "name": "sellFees",
          "type": "uint256"
        },
        {
          "internalType": "uint256",
          "name": "totalEarned",
          "type": "uint256"
        }
      ],
      "stateMutability": "view",
      "type": "function"
    },
    {
      "inputs": [],
      "name": "redeemer",
      "outputs": [
        {
          "internalType": "address",
          "name": "",
          "type": "address"
        }
      ],
      "stateMutability": "view",
      "type": "function"
    },
    {
      "inputs": [
        {
          "internalType": "address",
          "name": "operator",
          "type": "address"
        },
        {
          "internalType": "bool",
          "name": "approved",
          "type": "bool"
        }
      ],
      "name": "setApprovalForAll",
      "outputs": [],
      "stateMutability": "nonpayable",
      "type": "function"
    },
    {
      "inputs": [],
      "name": "symbol",
      "outputs": [
        {
          "internalType": "string",
          "name": "",
          "type": "string"
        }
      ],
      "stateMutability": "view",
      "type": "function"
    },
    {
      "inputs": [
        {
          "internalType": "uint256",
          "name": "index",
          "type": "uint256"
        }
      ],
      "name": "tokenByIndex",
      "outputs": [
        {
          "internalType": "uint256",
          "name": "",
          "type": "uint256"
        }
      ],
      "stateMutability": "view",
      "type": "function"
    },
    {
      "inputs": [
        {
          "internalType": "address",
          "name": "owner",
          "type": "address"
        },
        {
          "internalType": "uint256",
          "name": "index",
          "type": "uint256"
        }
      ],
      "name": "tokenOfOwnerByIndex",
      "outputs": [
        {
          "internalType": "uint256",
          "name": "",
          "type": "uint256"
        }
      ],
      "stateMutability": "view",
      "type": "function"
    },
    {
      "inputs": [],
      "name": "totalSupply",
      "outputs": [
        {
          "internalType": "uint256",
          "name": "",
          "type": "uint256"
        }
      ],
      "stateMutability": "view",
      "type": "function"
    },
    {
      "inputs": [
        {
          "internalType": "address",
          "name": "_newAdmin",
          "type": "address"
        }
      ],
      "name": "setNewAdmin",
      "outputs": [],
      "stateMutability": "nonpayable",
      "type": "function"
    },
    {
      "inputs": [
        {
          "internalType": "address",
          "name": "_minter",
          "type": "address"
        }
      ],
      "name": "setMinter",
      "outputs": [],
      "stateMutability": "nonpayable",
      "type": "function"
    },
    {
      "inputs": [
        {
          "internalType": "address",
          "name": "_redeemer",
          "type": "address"
        }
      ],
      "name": "setRedeemer",
      "outputs": [],
      "stateMutability": "nonpayable",
      "type": "function"
    },
    {
      "inputs": [
        {
          "internalType": "address",
          "name": "_operator",
          "type": "address"
        }
      ],
      "name": "setOperator",
      "outputs": [],
      "stateMutability": "nonpayable",
      "type": "function"
    },
    {
      "inputs": [
        {
          "internalType": "address",
          "name": "to",
          "type": "address"
        },
        {
          "internalType": "string",
          "name": "propertyName",
          "type": "string"
        },
        {
          "internalType": "uint256",
          "name": "apr",
          "type": "uint256"
        },
        {
          "internalType": "uint256",
          "name": "totalPropertyRaised",
          "type": "uint256"
        },
        {
          "internalType": "uint256",
          "name": "propertyParticipation",
          "type": "uint256"
        },
        {
          "internalType": "uint256",
          "name": "launchpadID",
          "type": "uint256"
        },
        {
          "internalType": "uint256",
          "name": "redeemFees",
          "type": "uint256"
        },
        {
          "internalType": "uint256",
          "name": "sellFees",
          "type": "uint256"
        },
        {
          "internalType": "uint256",
          "name": "totalEarned",
          "type": "uint256"
        }
      ],
      "name": "mintProperty",
      "outputs": [],
      "stateMutability": "nonpayable",
      "type": "function"
    },
    {
      "inputs": [
        {
          "internalType": "uint256",
          "name": "_launchpadID",
          "type": "uint256"
        }
      ],
      "name": "getTokensByLaunchpadID",
      "outputs": [
        {
          "internalType": "uint256[]",
          "name": "",
          "type": "uint256[]"
        }
      ],
      "stateMutability": "view",
      "type": "function"
    },
    {
      "inputs": [
        {
          "internalType": "uint256",
          "name": "tokenId",
          "type": "uint256"
        },
        {
          "internalType": "uint256",
          "name": "_sellFees",
          "type": "uint256"
        }
      ],
      "name": "updateSellFees",
      "outputs": [],
      "stateMutability": "nonpayable",
      "type": "function"
    },
    {
      "inputs": [
        {
          "internalType": "uint256",
          "name": "tokenId",
          "type": "uint256"
        },
        {
          "internalType": "uint256",
          "name": "_redeemFees",
          "type": "uint256"
        }
      ],
      "name": "updateRedeemFees",
      "outputs": [],
      "stateMutability": "nonpayable",
      "type": "function"
    },
    {
      "inputs": [
        {
          "internalType": "uint256[]",
          "name": "tokenIds",
          "type": "uint256[]"
        },
        {
          "internalType": "uint256",
          "name": "_sellFees",
          "type": "uint256"
        }
      ],
      "name": "updateBulkSellFees",
      "outputs": [],
      "stateMutability": "nonpayable",
      "type": "function"
    },
    {
      "inputs": [
        {
          "internalType": "uint256[]",
          "name": "tokenIds",
          "type": "uint256[]"
        },
        {
          "internalType": "uint256",
          "name": "_redeemFees",
          "type": "uint256"
        }
      ],
      "name": "updateBulkRedeemFees",
      "outputs": [],
      "stateMutability": "nonpayable",
      "type": "function"
    },
    {
      "inputs": [
        {
          "internalType": "uint256",
          "name": "launchpadID",
          "type": "uint256"
        },
        {
          "internalType": "uint256",
          "name": "amount",
          "type": "uint256"
        },
        {
          "internalType": "address",
          "name": "TokenAddress",
          "type": "address"
        }
      ],
      "name": "distributeRewards",
      "outputs": [],
      "stateMutability": "nonpayable",
      "type": "function"
    },
    {
      "inputs": [
        {
          "internalType": "uint256",
          "name": "tokenId",
          "type": "uint256"
        }
      ],
      "name": "burnTokenWithApproval",
      "outputs": [],
      "stateMutability": "nonpayable",
      "type": "function"
    },
    {
      "inputs": [
        {
          "internalType": "uint256",
          "name": "tokenId",
          "type": "uint256"
        },
        {
          "internalType": "string",
          "name": "_tokenURI",
          "type": "string"
        }
      ],
      "name": "setTokenURI",
      "outputs": [],
      "stateMutability": "nonpayable",
      "type": "function"
    },
    {
      "inputs": [
        {
          "internalType": "uint256",
          "name": "tokenId",
          "type": "uint256"
        }
      ],
      "name": "tokenURI",
      "outputs": [
        {
          "internalType": "string",
          "name": "",
          "type": "string"
        }
      ],
      "stateMutability": "view",
      "type": "function"
    },
    {
      "inputs": [
        {
          "internalType": "uint256",
          "name": "tokenId",
          "type": "uint256"
        }
      ],
      "name": "getProperty",
      "outputs": [
        {
          "components": [
            {
              "internalType": "string",
              "name": "propertyName",
              "type": "string"
            },
            {
              "internalType": "uint256",
              "name": "apr",
              "type": "uint256"
            },
            {
              "internalType": "uint256",
              "name": "totalPropertyRaised",
              "type": "uint256"
            },
            {
              "internalType": "uint256",
              "name": "propertyParticipation",
              "type": "uint256"
            },
            {
              "internalType": "uint256",
              "name": "launchpadID",
              "type": "uint256"
            },
            {
              "internalType": "uint256",
              "name": "redeemFees",
              "type": "uint256"
            },
            {
              "internalType": "uint256",
              "name": "sellFees",
              "type": "uint256"
            },
            {
              "internalType": "uint256",
              "name": "totalEarned",
              "type": "uint256"
            }
          ],
          "internalType": "struct PropertyNFT.Property",
          "name": "",
          "type": "tuple"
        }
      ],
      "stateMutability": "view",
      "type": "function"
    },
    {
      "inputs": [
        {
          "internalType": "address",
          "name": "owner",
          "type": "address"
        }
      ],
      "name": "balanceOf",
      "outputs": [
        {
          "internalType": "uint256",
          "name": "",
          "type": "uint256"
        }
      ],
      "stateMutability": "view",
      "type": "function"
    },
    {
      "inputs": [
        {
          "internalType": "uint256",
          "name": "tokenId",
          "type": "uint256"
        }
      ],
      "name": "ownerOf",
      "outputs": [
        {
          "internalType": "address",
          "name": "",
          "type": "address"
        }
      ],
      "stateMutability": "view",
      "type": "function"
    },
    {
      "inputs": [
        {
          "internalType": "address",
          "name": "to",
          "type": "address"
        },
        {
          "internalType": "uint256",
          "name": "tokenId",
          "type": "uint256"
        }
      ],
      "name": "approve",
      "outputs": [],
      "stateMutability": "nonpayable",
      "type": "function"
    },
    {
      "inputs": [
        {
          "internalType": "address",
          "name": "from",
          "type": "address"
        },
        {
          "internalType": "address",
          "name": "to",
          "type": "address"
        },
        {
          "internalType": "uint256",
          "name": "tokenId",
          "type": "uint256"
        }
      ],
      "name": "transferFrom",
      "outputs": [],
      "stateMutability": "nonpayable",
      "type": "function"
    },
    {
      "inputs": [
        {
          "internalType": "address",
          "name": "from",
          "type": "address"
        },
        {
          "internalType": "address",
          "name": "to",
          "type": "address"
        },
        {
          "internalType": "uint256",
          "name": "tokenId",
          "type": "uint256"
        }
      ],
      "name": "safeTransferFrom",
      "outputs": [],
      "stateMutability": "nonpayable",
      "type": "function"
    },
    {
      "inputs": [
        {
          "internalType": "address",
          "name": "from",
          "type": "address"
        },
        {
          "internalType": "address",
          "name": "to",
          "type": "address"
        },
        {
          "internalType": "uint256",
          "name": "tokenId",
          "type": "uint256"
        },
        {
          "internalType": "bytes",
          "name": "_data",
          "type": "bytes"
        }
      ],
      "name": "safeTransferFrom",
      "outputs": [],
      "stateMutability": "nonpayable",
      "type": "function"
    },
    {
      "inputs": [
        {
          "internalType": "bytes4",
          "name": "interfaceId",
          "type": "bytes4"
        }
      ],
      "name": "supportsInterface",
      "outputs": [
        {
          "internalType": "bool",
          "name": "",
          "type": "bool"
        }
      ],
      "stateMutability": "view",
      "type": "function"
    }
  ],
  "bytecode": "0x608060405234801562000010575f80fd5b506040518060400160405280600b81526020017f50726f70657274794e46540000000000000000000000000000000000000000008152506040518060400160405280600481526020017f504e465400000000000000000000000000000000000000000000000000000000815250815f90816200008d91906200034c565b5080600190816200009f91906200034c565b50505033600d5f6101000a81548173ffffffffffffffffffffffffffffffffffffffff021916908373ffffffffffffffffffffffffffffffffffffffff16021790555062000430565b5f81519050919050565b7f4e487b71000000000000000000000000000000000000000000000000000000005f52604160045260245ffd5b7f4e487b71000000000000000000000000000000000000000000000000000000005f52602260045260245ffd5b5f60028204905060018216806200016457607f821691505b6020821081036200017a57620001796200011f565b5b50919050565b5f819050815f5260205f209050919050565b5f6020601f8301049050919050565b5f82821b905092915050565b5f60088302620001de7fffffffffffffffffffffffffffffffffffffffffffffffffffffffffffffffff82620001a1565b620001ea8683620001a1565b95508019841693508086168417925050509392505050565b5f819050919050565b5f819050919050565b5f620002346200022e620002288462000202565b6200020b565b62000202565b9050919050565b5f819050919050565b6200024f8362000214565b620002676200025e826200023b565b848454620001ad565b825550505050565b5f90565b6200027d6200026f565b6200028a81848462000244565b505050565b5b81811015620002b157620002a55f8262000273565b60018101905062000290565b5050565b601f8211156200030057620002ca8162000180565b620002d58462000192565b81016020851015620002e5578190505b620002fd620002f48562000192565b8301826200028f565b50505b505050565b5f82821c905092915050565b5f620003225f198460080262000305565b1980831691505092915050565b5f6200033c838362000311565b9150826002028217905092915050565b6200035782620000e8565b67ffffffffffffffff811115620003735762000372620000f2565b5b6200037f82546200014c565b6200038c828285620002b5565b5f60209050601f831160018114620003c2575f8415620003ad578287015190505b620003b985826200032f565b86555062000428565b601f198416620003d28662000180565b5f5b82811015620003fb57848901518255600182019150602085019450602081019050620003d4565b868310156200041b578489015162000417601f89168262000311565b8355505b6001600288020188555050505b505050505050565b61563f806200043e5f395ff3fe608060405234801561000f575f80fd5b506004361061021a575f3560e01c8063570ca73511610123578063aa547915116100ab578063c87b56dd1161007a578063c87b56dd14610642578063e985e9c514610672578063f7b10808146106a2578063f851a440146106d9578063fca3b5aa146106f75761021a565b8063aa547915146105be578063b3ab15fb146105da578063b3ea7928146105f6578063b88d4fde146106265761021a565b80638eec99c8116100f25780638eec99c81461053057806395d89b411461054c57806399fd4d3c1461056a578063a22cb46514610586578063a8176de1146105a25761021a565b8063570ca735146104825780636352211e146104a057806366c9633b146104d057806370a08231146105005761021a565b806323b872dd116101a657806331d6ea901161017557806331d6ea90146103ce57806332665ffb146103ea5780633307ce841461041a57806342842e0e146104365780634f6ccce7146104525761021a565b806323b872dd146103485780632a42a70c146103645780632ba29d38146103805780632f745c591461039e5761021a565b8063081812fc116101ed578063081812fc146102a6578063095ea7b3146102d6578063162094c4146102f257806318160ddd1461030e5780631cc5a78f1461032c5761021a565b806301ffc9a71461021e57806302dbd8f81461024e57806306fdde031461026a5780630754617214610288575b5f80fd5b61023860048036038101906102339190613876565b610713565b60405161024591906138bb565b60405180910390f35b61026860048036038101906102639190613907565b610724565b005b610272610818565b60405161027f91906139cf565b60405180910390f35b6102906108a7565b60405161029d9190613a2e565b60405180910390f35b6102c060048036038101906102bb9190613a47565b6108cc565b6040516102cd9190613a2e565b60405180910390f35b6102f060048036038101906102eb9190613a9c565b61090e565b005b61030c60048036038101906103079190613c06565b61091c565b005b6103166109b9565b6040516103239190613c6f565b60405180910390f35b61034660048036038101906103419190613c88565b6109c5565b005b610362600480360381019061035d9190613d68565b610baa565b005b61037e60048036038101906103799190613907565b610bba565b005b610388610cae565b6040516103959190613a2e565b60405180910390f35b6103b860048036038101906103b39190613a9c565b610cd3565b6040516103c59190613c6f565b60405180910390f35b6103e860048036038101906103e39190613e7c565b610d73565b005b61040460048036038101906103ff9190613a47565b610eba565b6040516104119190613fda565b60405180910390f35b610434600480360381019061042f9190613ffa565b610fbb565b005b610450600480360381019061044b9190613d68565b61108d565b005b61046c60048036038101906104679190613a47565b61109d565b6040516104799190613c6f565b60405180910390f35b61048a61110b565b6040516104979190613a2e565b60405180910390f35b6104ba60048036038101906104b59190613a47565b611130565b6040516104c79190613a2e565b60405180910390f35b6104ea60048036038101906104e59190613907565b611141565b6040516104f79190613c6f565b60405180910390f35b61051a60048036038101906105159190613ffa565b61116c565b6040516105279190613c6f565b60405180910390f35b61054a60048036038101906105459190613ffa565b61117d565b005b61055461124f565b60405161056191906139cf565b60405180910390f35b610584600480360381019061057f9190613e7c565b6112df565b005b6105a0600480360381019061059b919061404f565b611426565b005b6105bc60048036038101906105b79190613a47565b61143c565b005b6105d860048036038101906105d3919061408d565b611566565b005b6105f460048036038101906105ef9190613ffa565b611963565b005b610610600480360381019061060b9190613a47565b611a35565b60405161061d9190614185565b60405180910390f35b610640600480360381019061063b9190614243565b611a9c565b005b61065c60048036038101906106579190613a47565b611aae565b60405161066991906139cf565b60405180910390f35b61068c600480360381019061068791906142c3565b611ac0565b60405161069991906138bb565b60405180910390f35b6106bc60048036038101906106b79190613a47565b611b4e565b6040516106d0989796959493929190614301565b60405180910390f35b6106e1611c18565b6040516106ee9190613a2e565b60405180910390f35b610711600480360381019061070c9190613ffa565b611c3d565b005b5f61071d82611d0f565b9050919050565b60105f9054906101000a900473ffffffffffffffffffffffffffffffffffffffff1673ffffffffffffffffffffffffffffffffffffffff163373ffffffffffffffffffffffffffffffffffffffff16146107b3576040517f08c379a00000000000000000000000000000000000000000000000000000000081526004016107aa906143ce565b60405180910390fd5b6107bc82611d6f565b6107fb576040517f08c379a00000000000000000000000000000000000000000000000000000000081526004016107f290614436565b60405180910390fd5b80600b5f8481526020019081526020015f20600601819055505050565b60605f805461082690614481565b80601f016020809104026020016040519081016040528092919081815260200182805461085290614481565b801561089d5780601f106108745761010080835404028352916020019161089d565b820191905f5260205f20905b81548152906001019060200180831161088057829003601f168201915b5050505050905090565b600e5f9054906101000a900473ffffffffffffffffffffffffffffffffffffffff1681565b5f6108d682611daf565b60045f8381526020019081526020015f205f9054906101000a900473ffffffffffffffffffffffffffffffffffffffff169050919050565b6109188282611dfa565b5050565b60105f9054906101000a900473ffffffffffffffffffffffffffffffffffffffff1673ffffffffffffffffffffffffffffffffffffffff163373ffffffffffffffffffffffffffffffffffffffff16146109ab576040517f08c379a00000000000000000000000000000000000000000000000000000000081526004016109a2906143ce565b60405180910390fd5b6109b58282611f10565b5050565b5f600880549050905090565b600e5f9054906101000a900473ffffffffffffffffffffffffffffffffffffffff1673ffffffffffffffffffffffffffffffffffffffff163373ffffffffffffffffffffffffffffffffffffffff1614610a54576040517f08c379a0000000000000000000000000000000000000000000000000000000008152600401610a4b906144fb565b60405180910390fd5b5f6001610a5f6109b9565b610a699190614546565b9050610a758a82611fb2565b5f6040518061010001604052808b81526020018a815260200189815260200188815260200187815260200186815260200185815260200184815250905080600b5f8481526020019081526020015f205f820151815f019081610ad79190614716565b506020820151816001015560408201518160020155606082015181600301556080820151816004015560a0820151816005015560c0820151816006015560e08201518160070155905050600c5f8781526020019081526020015f2082908060018154018082558091505060019003905f5260205f20015f90919091909150557f14926207e1b9c5feafd58c4b181d1d83ed01c5f4bd11a09517e8216835475a03828b8b8b8b8b8b8b8b604051610b95999897969594939291906147e5565b60405180910390a15050505050505050505050565b610bb5838383611fcf565b505050565b60105f9054906101000a900473ffffffffffffffffffffffffffffffffffffffff1673ffffffffffffffffffffffffffffffffffffffff163373ffffffffffffffffffffffffffffffffffffffff1614610c49576040517f08c379a0000000000000000000000000000000000000000000000000000000008152600401610c40906143ce565b60405180910390fd5b610c5282611d6f565b610c91576040517f08c379a0000000000000000000000000000000000000000000000000000000008152600401610c8890614436565b60405180910390fd5b80600b5f8481526020019081526020015f20600501819055505050565b600f5f9054906101000a900473ffffffffffffffffffffffffffffffffffffffff1681565b5f610cdd8361202f565b8210610d1e576040517f08c379a0000000000000000000000000000000000000000000000000000000008152600401610d15906148e7565b60405180910390fd5b60065f8473ffffffffffffffffffffffffffffffffffffffff1673ffffffffffffffffffffffffffffffffffffffff1681526020019081526020015f205f8381526020019081526020015f2054905092915050565b60105f9054906101000a900473ffffffffffffffffffffffffffffffffffffffff1673ffffffffffffffffffffffffffffffffffffffff163373ffffffffffffffffffffffffffffffffffffffff1614610e02576040517f08c379a0000000000000000000000000000000000000000000000000000000008152600401610df9906143ce565b60405180910390fd5b5f5b8251811015610eb557610e30838281518110610e2357610e22614905565b5b6020026020010151611d6f565b610e6f576040517f08c379a0000000000000000000000000000000000000000000000000000000008152600401610e6690614436565b60405180910390fd5b81600b5f858481518110610e8657610e85614905565b5b602002602001015181526020019081526020015f20600501819055508080610ead90614932565b915050610e04565b505050565b610ec261377a565b600b5f8381526020019081526020015f20604051806101000160405290815f82018054610eee90614481565b80601f0160208091040260200160405190810160405280929190818152602001828054610f1a90614481565b8015610f655780601f10610f3c57610100808354040283529160200191610f65565b820191905f5260205f20905b815481529060010190602001808311610f4857829003601f168201915b505050505081526020016001820154815260200160028201548152602001600382015481526020016004820154815260200160058201548152602001600682015481526020016007820154815250509050919050565b600d5f9054906101000a900473ffffffffffffffffffffffffffffffffffffffff1673ffffffffffffffffffffffffffffffffffffffff163373ffffffffffffffffffffffffffffffffffffffff161461104a576040517f08c379a0000000000000000000000000000000000000000000000000000000008152600401611041906149c3565b60405180910390fd5b80600f5f6101000a81548173ffffffffffffffffffffffffffffffffffffffff021916908373ffffffffffffffffffffffffffffffffffffffff16021790555050565b6110988383836120e3565b505050565b5f6110a66109b9565b82106110e7576040517f08c379a00000000000000000000000000000000000000000000000000000000081526004016110de90614a51565b60405180910390fd5b600882815481106110fb576110fa614905565b5b905f5260205f2001549050919050565b60105f9054906101000a900473ffffffffffffffffffffffffffffffffffffffff1681565b5f61113a82612102565b9050919050565b600c602052815f5260405f20818154811061115a575f80fd5b905f5260205f20015f91509150505481565b5f6111768261202f565b9050919050565b600d5f9054906101000a900473ffffffffffffffffffffffffffffffffffffffff1673ffffffffffffffffffffffffffffffffffffffff163373ffffffffffffffffffffffffffffffffffffffff161461120c576040517f08c379a0000000000000000000000000000000000000000000000000000000008152600401611203906149c3565b60405180910390fd5b80600d5f6101000a81548173ffffffffffffffffffffffffffffffffffffffff021916908373ffffffffffffffffffffffffffffffffffffffff16021790555050565b60606001805461125e90614481565b80601f016020809104026020016040519081016040528092919081815260200182805461128a90614481565b80156112d55780601f106112ac576101008083540402835291602001916112d5565b820191905f5260205f20905b8154815290600101906020018083116112b857829003601f168201915b5050505050905090565b60105f9054906101000a900473ffffffffffffffffffffffffffffffffffffffff1673ffffffffffffffffffffffffffffffffffffffff163373ffffffffffffffffffffffffffffffffffffffff161461136e576040517f08c379a0000000000000000000000000000000000000000000000000000000008152600401611365906143ce565b60405180910390fd5b5f5b82518110156114215761139c83828151811061138f5761138e614905565b5b6020026020010151611d6f565b6113db576040517f08c379a00000000000000000000000000000000000000000000000000000000081526004016113d290614436565b60405180910390fd5b81600b5f8584815181106113f2576113f1614905565b5b602002602001015181526020019081526020015f2060060181905550808061141990614932565b915050611370565b505050565b611438611431612186565b838361218d565b5050565b600f5f9054906101000a900473ffffffffffffffffffffffffffffffffffffffff1673ffffffffffffffffffffffffffffffffffffffff163373ffffffffffffffffffffffffffffffffffffffff16146114cb576040517f08c379a00000000000000000000000000000000000000000000000000000000081526004016114c290614ab9565b60405180910390fd5b3373ffffffffffffffffffffffffffffffffffffffff166114eb82611130565b73ffffffffffffffffffffffffffffffffffffffff16148061151b575061151a61151482611130565b33611ac0565b5b61155a576040517f08c379a000000000000000000000000000000000000000000000000000000000815260040161155190614b21565b60405180910390fd5b611563816122f4565b50565b60105f9054906101000a900473ffffffffffffffffffffffffffffffffffffffff1673ffffffffffffffffffffffffffffffffffffffff163373ffffffffffffffffffffffffffffffffffffffff16146115f5576040517f08c379a00000000000000000000000000000000000000000000000000000000081526004016115ec906143ce565b60405180910390fd5b5f819050828173ffffffffffffffffffffffffffffffffffffffff1663dd62ed3e33306040518363ffffffff1660e01b8152600401611635929190614b3f565b602060405180830381865afa158015611650573d5f803e3d5ffd5b505050506040513d601f19601f820116820180604052508101906116749190614b7a565b10156116b5576040517f08c379a00000000000000000000000000000000000000000000000000000000081526004016116ac90614c15565b60405180910390fd5b5f6116bf85611a35565b90505f805b8251811015611918575f600b5f8584815181106116e4576116e3614905565b5b602002602001015181526020019081526020015f20604051806101000160405290815f8201805461171490614481565b80601f016020809104026020016040519081016040528092919081815260200182805461174090614481565b801561178b5780601f106117625761010080835404028352916020019161178b565b820191905f5260205f20905b81548152906001019060200180831161176e57829003601f168201915b5050505050815260200160018201548152602001600282015481526020016003820154815260200160048201548152602001600582015481526020016006820154815260200160078201548152505090505f81606001518260400151670de0b6b3a76400008a6117fb9190614c60565b6118059190614c90565b61180f9190614c60565b9050808461181d9190614546565b93508573ffffffffffffffffffffffffffffffffffffffff166323b872dd3361185f88878151811061185257611851614905565b5b6020026020010151611130565b846040518463ffffffff1660e01b815260040161187e93929190614cd1565b6020604051808303815f875af115801561189a573d5f803e3d5ffd5b505050506040513d601f19601f820116820180604052508101906118be9190614d1a565b5080600b5f8786815181106118d6576118d5614905565b5b602002602001015181526020019081526020015f206007015f8282546118fc9190614546565b925050819055505050808061191090614932565b9150506116c4565b5084811461195b576040517f08c379a000000000000000000000000000000000000000000000000000000000815260040161195290614db5565b60405180910390fd5b505050505050565b600d5f9054906101000a900473ffffffffffffffffffffffffffffffffffffffff1673ffffffffffffffffffffffffffffffffffffffff163373ffffffffffffffffffffffffffffffffffffffff16146119f2576040517f08c379a00000000000000000000000000000000000000000000000000000000081526004016119e9906149c3565b60405180910390fd5b8060105f6101000a81548173ffffffffffffffffffffffffffffffffffffffff021916908373ffffffffffffffffffffffffffffffffffffffff16021790555050565b6060600c5f8381526020019081526020015f20805480602002602001604051908101604052809291908181526020018280548015611a9057602002820191905f5260205f20905b815481526020019060010190808311611a7c575b50505050509050919050565b611aa884848484612300565b50505050565b6060611ab982612362565b9050919050565b5f60055f8473ffffffffffffffffffffffffffffffffffffffff1673ffffffffffffffffffffffffffffffffffffffff1681526020019081526020015f205f8373ffffffffffffffffffffffffffffffffffffffff1673ffffffffffffffffffffffffffffffffffffffff1681526020019081526020015f205f9054906101000a900460ff16905092915050565b600b602052805f5260405f205f91509050805f018054611b6d90614481565b80601f0160208091040260200160405190810160405280929190818152602001828054611b9990614481565b8015611be45780601f10611bbb57610100808354040283529160200191611be4565b820191905f5260205f20905b815481529060010190602001808311611bc757829003601f168201915b5050505050908060010154908060020154908060030154908060040154908060050154908060060154908060070154905088565b600d5f9054906101000a900473ffffffffffffffffffffffffffffffffffffffff1681565b600d5f9054906101000a900473ffffffffffffffffffffffffffffffffffffffff1673ffffffffffffffffffffffffffffffffffffffff163373ffffffffffffffffffffffffffffffffffffffff1614611ccc576040517f08c379a0000000000000000000000000000000000000000000000000000000008152600401611cc3906149c3565b60405180910390fd5b80600e5f6101000a81548173ffffffffffffffffffffffffffffffffffffffff021916908373ffffffffffffffffffffffffffffffffffffffff16021790555050565b5f634906490660e01b7bffffffffffffffffffffffffffffffffffffffffffffffffffffffff1916827bffffffffffffffffffffffffffffffffffffffffffffffffffffffff19161480611d685750611d678261246c565b5b9050919050565b5f8073ffffffffffffffffffffffffffffffffffffffff16611d90836124e5565b73ffffffffffffffffffffffffffffffffffffffff1614159050919050565b611db881611d6f565b611df7576040517f08c379a0000000000000000000000000000000000000000000000000000000008152600401611dee90614e1d565b60405180910390fd5b50565b5f611e0482612102565b90508073ffffffffffffffffffffffffffffffffffffffff168373ffffffffffffffffffffffffffffffffffffffff1603611e74576040517f08c379a0000000000000000000000000000000000000000000000000000000008152600401611e6b90614eab565b60405180910390fd5b8073ffffffffffffffffffffffffffffffffffffffff16611e93612186565b73ffffffffffffffffffffffffffffffffffffffff161480611ec25750611ec181611ebc612186565b611ac0565b5b611f01576040517f08c379a0000000000000000000000000000000000000000000000000000000008152600401611ef890614f39565b60405180910390fd5b611f0b838361251e565b505050565b611f1982611d6f565b611f58576040517f08c379a0000000000000000000000000000000000000000000000000000000008152600401611f4f90614fc7565b60405180910390fd5b80600a5f8481526020019081526020015f209081611f769190614716565b507ff8e1a15aba9398e019f0b49df1a4fde98ee17ae345cb5f6b5e2c27f5033e8ce782604051611fa69190613c6f565b60405180910390a15050565b611fcb828260405180602001604052805f8152506125d4565b5050565b611fe0611fda612186565b8261262e565b61201f576040517f08c379a000000000000000000000000000000000000000000000000000000000815260040161201690615055565b60405180910390fd5b61202a8383836126c2565b505050565b5f8073ffffffffffffffffffffffffffffffffffffffff168273ffffffffffffffffffffffffffffffffffffffff160361209e576040517f08c379a0000000000000000000000000000000000000000000000000000000008152600401612095906150e3565b60405180910390fd5b60035f8373ffffffffffffffffffffffffffffffffffffffff1673ffffffffffffffffffffffffffffffffffffffff1681526020019081526020015f20549050919050565b6120fd83838360405180602001604052805f815250611a9c565b505050565b5f8061210d836124e5565b90505f73ffffffffffffffffffffffffffffffffffffffff168173ffffffffffffffffffffffffffffffffffffffff160361217d576040517f08c379a000000000000000000000000000000000000000000000000000000000815260040161217490614e1d565b60405180910390fd5b80915050919050565b5f33905090565b8173ffffffffffffffffffffffffffffffffffffffff168373ffffffffffffffffffffffffffffffffffffffff16036121fb576040517f08c379a00000000000000000000000000000000000000000000000000000000081526004016121f29061514b565b60405180910390fd5b8060055f8573ffffffffffffffffffffffffffffffffffffffff1673ffffffffffffffffffffffffffffffffffffffff1681526020019081526020015f205f8473ffffffffffffffffffffffffffffffffffffffff1673ffffffffffffffffffffffffffffffffffffffff1681526020019081526020015f205f6101000a81548160ff0219169083151502179055508173ffffffffffffffffffffffffffffffffffffffff168373ffffffffffffffffffffffffffffffffffffffff167f17307eab39ab6107e8899845ad3d59bd9653f200f220920489ca2b5937696c31836040516122e791906138bb565b60405180910390a3505050565b6122fd816129ae565b50565b61231161230b612186565b8361262e565b612350576040517f08c379a000000000000000000000000000000000000000000000000000000000815260040161234790615055565b60405180910390fd5b61235c848484846129fb565b50505050565b606061236d82611daf565b5f600a5f8481526020019081526020015f20805461238a90614481565b80601f01602080910402602001604051908101604052809291908181526020018280546123b690614481565b80156124015780601f106123d857610100808354040283529160200191612401565b820191905f5260205f20905b8154815290600101906020018083116123e457829003601f168201915b505050505090505f612411612a57565b90505f815103612425578192505050612467565b5f825111156124595780826040516020016124419291906151a3565b60405160208183030381529060405292505050612467565b61246284612a6d565b925050505b919050565b5f7f780e9d63000000000000000000000000000000000000000000000000000000007bffffffffffffffffffffffffffffffffffffffffffffffffffffffff1916827bffffffffffffffffffffffffffffffffffffffffffffffffffffffff191614806124de57506124dd82612ad2565b5b9050919050565b5f60025f8381526020019081526020015f205f9054906101000a900473ffffffffffffffffffffffffffffffffffffffff169050919050565b8160045f8381526020019081526020015f205f6101000a81548173ffffffffffffffffffffffffffffffffffffffff021916908373ffffffffffffffffffffffffffffffffffffffff160217905550808273ffffffffffffffffffffffffffffffffffffffff1661258e83612102565b73ffffffffffffffffffffffffffffffffffffffff167f8c5be1e5ebec7d5bd14f71427d1e84f3dd0314c0f7b2291e5b200ac8c7c3b92560405160405180910390a45050565b6125de8383612bb3565b6125ea5f848484612dc6565b612629576040517f08c379a000000000000000000000000000000000000000000000000000000000815260040161262090615236565b60405180910390fd5b505050565b5f8061263983612102565b90508073ffffffffffffffffffffffffffffffffffffffff168473ffffffffffffffffffffffffffffffffffffffff16148061267b575061267a8185611ac0565b5b806126b957508373ffffffffffffffffffffffffffffffffffffffff166126a1846108cc565b73ffffffffffffffffffffffffffffffffffffffff16145b91505092915050565b8273ffffffffffffffffffffffffffffffffffffffff166126e282612102565b73ffffffffffffffffffffffffffffffffffffffff1614612738576040517f08c379a000000000000000000000000000000000000000000000000000000000815260040161272f906152c4565b60405180910390fd5b5f73ffffffffffffffffffffffffffffffffffffffff168273ffffffffffffffffffffffffffffffffffffffff16036127a6576040517f08c379a000000000000000000000000000000000000000000000000000000000815260040161279d90615352565b60405180910390fd5b6127b38383836001612f48565b8273ffffffffffffffffffffffffffffffffffffffff166127d382612102565b73ffffffffffffffffffffffffffffffffffffffff1614612829576040517f08c379a0000000000000000000000000000000000000000000000000000000008152600401612820906152c4565b60405180910390fd5b60045f8281526020019081526020015f205f6101000a81549073ffffffffffffffffffffffffffffffffffffffff0219169055600160035f8573ffffffffffffffffffffffffffffffffffffffff1673ffffffffffffffffffffffffffffffffffffffff1681526020019081526020015f205f8282540392505081905550600160035f8473ffffffffffffffffffffffffffffffffffffffff1673ffffffffffffffffffffffffffffffffffffffff1681526020019081526020015f205f82825401925050819055508160025f8381526020019081526020015f205f6101000a81548173ffffffffffffffffffffffffffffffffffffffff021916908373ffffffffffffffffffffffffffffffffffffffff160217905550808273ffffffffffffffffffffffffffffffffffffffff168473ffffffffffffffffffffffffffffffffffffffff167fddf252ad1be2c89b69c2b068fc378daa952ba7f163c4a11628f55a4df523b3ef60405160405180910390a46129a98383836001612f5a565b505050565b6129b781612f60565b5f600a5f8381526020019081526020015f2080546129d490614481565b9050146129f857600a5f8281526020019081526020015f205f6129f791906137b8565b5b50565b612a068484846126c2565b612a1284848484612dc6565b612a51576040517f08c379a0000000000000000000000000000000000000000000000000000000008152600401612a4890615236565b60405180910390fd5b50505050565b606060405180602001604052805f815250905090565b6060612a7882611daf565b5f612a81612a57565b90505f815111612a9f5760405180602001604052805f815250612aca565b80612aa9846130a1565b604051602001612aba9291906151a3565b6040516020818303038152906040525b915050919050565b5f7f80ac58cd000000000000000000000000000000000000000000000000000000007bffffffffffffffffffffffffffffffffffffffffffffffffffffffff1916827bffffffffffffffffffffffffffffffffffffffffffffffffffffffff19161480612b9c57507f5b5e139f000000000000000000000000000000000000000000000000000000007bffffffffffffffffffffffffffffffffffffffffffffffffffffffff1916827bffffffffffffffffffffffffffffffffffffffffffffffffffffffff1916145b80612bac5750612bab8261316b565b5b9050919050565b5f73ffffffffffffffffffffffffffffffffffffffff168273ffffffffffffffffffffffffffffffffffffffff1603612c21576040517f08c379a0000000000000000000000000000000000000000000000000000000008152600401612c18906153ba565b60405180910390fd5b612c2a81611d6f565b15612c6a576040517f08c379a0000000000000000000000000000000000000000000000000000000008152600401612c6190615422565b60405180910390fd5b612c775f83836001612f48565b612c8081611d6f565b15612cc0576040517f08c379a0000000000000000000000000000000000000000000000000000000008152600401612cb790615422565b60405180910390fd5b600160035f8473ffffffffffffffffffffffffffffffffffffffff1673ffffffffffffffffffffffffffffffffffffffff1681526020019081526020015f205f82825401925050819055508160025f8381526020019081526020015f205f6101000a81548173ffffffffffffffffffffffffffffffffffffffff021916908373ffffffffffffffffffffffffffffffffffffffff160217905550808273ffffffffffffffffffffffffffffffffffffffff165f73ffffffffffffffffffffffffffffffffffffffff167fddf252ad1be2c89b69c2b068fc378daa952ba7f163c4a11628f55a4df523b3ef60405160405180910390a4612dc25f83836001612f5a565b5050565b5f612de68473ffffffffffffffffffffffffffffffffffffffff166131d4565b15612f3b578373ffffffffffffffffffffffffffffffffffffffff1663150b7a02612e0f612186565b8786866040518563ffffffff1660e01b8152600401612e319493929190615492565b6020604051808303815f875af1925050508015612e6c57506040513d601f19601f82011682018060405250810190612e6991906154f0565b60015b612eeb573d805f8114612e9a576040519150601f19603f3d011682016040523d82523d5f602084013e612e9f565b606091505b505f815103612ee3576040517f08c379a0000000000000000000000000000000000000000000000000000000008152600401612eda90615236565b60405180910390fd5b805181602001fd5b63150b7a0260e01b7bffffffffffffffffffffffffffffffffffffffffffffffffffffffff1916817bffffffffffffffffffffffffffffffffffffffffffffffffffffffff191614915050612f40565b600190505b949350505050565b612f54848484846131f6565b50505050565b50505050565b5f612f6a82612102565b9050612f79815f846001612f48565b612f8282612102565b905060045f8381526020019081526020015f205f6101000a81549073ffffffffffffffffffffffffffffffffffffffff0219169055600160035f8373ffffffffffffffffffffffffffffffffffffffff1673ffffffffffffffffffffffffffffffffffffffff1681526020019081526020015f205f828254039250508190555060025f8381526020019081526020015f205f6101000a81549073ffffffffffffffffffffffffffffffffffffffff0219169055815f73ffffffffffffffffffffffffffffffffffffffff168273ffffffffffffffffffffffffffffffffffffffff167fddf252ad1be2c89b69c2b068fc378daa952ba7f163c4a11628f55a4df523b3ef60405160405180910390a461309d815f846001612f5a565b5050565b60605f60016130af84613351565b0190505f8167ffffffffffffffff8111156130cd576130cc613ae2565b5b6040519080825280601f01601f1916602001820160405280156130ff5781602001600182028036833780820191505090505b5090505f82602001820190505b600115613160578080600190039150507f3031323334353637383961626364656600000000000000000000000000000000600a86061a8153600a858161315557613154614c33565b5b0494505f850361310c575b819350505050919050565b5f7f01ffc9a7000000000000000000000000000000000000000000000000000000007bffffffffffffffffffffffffffffffffffffffffffffffffffffffff1916827bffffffffffffffffffffffffffffffffffffffffffffffffffffffff1916149050919050565b5f808273ffffffffffffffffffffffffffffffffffffffff163b119050919050565b613202848484846134a2565b6001811115613246576040517f08c379a000000000000000000000000000000000000000000000000000000000815260040161323d9061558b565b60405180910390fd5b5f8290505f73ffffffffffffffffffffffffffffffffffffffff168573ffffffffffffffffffffffffffffffffffffffff160361328b57613286816134a8565b6132ca565b8373ffffffffffffffffffffffffffffffffffffffff168573ffffffffffffffffffffffffffffffffffffffff16146132c9576132c885826134ec565b5b5b5f73ffffffffffffffffffffffffffffffffffffffff168473ffffffffffffffffffffffffffffffffffffffff160361330b5761330681613642565b61334a565b8473ffffffffffffffffffffffffffffffffffffffff168473ffffffffffffffffffffffffffffffffffffffff1614613349576133488482613702565b5b5b5050505050565b5f805f90507a184f03e93ff9f4daa797ed6e38ed64bf6a1f01000000000000000083106133ad577a184f03e93ff9f4daa797ed6e38ed64bf6a1f01000000000000000083816133a3576133a2614c33565b5b0492506040810190505b6d04ee2d6d415b85acef810000000083106133ea576d04ee2d6d415b85acef810000000083816133e0576133df614c33565b5b0492506020810190505b662386f26fc10000831061341957662386f26fc10000838161340f5761340e614c33565b5b0492506010810190505b6305f5e1008310613442576305f5e100838161343857613437614c33565b5b0492506008810190505b612710831061346757612710838161345d5761345c614c33565b5b0492506004810190505b6064831061348a57606483816134805761347f614c33565b5b0492506002810190505b600a8310613499576001810190505b80915050919050565b50505050565b60088054905060095f8381526020019081526020015f2081905550600881908060018154018082558091505060019003905f5260205f20015f909190919091505550565b5f60016134f88461202f565b61350291906155a9565b90505f60075f8481526020019081526020015f205490508181146135d9575f60065f8673ffffffffffffffffffffffffffffffffffffffff1673ffffffffffffffffffffffffffffffffffffffff1681526020019081526020015f205f8481526020019081526020015f205490508060065f8773ffffffffffffffffffffffffffffffffffffffff1673ffffffffffffffffffffffffffffffffffffffff1681526020019081526020015f205f8481526020019081526020015f20819055508160075f8381526020019081526020015f2081905550505b60075f8481526020019081526020015f205f905560065f8573ffffffffffffffffffffffffffffffffffffffff1673ffffffffffffffffffffffffffffffffffffffff1681526020019081526020015f205f8381526020019081526020015f205f905550505050565b5f600160088054905061365591906155a9565b90505f60095f8481526020019081526020015f205490505f6008838154811061368157613680614905565b5b905f5260205f200154905080600883815481106136a1576136a0614905565b5b905f5260205f2001819055508160095f8381526020019081526020015f208190555060095f8581526020019081526020015f205f905560088054806136e9576136e86155dc565b5b600190038181905f5260205f20015f9055905550505050565b5f61370c8361202f565b90508160065f8573ffffffffffffffffffffffffffffffffffffffff1673ffffffffffffffffffffffffffffffffffffffff1681526020019081526020015f205f8381526020019081526020015f20819055508060075f8481526020019081526020015f2081905550505050565b604051806101000160405280606081526020015f81526020015f81526020015f81526020015f81526020015f81526020015f81526020015f81525090565b5080546137c490614481565b5f825580601f106137d557506137f2565b601f0160209004905f5260205f20908101906137f191906137f5565b5b50565b5b8082111561380c575f815f9055506001016137f6565b5090565b5f604051905090565b5f80fd5b5f80fd5b5f7fffffffff0000000000000000000000000000000000000000000000000000000082169050919050565b61385581613821565b811461385f575f80fd5b50565b5f813590506138708161384c565b92915050565b5f6020828403121561388b5761388a613819565b5b5f61389884828501613862565b91505092915050565b5f8115159050919050565b6138b5816138a1565b82525050565b5f6020820190506138ce5f8301846138ac565b92915050565b5f819050919050565b6138e6816138d4565b81146138f0575f80fd5b50565b5f81359050613901816138dd565b92915050565b5f806040838503121561391d5761391c613819565b5b5f61392a858286016138f3565b925050602061393b858286016138f3565b9150509250929050565b5f81519050919050565b5f82825260208201905092915050565b5f5b8381101561397c578082015181840152602081019050613961565b5f8484015250505050565b5f601f19601f8301169050919050565b5f6139a182613945565b6139ab818561394f565b93506139bb81856020860161395f565b6139c481613987565b840191505092915050565b5f6020820190508181035f8301526139e78184613997565b905092915050565b5f73ffffffffffffffffffffffffffffffffffffffff82169050919050565b5f613a18826139ef565b9050919050565b613a2881613a0e565b82525050565b5f602082019050613a415f830184613a1f565b92915050565b5f60208284031215613a5c57613a5b613819565b5b5f613a69848285016138f3565b91505092915050565b613a7b81613a0e565b8114613a85575f80fd5b50565b5f81359050613a9681613a72565b92915050565b5f8060408385031215613ab257613ab1613819565b5b5f613abf85828601613a88565b9250506020613ad0858286016138f3565b9150509250929050565b5f80fd5b5f80fd5b7f4e487b71000000000000000000000000000000000000000000000000000000005f52604160045260245ffd5b613b1882613987565b810181811067ffffffffffffffff82111715613b3757613b36613ae2565b5b80604052505050565b5f613b49613810565b9050613b558282613b0f565b919050565b5f67ffffffffffffffff821115613b7457613b73613ae2565b5b613b7d82613987565b9050602081019050919050565b828183375f83830152505050565b5f613baa613ba584613b5a565b613b40565b905082815260208101848484011115613bc657613bc5613ade565b5b613bd1848285613b8a565b509392505050565b5f82601f830112613bed57613bec613ada565b5b8135613bfd848260208601613b98565b91505092915050565b5f8060408385031215613c1c57613c1b613819565b5b5f613c29858286016138f3565b925050602083013567ffffffffffffffff811115613c4a57613c4961381d565b5b613c5685828601613bd9565b9150509250929050565b613c69816138d4565b82525050565b5f602082019050613c825f830184613c60565b92915050565b5f805f805f805f805f6101208a8c031215613ca657613ca5613819565b5b5f613cb38c828d01613a88565b99505060208a013567ffffffffffffffff811115613cd457613cd361381d565b5b613ce08c828d01613bd9565b9850506040613cf18c828d016138f3565b9750506060613d028c828d016138f3565b9650506080613d138c828d016138f3565b95505060a0613d248c828d016138f3565b94505060c0613d358c828d016138f3565b93505060e0613d468c828d016138f3565b925050610100613d588c828d016138f3565b9150509295985092959850929598565b5f805f60608486031215613d7f57613d7e613819565b5b5f613d8c86828701613a88565b9350506020613d9d86828701613a88565b9250506040613dae868287016138f3565b9150509250925092565b5f67ffffffffffffffff821115613dd257613dd1613ae2565b5b602082029050602081019050919050565b5f80fd5b5f613df9613df484613db8565b613b40565b90508083825260208201905060208402830185811115613e1c57613e1b613de3565b5b835b81811015613e455780613e3188826138f3565b845260208401935050602081019050613e1e565b5050509392505050565b5f82601f830112613e6357613e62613ada565b5b8135613e73848260208601613de7565b91505092915050565b5f8060408385031215613e9257613e91613819565b5b5f83013567ffffffffffffffff811115613eaf57613eae61381d565b5b613ebb85828601613e4f565b9250506020613ecc858286016138f3565b9150509250929050565b5f82825260208201905092915050565b5f613ef082613945565b613efa8185613ed6565b9350613f0a81856020860161395f565b613f1381613987565b840191505092915050565b613f27816138d4565b82525050565b5f61010083015f8301518482035f860152613f488282613ee6565b9150506020830151613f5d6020860182613f1e565b506040830151613f706040860182613f1e565b506060830151613f836060860182613f1e565b506080830151613f966080860182613f1e565b5060a0830151613fa960a0860182613f1e565b5060c0830151613fbc60c0860182613f1e565b5060e0830151613fcf60e0860182613f1e565b508091505092915050565b5f6020820190508181035f830152613ff28184613f2d565b905092915050565b5f6020828403121561400f5761400e613819565b5b5f61401c84828501613a88565b91505092915050565b61402e816138a1565b8114614038575f80fd5b50565b5f8135905061404981614025565b92915050565b5f806040838503121561406557614064613819565b5b5f61407285828601613a88565b92505060206140838582860161403b565b9150509250929050565b5f805f606084860312156140a4576140a3613819565b5b5f6140b1868287016138f3565b93505060206140c2868287016138f3565b92505060406140d386828701613a88565b9150509250925092565b5f81519050919050565b5f82825260208201905092915050565b5f819050602082019050919050565b5f6141118383613f1e565b60208301905092915050565b5f602082019050919050565b5f614133826140dd565b61413d81856140e7565b9350614148836140f7565b805f5b8381101561417857815161415f8882614106565b975061416a8361411d565b92505060018101905061414b565b5085935050505092915050565b5f6020820190508181035f83015261419d8184614129565b905092915050565b5f67ffffffffffffffff8211156141bf576141be613ae2565b5b6141c882613987565b9050602081019050919050565b5f6141e76141e2846141a5565b613b40565b90508281526020810184848401111561420357614202613ade565b5b61420e848285613b8a565b509392505050565b5f82601f83011261422a57614229613ada565b5b813561423a8482602086016141d5565b91505092915050565b5f805f806080858703121561425b5761425a613819565b5b5f61426887828801613a88565b945050602061427987828801613a88565b935050604061428a878288016138f3565b925050606085013567ffffffffffffffff8111156142ab576142aa61381d565b5b6142b787828801614216565b91505092959194509250565b5f80604083850312156142d9576142d8613819565b5b5f6142e685828601613a88565b92505060206142f785828601613a88565b9150509250929050565b5f610100820190508181035f83015261431a818b613997565b9050614329602083018a613c60565b6143366040830189613c60565b6143436060830188613c60565b6143506080830187613c60565b61435d60a0830186613c60565b61436a60c0830185613c60565b61437760e0830184613c60565b9998505050505050505050565b7f43616c6c6572206973206e6f7420616e206f70657261746f72000000000000005f82015250565b5f6143b860198361394f565b91506143c382614384565b602082019050919050565b5f6020820190508181035f8301526143e5816143ac565b9050919050565b7f4e465420646f6573206e6f7420657869737400000000000000000000000000005f82015250565b5f61442060128361394f565b915061442b826143ec565b602082019050919050565b5f6020820190508181035f83015261444d81614414565b9050919050565b7f4e487b71000000000000000000000000000000000000000000000000000000005f52602260045260245ffd5b5f600282049050600182168061449857607f821691505b6020821081036144ab576144aa614454565b5b50919050565b7f43616c6c6572206973206e6f742061206d696e746572000000000000000000005f82015250565b5f6144e560168361394f565b91506144f0826144b1565b602082019050919050565b5f6020820190508181035f830152614512816144d9565b9050919050565b7f4e487b71000000000000000000000000000000000000000000000000000000005f52601160045260245ffd5b5f614550826138d4565b915061455b836138d4565b925082820190508082111561457357614572614519565b5b92915050565b5f819050815f5260205f209050919050565b5f6020601f8301049050919050565b5f82821b905092915050565b5f600883026145d57fffffffffffffffffffffffffffffffffffffffffffffffffffffffffffffffff8261459a565b6145df868361459a565b95508019841693508086168417925050509392505050565b5f819050919050565b5f61461a614615614610846138d4565b6145f7565b6138d4565b9050919050565b5f819050919050565b61463383614600565b61464761463f82614621565b8484546145a6565b825550505050565b5f90565b61465b61464f565b61466681848461462a565b505050565b5b818110156146895761467e5f82614653565b60018101905061466c565b5050565b601f8211156146ce5761469f81614579565b6146a88461458b565b810160208510156146b7578190505b6146cb6146c38561458b565b83018261466b565b50505b505050565b5f82821c905092915050565b5f6146ee5f19846008026146d3565b1980831691505092915050565b5f61470683836146df565b9150826002028217905092915050565b61471f82613945565b67ffffffffffffffff81111561473857614737613ae2565b5b6147428254614481565b61474d82828561468d565b5f60209050601f83116001811461477e575f841561476c578287015190505b61477685826146fb565b8655506147dd565b601f19841661478c86614579565b5f5b828110156147b35784890151825560018201915060208501945060208101905061478e565b868310156147d057848901516147cc601f8916826146df565b8355505b6001600288020188555050505b505050505050565b5f610120820190506147f95f83018c613c60565b818103602083015261480b818b613997565b905061481a604083018a613c60565b6148276060830189613c60565b6148346080830188613c60565b61484160a0830187613c60565b61484e60c0830186613c60565b61485b60e0830185613c60565b614869610100830184613c60565b9a9950505050505050505050565b7f455243373231456e756d657261626c653a206f776e657220696e646578206f755f8201527f74206f6620626f756e6473000000000000000000000000000000000000000000602082015250565b5f6148d1602b8361394f565b91506148dc82614877565b604082019050919050565b5f6020820190508181035f8301526148fe816148c5565b9050919050565b7f4e487b71000000000000000000000000000000000000000000000000000000005f52603260045260245ffd5b5f61493c826138d4565b91507fffffffffffffffffffffffffffffffffffffffffffffffffffffffffffffffff820361496e5761496d614519565b5b600182019050919050565b7f43616c6c6572206973206e6f7420616e2061646d696e000000000000000000005f82015250565b5f6149ad60168361394f565b91506149b882614979565b602082019050919050565b5f6020820190508181035f8301526149da816149a1565b9050919050565b7f455243373231456e756d657261626c653a20676c6f62616c20696e646578206f5f8201527f7574206f6620626f756e64730000000000000000000000000000000000000000602082015250565b5f614a3b602c8361394f565b9150614a46826149e1565b604082019050919050565b5f6020820190508181035f830152614a6881614a2f565b9050919050565b7f43616c6c6572206973206e6f7420612072656465656d657200000000000000005f82015250565b5f614aa360188361394f565b9150614aae82614a6f565b602082019050919050565b5f6020820190508181035f830152614ad081614a97565b9050919050565b7f4e6f7420617070726f76656420746f206275726e0000000000000000000000005f82015250565b5f614b0b60148361394f565b9150614b1682614ad7565b602082019050919050565b5f6020820190508181035f830152614b3881614aff565b9050919050565b5f604082019050614b525f830185613a1f565b614b5f6020830184613a1f565b9392505050565b5f81519050614b74816138dd565b92915050565b5f60208284031215614b8f57614b8e613819565b5b5f614b9c84828501614b66565b91505092915050565b7f436f6e7472616374206e6f7420617070726f76656420746f207370656e6420745f8201527f686520726571756972656420616d6f756e74206f662055534400000000000000602082015250565b5f614bff60398361394f565b9150614c0a82614ba5565b604082019050919050565b5f6020820190508181035f830152614c2c81614bf3565b9050919050565b7f4e487b71000000000000000000000000000000000000000000000000000000005f52601260045260245ffd5b5f614c6a826138d4565b9150614c75836138d4565b925082614c8557614c84614c33565b5b828204905092915050565b5f614c9a826138d4565b9150614ca5836138d4565b9250828202614cb3816138d4565b91508282048414831517614cca57614cc9614519565b5b5092915050565b5f606082019050614ce45f830186613a1f565b614cf16020830185613a1f565b614cfe6040830184613c60565b949350505050565b5f81519050614d1481614025565b92915050565b5f60208284031215614d2f57614d2e613819565b5b5f614d3c84828501614d06565b91505092915050565b7f446973747269627574656420616d6f756e7420646f6573206e6f74206d6174635f8201527f68207468652073706563696669656420616d6f756e7400000000000000000000602082015250565b5f614d9f60368361394f565b9150614daa82614d45565b604082019050919050565b5f6020820190508181035f830152614dcc81614d93565b9050919050565b7f4552433732313a20696e76616c696420746f6b656e20494400000000000000005f82015250565b5f614e0760188361394f565b9150614e1282614dd3565b602082019050919050565b5f6020820190508181035f830152614e3481614dfb565b9050919050565b7f4552433732313a20617070726f76616c20746f2063757272656e74206f776e655f8201527f7200000000000000000000000000000000000000000000000000000000000000602082015250565b5f614e9560218361394f565b9150614ea082614e3b565b604082019050919050565b5f6020820190508181035f830152614ec281614e89565b9050919050565b7f4552433732313a20617070726f76652063616c6c6572206973206e6f7420746f5f8201527f6b656e206f776e6572206f7220617070726f76656420666f7220616c6c000000602082015250565b5f614f23603d8361394f565b9150614f2e82614ec9565b604082019050919050565b5f6020820190508181035f830152614f5081614f17565b9050919050565b7f45524337323155524953746f726167653a2055524920736574206f66206e6f6e5f8201527f6578697374656e7420746f6b656e000000000000000000000000000000000000602082015250565b5f614fb1602e8361394f565b9150614fbc82614f57565b604082019050919050565b5f6020820190508181035f830152614fde81614fa5565b9050919050565b7f4552433732313a2063616c6c6572206973206e6f7420746f6b656e206f776e655f8201527f72206f7220617070726f76656400000000000000000000000000000000000000602082015250565b5f61503f602d8361394f565b915061504a82614fe5565b604082019050919050565b5f6020820190508181035f83015261506c81615033565b9050919050565b7f4552433732313a2061646472657373207a65726f206973206e6f7420612076615f8201527f6c6964206f776e65720000000000000000000000000000000000000000000000602082015250565b5f6150cd60298361394f565b91506150d882615073565b604082019050919050565b5f6020820190508181035f8301526150fa816150c1565b9050919050565b7f4552433732313a20617070726f766520746f2063616c6c6572000000000000005f82015250565b5f61513560198361394f565b915061514082615101565b602082019050919050565b5f6020820190508181035f83015261516281615129565b9050919050565b5f81905092915050565b5f61517d82613945565b6151878185615169565b935061519781856020860161395f565b80840191505092915050565b5f6151ae8285615173565b91506151ba8284615173565b91508190509392505050565b7f4552433732313a207472616e7366657220746f206e6f6e2045524337323152655f8201527f63656976657220696d706c656d656e7465720000000000000000000000000000602082015250565b5f61522060328361394f565b915061522b826151c6565b604082019050919050565b5f6020820190508181035f83015261524d81615214565b9050919050565b7f4552433732313a207472616e736665722066726f6d20696e636f7272656374205f8201527f6f776e6572000000000000000000000000000000000000000000000000000000602082015250565b5f6152ae60258361394f565b91506152b982615254565b604082019050919050565b5f6020820190508181035f8301526152db816152a2565b9050919050565b7f4552433732313a207472616e7366657220746f20746865207a65726f206164645f8201527f7265737300000000000000000000000000000000000000000000000000000000602082015250565b5f61533c60248361394f565b9150615347826152e2565b604082019050919050565b5f6020820190508181035f83015261536981615330565b9050919050565b7f4552433732313a206d696e7420746f20746865207a65726f20616464726573735f82015250565b5f6153a460208361394f565b91506153af82615370565b602082019050919050565b5f6020820190508181035f8301526153d181615398565b9050919050565b7f4552433732313a20746f6b656e20616c7265616479206d696e746564000000005f82015250565b5f61540c601c8361394f565b9150615417826153d8565b602082019050919050565b5f6020820190508181035f83015261543981615400565b9050919050565b5f81519050919050565b5f82825260208201905092915050565b5f61546482615440565b61546e818561544a565b935061547e81856020860161395f565b61548781613987565b840191505092915050565b5f6080820190506154a55f830187613a1f565b6154b26020830186613a1f565b6154bf6040830185613c60565b81810360608301526154d1818461545a565b905095945050505050565b5f815190506154ea8161384c565b92915050565b5f6020828403121561550557615504613819565b5b5f615512848285016154dc565b91505092915050565b7f455243373231456e756d657261626c653a20636f6e73656375746976652074725f8201527f616e7366657273206e6f7420737570706f727465640000000000000000000000602082015250565b5f61557560358361394f565b91506155808261551b565b604082019050919050565b5f6020820190508181035f8301526155a281615569565b9050919050565b5f6155b3826138d4565b91506155be836138d4565b92508282039050818111156155d6576155d5614519565b5b92915050565b7f4e487b71000000000000000000000000000000000000000000000000000000005f52603160045260245ffdfea2646970667358221220272b977db492cc505c4addc3deddaa6d451a4eb163cebf1a61c5f23b7fe9722164736f6c63430008150033",
  "immutableReferences": {},
  "source": "// SPDX-License-Identifier: MIT\r\npragma solidity ^0.8.0;\r\n\r\nimport \"@openzeppelin/contracts/token/ERC721/extensions/ERC721Enumerable.sol\";\r\nimport \"@openzeppelin/contracts/token/ERC721/extensions/ERC721URIStorage.sol\";\r\nimport \"@openzeppelin/contracts/token/ERC20/IERC20.sol\";\r\n\r\n\r\n    /**\r\n    * @title PropertyNFT\r\n    * @dev An NFT representation of a property. This contract allows for minting property NFTs, updating their attributes,\r\n    * and querying based on certain attributes like launchpadID. It also provides role-based access control for various operations.\r\n    */\r\ncontract PropertyNFT is ERC721, ERC721Enumerable, ERC721URIStorage {\r\n\r\n    /**\r\n    * @dev Struct representing a Property with various attributes.\r\n    */\r\n    struct Property {\r\n        string propertyName; // name of the property\r\n        uint apr; // apr the property guarantee\r\n        uint totalPropertyRaised; // total sell value of the property\r\n        uint propertyParticipation; // amount user partecipated in the property\r\n        uint launchpadID; // id of the launchpad that sold the property\r\n        uint redeemFees; // fees that will be paid when redeem the profit from property selling\r\n        uint sellFees; // fees from selling the NFT in the marketplace\r\n        uint totalEarned; // revenue generated by the NFT property over time\r\n    }\r\n\r\n    mapping(uint256 => Property) public properties; // Mapping of token ID to its associated Property\r\n    mapping(uint => uint256[]) public launchpadIDToTokenIds; // Mapping of launchpad ID to an array of token IDs\r\n\r\n    \r\n\r\n    // Role-based access controls\r\n    address public admin;\r\n    address public minter;\r\n    address public redeemer;\r\n    address public operator;\r\n\r\n    /**\r\n     * @dev Ensures that the caller is the admin.\r\n     */\r\n    modifier onlyAdmin() {\r\n        require(msg.sender == admin, \"Caller is not an admin\");\r\n        _;\r\n    }\r\n\r\n    /**\r\n     * @dev Ensures that the caller has minting privileges.\r\n     */\r\n    modifier onlyMinter() {\r\n        require(msg.sender == minter, \"Caller is not a minter\");\r\n        _;\r\n    }\r\n\r\n    /**\r\n     * @dev Ensures that the caller has redeeming privileges.\r\n     */\r\n    modifier onlyRedeemer() {\r\n        require(msg.sender == redeemer, \"Caller is not a redeemer\");\r\n        _;\r\n    }\r\n\r\n    /**\r\n     * @dev Ensures that the caller has operational privileges.\r\n     */\r\n    modifier onlyOperator() {\r\n        require(msg.sender == operator, \"Caller is not an operator\");\r\n        _;\r\n    }\r\n\r\n    /**\r\n    * @dev Emitted when a new property NFT is minted.\r\n    */\r\n    event PropertyMinted(\r\n        uint256 tokenId,\r\n        string propertyName,\r\n        uint apr,\r\n        uint totalPropertyRaised,\r\n        uint propertyParticipation,\r\n        uint launchpadID,\r\n        uint redeemFees,\r\n        uint sellFees,\r\n        uint totalEarned\r\n    );\r\n\r\n    /**\r\n    * @dev Sets up the main admin role on contract deployment.\r\n    */\r\n    constructor() ERC721(\"PropertyNFT\", \"PNFT\") {\r\n        admin = msg.sender;  // Set deployer as the initial admin\r\n    }\r\n\r\n\r\n    /**\r\n     * @dev Assigns a new admin.\r\n     * @param _newAdmin Address of the new admin.\r\n     */\r\n    function setNewAdmin(address _newAdmin) public onlyAdmin {\r\n        admin = _newAdmin;\r\n    }\r\n\r\n    /**\r\n     * @dev Assigns a minter role to an address.\r\n     * @param _minter Address to be assigned the minter role.\r\n     */\r\n    function setMinter(address _minter) public onlyAdmin {\r\n        minter = _minter;\r\n    }\r\n\r\n    /**\r\n     * @dev Assigns a redeemer role to an address.\r\n     * @param _redeemer Address to be assigned the redeemer role.\r\n     */\r\n    function setRedeemer(address _redeemer) public onlyAdmin {\r\n        redeemer = _redeemer;\r\n    }\r\n\r\n    /**\r\n     * @dev Assigns an operator role to an address.\r\n     * @param _operator Address to be assigned the operator role.\r\n     */\r\n    function setOperator(address _operator) public onlyAdmin {\r\n        operator = _operator;\r\n    }\r\n\r\n    /**\r\n    * @dev Mints a new property NFT.\r\n    * @param to - the recipient address of the minted token.\r\n    * @param propertyName - name of property NFT represent.\r\n    * @param apr - APR expected from the property.\r\n    * @param totalPropertyRaised - Total sell value of the property.\r\n    * @param propertyParticipation - amount user partecipated in the property.\r\n    * @param launchpadID - id of the launchpad that sold the property.\r\n    * @param redeemFees - fees that will be paid when redeem the profit from property selling.\r\n    * @param sellFees - fees from selling the NFT in the marketplace.\r\n    * @param totalEarned - revenue generated by the NFT property over time.\r\n    * @notice Only callable by an address with the MinterPad role.\r\n    */\r\n    function mintProperty(\r\n        address to,\r\n        string memory propertyName,\r\n        uint apr,\r\n        uint totalPropertyRaised,\r\n        uint propertyParticipation,\r\n        uint launchpadID,\r\n        uint redeemFees,\r\n        uint sellFees,\r\n        uint totalEarned\r\n    ) external onlyMinter {\r\n        uint256 newTokenId = totalSupply() + 1;\r\n        _safeMint(to, newTokenId);\r\n\r\n        Property memory newProperty = Property({\r\n            propertyName: propertyName,\r\n            apr: apr,\r\n            totalPropertyRaised: totalPropertyRaised,\r\n            propertyParticipation: propertyParticipation,\r\n            launchpadID: launchpadID,\r\n            redeemFees: redeemFees,\r\n            sellFees: sellFees,\r\n            totalEarned: totalEarned\r\n        });\r\n\r\n        properties[newTokenId] = newProperty;\r\n        launchpadIDToTokenIds[launchpadID].push(newTokenId);\r\n\r\n        emit PropertyMinted(\r\n            newTokenId,\r\n            propertyName,\r\n            apr,\r\n            totalPropertyRaised,\r\n            propertyParticipation,\r\n            launchpadID,\r\n            redeemFees,\r\n            sellFees,\r\n            totalEarned\r\n        );\r\n    }\r\n\r\n    /**\r\n    * @dev Fetches all tokens associated with a particular launchpadID.\r\n    * @param _launchpadID - the ID of the launchpad to query.\r\n    * @return A list of token IDs associated with the provided launchpadID.\r\n    */\r\n    function getTokensByLaunchpadID(uint _launchpadID) public view returns (uint256[] memory) {\r\n        return launchpadIDToTokenIds[_launchpadID];\r\n    }\r\n\r\n\r\n    /**\r\n    * @dev Updates the sellFees attribute for a single  tokenIds.\r\n    * @param tokenId - NFT token IDs.\r\n    * @param _sellFees - the new value for sellFees to be set.\r\n    * @notice Only callable by an operator.\r\n    */\r\n    function updateSellFees(uint256 tokenId, uint _sellFees) external onlyOperator {\r\n        require(_exists(tokenId), \"NFT does not exist\");\r\n        properties[tokenId].sellFees = _sellFees;\r\n    }\r\n\r\n    /**\r\n    * @dev Updates the redeemfees attribute for a single  tokenIds.\r\n    * @param tokenId - NFT token IDs.\r\n    * @param _redeemFees - the new value for redeemfees to be set.\r\n    * @notice Only callable by an operator.\r\n    */\r\n    function updateRedeemFees(uint256 tokenId, uint _redeemFees) external onlyOperator {\r\n        require(_exists(tokenId), \"NFT does not exist\");\r\n        properties[tokenId].redeemFees = _redeemFees;\r\n    }\r\n\r\n\r\n    /**\r\n    * @dev Updates the sellFees attribute for a multiple tokenIds.\r\n    * @param tokenIds - Array of NFT token IDs.\r\n    * @param _sellFees - the new value for sellFees to be set.\r\n    * @notice Only callable by an operator.\r\n    */\r\n    function updateBulkSellFees(uint256[] memory tokenIds, uint _sellFees) external onlyOperator {\r\n        for (uint i = 0; i < tokenIds.length; i++) {\r\n            require(_exists(tokenIds[i]), \"NFT does not exist\");\r\n            properties[tokenIds[i]].sellFees = _sellFees;\r\n        }\r\n    }\r\n\r\n    /**\r\n    * @dev Updates the redeemFees attribute for a multiple tokenIds.\r\n    * @param tokenIds - Array of NFT token IDs.\r\n    * @param _redeemFees - the new value for redeemFees to be set.\r\n    * @notice Only callable by an operator.\r\n    */\r\n    function updateBulkRedeemFees(uint256[] memory tokenIds, uint _redeemFees) external onlyOperator {\r\n        for (uint i = 0; i < tokenIds.length; i++) {\r\n            require(_exists(tokenIds[i]), \"NFT does not exist\");\r\n            properties[tokenIds[i]].redeemFees = _redeemFees;\r\n        }\r\n    }\r\n\r\n    /**\r\n    * @dev Distributes rewards to NFT holders based on their properties' participation in a specified launchpad.\r\n    * The rewards are distributed in USD token. The contract needs to be approved by the operator to spend the USDT before calling this function.\r\n    *\r\n    * @param launchpadID The ID of the launchpad for which rewards are to be distributed.\r\n    * @param amount The total amount of USD to be distributed among the NFT holders.\r\n    * @param TokenAddress The address of the ERC20 token contract.\r\n    *\r\n    * Emits a `Transfer` event for each reward distribution.\r\n    *\r\n    * Requirements:\r\n    * - The caller must have the `operator` role.\r\n    * - The contract must be approved by the operator to spend at least `amount` of USDT.\r\n    * - The total distributed amount should match the specified `amount`.\r\n    */\r\n    function distributeRewards(uint launchpadID, uint amount, address TokenAddress) external onlyOperator {\r\n        IERC20 Token = IERC20(TokenAddress); // Initialize USD token using the provided address\r\n\r\n        // Ensure that the operator has approved the contract to spend the required amount of USD\r\n        require(Token.allowance(msg.sender, address(this)) >= amount, \"Contract not approved to spend the required amount of USD\");\r\n\r\n        uint256[] memory tokenIDs = getTokensByLaunchpadID(launchpadID);\r\n        uint totalDistributed = 0; // Keep track of total USD distributed\r\n\r\n        for (uint i = 0; i < tokenIDs.length; i++) {\r\n            Property memory property = properties[tokenIDs[i]];\r\n            \r\n            uint reward = (amount / 10**18 * property.totalPropertyRaised) / property.propertyParticipation;\r\n            totalDistributed += reward;\r\n\r\n            // Transfer reward to NFT owner using USDT\r\n            Token.transferFrom(msg.sender, ownerOf(tokenIDs[i]), reward);\r\n\r\n            // Update totalEarned for the NFT\r\n            properties[tokenIDs[i]].totalEarned += reward;\r\n        }\r\n\r\n        // Ensure that the total distributed amount matches the specified amount\r\n        require(totalDistributed == amount, \"Distributed amount does not match the specified amount\");\r\n    }\r\n\r\n\r\n\r\n    /**\r\n    * @dev Internal function to burn a token. Overrides the ERC721 burn functionality.\r\n    * @param tokenId - the ID of the token to be burned.\r\n    */\r\n    function _burn(uint256 tokenId) internal override(ERC721, ERC721URIStorage) {\r\n        super._burn(tokenId);\r\n    }\r\n\r\n    /**\r\n    * @dev Allows burning of a token after user's approval.\r\n    * @param tokenId - the ID of the token to be burned.\r\n    * @notice Only callable by an address with the RedeemPad role.\r\n    */\r\n    function burnTokenWithApproval(uint256 tokenId) external onlyRedeemer {\r\n        require(ownerOf(tokenId) == msg.sender || isApprovedForAll(ownerOf(tokenId), msg.sender), \"Not approved to burn\");\r\n        _burn(tokenId);\r\n    }\r\n\r\n    /**\r\n    * @dev Sets the URI for a given token ID. Overrides the ERC721URIStorage setTokenURI functionality.\r\n    * @param tokenId - the ID of the token to set the URI for.\r\n    * @param _tokenURI - the new URL for metadata.\r\n    */\r\n    function setTokenURI(uint256 tokenId, string memory _tokenURI) external onlyOperator {\r\n        _setTokenURI(tokenId, _tokenURI);\r\n    }\r\n\r\n    /**\r\n    * @dev Returns the URI associated with a specific token ID. Overrides ERC721's tokenURI functionality.\r\n    * @param tokenId - The ID of the token to fetch the URI for.\r\n    * @return A string representing the URI of the specified token.\r\n    */\r\n    function tokenURI(uint256 tokenId) public view override(ERC721, ERC721URIStorage) returns (string memory) {\r\n        return super.tokenURI(tokenId);\r\n    }\r\n    \r\n    /**\r\n    * @dev Fetches the Property details for a specific token ID.\r\n    * @param tokenId - The ID of the token to fetch the Property details for.\r\n    * @return A Property struct containing details about the specified property.\r\n    */\r\n    function getProperty(uint256 tokenId) external view returns (Property memory) {\r\n        return properties[tokenId];\r\n    }\r\n\r\n    /**\r\n    * @dev Returns the balance (number of tokens) of the specified owner. Overrides ERC721's balanceOf function.\r\n    * @param owner - The address of the user to fetch the balance for.\r\n    * @return The number of tokens owned by the specified address.\r\n    */\r\n    function balanceOf(address owner) public view virtual override(ERC721, IERC721) returns (uint256) {\r\n        return super.balanceOf(owner);\r\n    }\r\n\r\n    /**\r\n    * @dev Returns the owner of the specified token ID. Overrides ERC721's ownerOf function.\r\n    * @param tokenId - The ID of the token to fetch the owner for.\r\n    * @return The address of the owner of the specified token.\r\n    */\r\n    function ownerOf(uint256 tokenId) public view virtual override(ERC721, IERC721) returns (address) {\r\n        return super.ownerOf(tokenId);\r\n    }\r\n    \r\n    /**\r\n    * @dev Approves another address to manage the specified token. Overrides ERC721's approve function.\r\n    * @param to - The address to be approved.\r\n    * @param tokenId - The ID of the token to be approved for management.\r\n    */\r\n    function approve(address to, uint256 tokenId) public virtual override(ERC721, IERC721) {\r\n        super.approve(to, tokenId);\r\n    }\r\n\r\n    /**\r\n    * @dev Transfers the ownership of a token from one address to another. Overrides ERC721's transferFrom function.\r\n    * @param from - The current owner of the token.\r\n    * @param to - The address to receive the token.\r\n    * @param tokenId - The ID of the token to be transferred.\r\n    */\r\n    function transferFrom(address from, address to, uint256 tokenId) public virtual override(ERC721, IERC721) {\r\n        super.transferFrom(from, to, tokenId);\r\n    }\r\n\r\n    /**\r\n    * @dev Safely transfers the ownership of a token from one address to another. Overrides ERC721's safeTransferFrom function.\r\n    * @param from - The current owner of the token.\r\n    * @param to - The address to receive the token.\r\n    * @param tokenId - The ID of the token to be transferred.\r\n    */\r\n    function safeTransferFrom(address from, address to, uint256 tokenId) public virtual override(ERC721, IERC721) {\r\n        super.safeTransferFrom(from, to, tokenId);\r\n    }\r\n\r\n    /**\r\n    * @dev Safely transfers the ownership of a token from one address to another, with additional data. Overrides ERC721's safeTransferFrom function.\r\n    * @param from - The current owner of the token.\r\n    * @param to - The address to receive the token.\r\n    * @param tokenId - The ID of the token to be transferred.\r\n    * @param _data - Additional data to accompany the transfer.\r\n    */\r\n    function safeTransferFrom(address from, address to, uint256 tokenId, bytes memory _data) public virtual override(ERC721, IERC721) {\r\n        super.safeTransferFrom(from, to, tokenId, _data);\r\n    }\r\n    \r\n    /** Additional Overrides to avoid library conflicts */\r\n    function _beforeTokenTransfer(address from, address to, uint256 tokenId, uint256 batchSize) internal virtual override(ERC721, ERC721Enumerable) {\r\n        super._beforeTokenTransfer(from, to, tokenId, batchSize); \r\n    }\r\n    \r\n    function supportsInterface(bytes4 interfaceId) public view virtual override(ERC721, ERC721Enumerable, ERC721URIStorage) returns (bool) {\r\n        return super.supportsInterface(interfaceId);\r\n    }\r\n}",
  "sourcePath": "C:\\Users\\loren\\Desktop\\PropertyNFT\\contracts\\PropertyNFT.sol",
  "compiler": {
    "name": "solc",
    "version": "0.8.21+commit.d9974bed.Emscripten.clang"
  },
  "schemaVersion": "3.4.16",
  "updatedAt": "2023-10-05T01:37:15.748Z",
  "devdoc": {
    "details": "An NFT representation of a property. This contract allows for minting property NFTs, updating their attributes, and querying based on certain attributes like launchpadID. It also provides role-based access control for various operations.",
    "events": {
      "Approval(address,address,uint256)": {
        "details": "Emitted when `owner` enables `approved` to manage the `tokenId` token."
      },
      "ApprovalForAll(address,address,bool)": {
        "details": "Emitted when `owner` enables or disables (`approved`) `operator` to manage all of its assets."
      },
      "BatchMetadataUpdate(uint256,uint256)": {
        "details": "This event emits when the metadata of a range of tokens is changed. So that the third-party platforms such as NFT market could timely update the images and related attributes of the NFTs."
      },
      "MetadataUpdate(uint256)": {
        "details": "This event emits when the metadata of a token is changed. So that the third-party platforms such as NFT market could timely update the images and related attributes of the NFT."
      },
      "PropertyMinted(uint256,string,uint256,uint256,uint256,uint256,uint256,uint256,uint256)": {
        "details": "Emitted when a new property NFT is minted."
      },
      "Transfer(address,address,uint256)": {
        "details": "Emitted when `tokenId` token is transferred from `from` to `to`."
      }
    },
    "kind": "dev",
    "methods": {
      "approve(address,uint256)": {
        "details": "Approves another address to manage the specified token. Overrides ERC721's approve function.",
        "params": {
          "to": "- The address to be approved.",
          "tokenId": "- The ID of the token to be approved for management."
        }
      },
      "balanceOf(address)": {
        "details": "Returns the balance (number of tokens) of the specified owner. Overrides ERC721's balanceOf function.",
        "params": {
          "owner": "- The address of the user to fetch the balance for."
        },
        "returns": {
          "_0": "The number of tokens owned by the specified address."
        }
      },
      "burnTokenWithApproval(uint256)": {
        "details": "Allows burning of a token after user's approval.",
        "params": {
          "tokenId": "- the ID of the token to be burned."
        }
      },
      "constructor": {
        "details": "Sets up the main admin role on contract deployment."
      },
      "distributeRewards(uint256,uint256,address)": {
        "details": "Distributes rewards to NFT holders based on their properties' participation in a specified launchpad. The rewards are distributed in USD token. The contract needs to be approved by the operator to spend the USDT before calling this function.",
        "params": {
          "TokenAddress": "The address of the ERC20 token contract. Emits a `Transfer` event for each reward distribution. Requirements: - The caller must have the `operator` role. - The contract must be approved by the operator to spend at least `amount` of USDT. - The total distributed amount should match the specified `amount`.",
          "amount": "The total amount of USD to be distributed among the NFT holders.",
          "launchpadID": "The ID of the launchpad for which rewards are to be distributed."
        }
      },
      "getApproved(uint256)": {
        "details": "See {IERC721-getApproved}."
      },
      "getProperty(uint256)": {
        "details": "Fetches the Property details for a specific token ID.",
        "params": {
          "tokenId": "- The ID of the token to fetch the Property details for."
        },
        "returns": {
          "_0": "A Property struct containing details about the specified property."
        }
      },
      "getTokensByLaunchpadID(uint256)": {
        "details": "Fetches all tokens associated with a particular launchpadID.",
        "params": {
          "_launchpadID": "- the ID of the launchpad to query."
        },
        "returns": {
          "_0": "A list of token IDs associated with the provided launchpadID."
        }
      },
      "isApprovedForAll(address,address)": {
        "details": "See {IERC721-isApprovedForAll}."
      },
      "mintProperty(address,string,uint256,uint256,uint256,uint256,uint256,uint256,uint256)": {
        "details": "Mints a new property NFT.",
        "params": {
          "apr": "- APR expected from the property.",
          "launchpadID": "- id of the launchpad that sold the property.",
          "propertyName": "- name of property NFT represent.",
          "propertyParticipation": "- amount user partecipated in the property.",
          "redeemFees": "- fees that will be paid when redeem the profit from property selling.",
          "sellFees": "- fees from selling the NFT in the marketplace.",
          "to": "- the recipient address of the minted token.",
          "totalEarned": "- revenue generated by the NFT property over time.",
          "totalPropertyRaised": "- Total sell value of the property."
        }
      },
      "name()": {
        "details": "See {IERC721Metadata-name}."
      },
      "ownerOf(uint256)": {
        "details": "Returns the owner of the specified token ID. Overrides ERC721's ownerOf function.",
        "params": {
          "tokenId": "- The ID of the token to fetch the owner for."
        },
        "returns": {
          "_0": "The address of the owner of the specified token."
        }
      },
      "safeTransferFrom(address,address,uint256)": {
        "details": "Safely transfers the ownership of a token from one address to another. Overrides ERC721's safeTransferFrom function.",
        "params": {
          "from": "- The current owner of the token.",
          "to": "- The address to receive the token.",
          "tokenId": "- The ID of the token to be transferred."
        }
      },
      "safeTransferFrom(address,address,uint256,bytes)": {
        "details": "Safely transfers the ownership of a token from one address to another, with additional data. Overrides ERC721's safeTransferFrom function.",
        "params": {
          "_data": "- Additional data to accompany the transfer.",
          "from": "- The current owner of the token.",
          "to": "- The address to receive the token.",
          "tokenId": "- The ID of the token to be transferred."
        }
      },
      "setApprovalForAll(address,bool)": {
        "details": "See {IERC721-setApprovalForAll}."
      },
      "setMinter(address)": {
        "details": "Assigns a minter role to an address.",
        "params": {
          "_minter": "Address to be assigned the minter role."
        }
      },
      "setNewAdmin(address)": {
        "details": "Assigns a new admin.",
        "params": {
          "_newAdmin": "Address of the new admin."
        }
      },
      "setOperator(address)": {
        "details": "Assigns an operator role to an address.",
        "params": {
          "_operator": "Address to be assigned the operator role."
        }
      },
      "setRedeemer(address)": {
        "details": "Assigns a redeemer role to an address.",
        "params": {
          "_redeemer": "Address to be assigned the redeemer role."
        }
      },
      "setTokenURI(uint256,string)": {
        "details": "Sets the URI for a given token ID. Overrides the ERC721URIStorage setTokenURI functionality.",
        "params": {
          "_tokenURI": "- the new URL for metadata.",
          "tokenId": "- the ID of the token to set the URI for."
        }
      },
      "symbol()": {
        "details": "See {IERC721Metadata-symbol}."
      },
      "tokenByIndex(uint256)": {
        "details": "See {IERC721Enumerable-tokenByIndex}."
      },
      "tokenOfOwnerByIndex(address,uint256)": {
        "details": "See {IERC721Enumerable-tokenOfOwnerByIndex}."
      },
      "tokenURI(uint256)": {
        "details": "Returns the URI associated with a specific token ID. Overrides ERC721's tokenURI functionality.",
        "params": {
          "tokenId": "- The ID of the token to fetch the URI for."
        },
        "returns": {
          "_0": "A string representing the URI of the specified token."
        }
      },
      "totalSupply()": {
        "details": "See {IERC721Enumerable-totalSupply}."
      },
      "transferFrom(address,address,uint256)": {
        "details": "Transfers the ownership of a token from one address to another. Overrides ERC721's transferFrom function.",
        "params": {
          "from": "- The current owner of the token.",
          "to": "- The address to receive the token.",
          "tokenId": "- The ID of the token to be transferred."
        }
      },
      "updateBulkRedeemFees(uint256[],uint256)": {
        "details": "Updates the redeemFees attribute for a multiple tokenIds.",
        "params": {
          "_redeemFees": "- the new value for redeemFees to be set.",
          "tokenIds": "- Array of NFT token IDs."
        }
      },
      "updateBulkSellFees(uint256[],uint256)": {
        "details": "Updates the sellFees attribute for a multiple tokenIds.",
        "params": {
          "_sellFees": "- the new value for sellFees to be set.",
          "tokenIds": "- Array of NFT token IDs."
        }
      },
      "updateRedeemFees(uint256,uint256)": {
        "details": "Updates the redeemfees attribute for a single  tokenIds.",
        "params": {
          "_redeemFees": "- the new value for redeemfees to be set.",
          "tokenId": "- NFT token IDs."
        }
      },
      "updateSellFees(uint256,uint256)": {
        "details": "Updates the sellFees attribute for a single  tokenIds.",
        "params": {
          "_sellFees": "- the new value for sellFees to be set.",
          "tokenId": "- NFT token IDs."
        }
      }
    },
    "title": "PropertyNFT",
    "version": 1
  },
  "userdoc": {
    "kind": "user",
    "methods": {
      "burnTokenWithApproval(uint256)": {
        "notice": "Only callable by an address with the RedeemPad role."
      },
      "mintProperty(address,string,uint256,uint256,uint256,uint256,uint256,uint256,uint256)": {
        "notice": "Only callable by an address with the MinterPad role."
      },
      "updateBulkRedeemFees(uint256[],uint256)": {
        "notice": "Only callable by an operator."
      },
      "updateBulkSellFees(uint256[],uint256)": {
        "notice": "Only callable by an operator."
      },
      "updateRedeemFees(uint256,uint256)": {
        "notice": "Only callable by an operator."
      },
      "updateSellFees(uint256,uint256)": {
        "notice": "Only callable by an operator."
      }
    },
    "version": 1
  }
}