{
  "contractName": "PropertyPAD",
  "abi": [
    {
      "inputs": [
        {
          "internalType": "address",
          "name": "_propertyNFTAddress",
          "type": "address"
        }
      ],
      "stateMutability": "nonpayable",
      "type": "constructor"
    },
    {
      "anonymous": false,
      "inputs": [
        {
          "indexed": true,
          "internalType": "address",
          "name": "user",
          "type": "address"
        },
        {
          "indexed": false,
          "internalType": "uint256",
          "name": "amount",
          "type": "uint256"
        }
      ],
      "name": "ClaimedBack",
      "type": "event"
    },
    {
      "anonymous": false,
      "inputs": [
        {
          "indexed": true,
          "internalType": "address",
          "name": "user",
          "type": "address"
        },
        {
          "indexed": false,
          "internalType": "uint256",
          "name": "amount",
          "type": "uint256"
        }
      ],
      "name": "Participated",
      "type": "event"
    },
    {
      "anonymous": false,
      "inputs": [
        {
          "indexed": true,
          "internalType": "address",
          "name": "user",
          "type": "address"
        },
        {
          "indexed": false,
          "internalType": "uint256",
          "name": "tokenId",
          "type": "uint256"
        }
      ],
      "name": "PropertyNFTClaimed",
      "type": "event"
    },
    {
      "inputs": [],
      "name": "admin",
      "outputs": [
        {
          "internalType": "address",
          "name": "",
          "type": "address"
        }
      ],
      "stateMutability": "view",
      "type": "function"
    },
    {
      "inputs": [],
      "name": "amountToRaise",
      "outputs": [
        {
          "internalType": "uint256",
          "name": "",
          "type": "uint256"
        }
      ],
      "stateMutability": "view",
      "type": "function"
    },
    {
      "inputs": [],
      "name": "apr",
      "outputs": [
        {
          "internalType": "uint256",
          "name": "",
          "type": "uint256"
        }
      ],
      "stateMutability": "view",
      "type": "function"
    },
    {
      "inputs": [],
      "name": "maxContribution",
      "outputs": [
        {
          "internalType": "uint256",
          "name": "",
          "type": "uint256"
        }
      ],
      "stateMutability": "view",
      "type": "function"
    },
    {
      "inputs": [],
      "name": "minContribution",
      "outputs": [
        {
          "internalType": "uint256",
          "name": "",
          "type": "uint256"
        }
      ],
      "stateMutability": "view",
      "type": "function"
    },
    {
      "inputs": [],
      "name": "propertyNFT",
      "outputs": [
        {
          "internalType": "contract PropertyNFT",
          "name": "",
          "type": "address"
        }
      ],
      "stateMutability": "view",
      "type": "function"
    },
    {
      "inputs": [],
      "name": "propertyName",
      "outputs": [
        {
          "internalType": "string",
          "name": "",
          "type": "string"
        }
      ],
      "stateMutability": "view",
      "type": "function"
    },
    {
      "inputs": [],
      "name": "raiseEndTime",
      "outputs": [
        {
          "internalType": "uint256",
          "name": "",
          "type": "uint256"
        }
      ],
      "stateMutability": "view",
      "type": "function"
    },
    {
      "inputs": [],
      "name": "raiseStartTime",
      "outputs": [
        {
          "internalType": "uint256",
          "name": "",
          "type": "uint256"
        }
      ],
      "stateMutability": "view",
      "type": "function"
    },
    {
      "inputs": [],
      "name": "raiseSuccessful",
      "outputs": [
        {
          "internalType": "bool",
          "name": "",
          "type": "bool"
        }
      ],
      "stateMutability": "view",
      "type": "function"
    },
    {
      "inputs": [],
      "name": "raiseToken",
      "outputs": [
        {
          "internalType": "contract IERC20",
          "name": "",
          "type": "address"
        }
      ],
      "stateMutability": "view",
      "type": "function"
    },
    {
      "inputs": [],
      "name": "redeemFees",
      "outputs": [
        {
          "internalType": "uint256",
          "name": "",
          "type": "uint256"
        }
      ],
      "stateMutability": "view",
      "type": "function"
    },
    {
      "inputs": [],
      "name": "sellFees",
      "outputs": [
        {
          "internalType": "uint256",
          "name": "",
          "type": "uint256"
        }
      ],
      "stateMutability": "view",
      "type": "function"
    },
    {
      "inputs": [],
      "name": "totalRaised",
      "outputs": [
        {
          "internalType": "uint256",
          "name": "",
          "type": "uint256"
        }
      ],
      "stateMutability": "view",
      "type": "function"
    },
    {
      "inputs": [],
      "name": "uniquePropertyPADID",
      "outputs": [
        {
          "internalType": "uint256",
          "name": "",
          "type": "uint256"
        }
      ],
      "stateMutability": "view",
      "type": "function"
    },
    {
      "inputs": [
        {
          "internalType": "address",
          "name": "",
          "type": "address"
        }
      ],
      "name": "userContributions",
      "outputs": [
        {
          "internalType": "uint256",
          "name": "",
          "type": "uint256"
        }
      ],
      "stateMutability": "view",
      "type": "function"
    },
    {
      "inputs": [
        {
          "internalType": "address",
          "name": "_raiseToken",
          "type": "address"
        },
        {
          "internalType": "uint256",
          "name": "_amountToRaise",
          "type": "uint256"
        },
        {
          "internalType": "uint256",
          "name": "_raiseStartTime",
          "type": "uint256"
        },
        {
          "internalType": "uint256",
          "name": "_raiseEndTime",
          "type": "uint256"
        },
        {
          "internalType": "uint256",
          "name": "_minContribution",
          "type": "uint256"
        },
        {
          "internalType": "uint256",
          "name": "_maxContribution",
          "type": "uint256"
        }
      ],
      "name": "setRaiseParameters",
      "outputs": [],
      "stateMutability": "nonpayable",
      "type": "function"
    },
    {
      "inputs": [
        {
          "internalType": "string",
          "name": "_propertyName",
          "type": "string"
        },
        {
          "internalType": "uint256",
          "name": "_apr",
          "type": "uint256"
        },
        {
          "internalType": "uint256",
          "name": "_redeemFees",
          "type": "uint256"
        },
        {
          "internalType": "uint256",
          "name": "_sellFees",
          "type": "uint256"
        }
      ],
      "name": "setPropertyAttributes",
      "outputs": [],
      "stateMutability": "nonpayable",
      "type": "function"
    },
    {
      "inputs": [
        {
          "internalType": "uint256",
          "name": "amount",
          "type": "uint256"
        }
      ],
      "name": "participate",
      "outputs": [],
      "stateMutability": "nonpayable",
      "type": "function"
    },
    {
      "inputs": [],
      "name": "claimBack",
      "outputs": [],
      "stateMutability": "nonpayable",
      "type": "function"
    },
    {
      "inputs": [],
      "name": "claimPropertyNFT",
      "outputs": [],
      "stateMutability": "nonpayable",
      "type": "function"
    }
  ],
  "bytecode": "0x60806040525f60095f6101000a81548160ff02191690831515021790555034801562000029575f80fd5b5060405162001e3738038062001e3783398181016040528101906200004f919062000142565b60015f8190555033600f5f6101000a81548173ffffffffffffffffffffffffffffffffffffffff021916908373ffffffffffffffffffffffffffffffffffffffff1602179055508060105f6101000a81548173ffffffffffffffffffffffffffffffffffffffff021916908373ffffffffffffffffffffffffffffffffffffffff1602179055505062000172565b5f80fd5b5f73ffffffffffffffffffffffffffffffffffffffff82169050919050565b5f6200010c82620000e1565b9050919050565b6200011e8162000100565b811462000129575f80fd5b50565b5f815190506200013c8162000113565b92915050565b5f602082840312156200015a5762000159620000dd565b5b5f62000169848285016200012c565b91505092915050565b611cb780620001805f395ff3fe608060405234801561000f575f80fd5b5060043610610135575f3560e01c8063845c9306116100b6578063aaffadf31161007a578063aaffadf3146102df578063c07ce1fe146102fd578063c5c4744c1461031b578063e0f3ccf514610339578063f851a44014610357578063fdd207081461037557610135565b8063845c930614610273578063850e13981461028f5780638566f737146102995780638d3d6576146102b75780639b8c3e21146102d557610135565b806337f76838116100fd57806337f76838146101dd5780633a047bb3146101fb5780634da60aa51461021957806357ded9c914610237578063716c3ad51461025557610135565b8063070173a21461013957806308257868146101575780630f6ca1a814610173578063216c3e52146101a35780632c35c08c146101bf575b5f80fd5b610141610393565b60405161014e9190610e94565b60405180910390f35b610171600480360381019061016c9190610f4b565b6103a5565b005b61018d60048036038101906101889190610fd4565b61049f565b60405161019a919061100e565b60405180910390f35b6101bd60048036038101906101b89190611163565b6104b4565b005b6101c761056e565b6040516101d4919061125d565b60405180910390f35b6101e56105fa565b6040516101f291906112d8565b60405180910390f35b61020361061f565b604051610210919061100e565b60405180910390f35b610221610625565b60405161022e9190611311565b60405180910390f35b61023f61064a565b60405161024c919061100e565b60405180910390f35b61025d610650565b60405161026a919061100e565b60405180910390f35b61028d6004803603810190610288919061132a565b610656565b005b61029761091e565b005b6102a1610b8f565b6040516102ae919061100e565b60405180910390f35b6102bf610b95565b6040516102cc919061100e565b60405180910390f35b6102dd610b9b565b005b6102e7610de1565b6040516102f4919061100e565b60405180910390f35b610305610de7565b604051610312919061100e565b60405180910390f35b610323610ded565b604051610330919061100e565b60405180910390f35b610341610df3565b60405161034e919061100e565b60405180910390f35b61035f610df9565b60405161036c9190611364565b60405180910390f35b61037d610e1e565b60405161038a919061100e565b60405180910390f35b60095f9054906101000a900460ff1681565b600f5f9054906101000a900473ffffffffffffffffffffffffffffffffffffffff1673ffffffffffffffffffffffffffffffffffffffff163373ffffffffffffffffffffffffffffffffffffffff1614610434576040517f08c379a000000000000000000000000000000000000000000000000000000000815260040161042b906113c7565b60405180910390fd5b8560015f6101000a81548173ffffffffffffffffffffffffffffffffffffffff021916908373ffffffffffffffffffffffffffffffffffffffff1602179055508460028190555083600381905550826004819055508160058190555080600681905550505050505050565b600e602052805f5260405f205f915090505481565b600f5f9054906101000a900473ffffffffffffffffffffffffffffffffffffffff1673ffffffffffffffffffffffffffffffffffffffff163373ffffffffffffffffffffffffffffffffffffffff1614610543576040517f08c379a000000000000000000000000000000000000000000000000000000000815260040161053a906113c7565b60405180910390fd5b83600a908161055291906115d6565b5082600b8190555081600c8190555080600d8190555050505050565b600a805461057b90611412565b80601f01602080910402602001604051908101604052809291908181526020018280546105a790611412565b80156105f25780601f106105c9576101008083540402835291602001916105f2565b820191905f5260205f20905b8154815290600101906020018083116105d557829003601f168201915b505050505081565b60105f9054906101000a900473ffffffffffffffffffffffffffffffffffffffff1681565b600c5481565b60015f9054906101000a900473ffffffffffffffffffffffffffffffffffffffff1681565b600b5481565b60085481565b600354421015801561066a57506004544211155b6106a9576040517f08c379a00000000000000000000000000000000000000000000000000000000081526004016106a0906116ef565b60405180910390fd5b60065481600e5f3373ffffffffffffffffffffffffffffffffffffffff1673ffffffffffffffffffffffffffffffffffffffff1681526020019081526020015f20546106f5919061173a565b1115610736576040517f08c379a000000000000000000000000000000000000000000000000000000000815260040161072d906117b7565b60405180910390fd5b60055481600e5f3373ffffffffffffffffffffffffffffffffffffffff1673ffffffffffffffffffffffffffffffffffffffff1681526020019081526020015f2054610782919061173a565b10156107c3576040517f08c379a00000000000000000000000000000000000000000000000000000000081526004016107ba9061181f565b60405180910390fd5b60015f9054906101000a900473ffffffffffffffffffffffffffffffffffffffff1673ffffffffffffffffffffffffffffffffffffffff166323b872dd3330846040518463ffffffff1660e01b81526004016108219392919061183d565b6020604051808303815f875af115801561083d573d5f803e3d5ffd5b505050506040513d601f19601f82011682018060405250810190610861919061189c565b5080600e5f3373ffffffffffffffffffffffffffffffffffffffff1673ffffffffffffffffffffffffffffffffffffffff1681526020019081526020015f205f8282546108ae919061173a565b925050819055508060075f8282546108c6919061173a565b925050819055503373ffffffffffffffffffffffffffffffffffffffff167fb198f199c43cc078ad46e5a5fabe03eba401f7417816c86af0bd2e7345c9950682604051610913919061100e565b60405180910390a250565b610926610e24565b600454421161096a576040517f08c379a000000000000000000000000000000000000000000000000000000000815260040161096190611911565b60405180910390fd5b60095f9054906101000a900460ff166109b8576040517f08c379a00000000000000000000000000000000000000000000000000000000081526004016109af90611979565b60405180910390fd5b5f600e5f3373ffffffffffffffffffffffffffffffffffffffff1673ffffffffffffffffffffffffffffffffffffffff1681526020019081526020015f205490505f8111610a3b576040517f08c379a0000000000000000000000000000000000000000000000000000000008152600401610a32906119e1565b60405180910390fd5b5f60105f9054906101000a900473ffffffffffffffffffffffffffffffffffffffff1673ffffffffffffffffffffffffffffffffffffffff16631cc5a78f33600a600b5460025487600854600c54600d545f6040518a63ffffffff1660e01b8152600401610ab199989796959493929190611ab9565b6020604051808303815f875af1158015610acd573d5f803e3d5ffd5b505050506040513d601f19601f82011682018060405250810190610af19190611b5f565b90505f600e5f3373ffffffffffffffffffffffffffffffffffffffff1673ffffffffffffffffffffffffffffffffffffffff1681526020019081526020015f20819055503373ffffffffffffffffffffffffffffffffffffffff167f754130b2ee28ab3954b72b8e8075bd756b042eb6b3c3a1d0a15787f6125c59bc82604051610b7b919061100e565b60405180910390a25050610b8d610e71565b565b60025481565b60065481565b6004544211610bdf576040517f08c379a0000000000000000000000000000000000000000000000000000000008152600401610bd690611911565b60405180910390fd5b60095f9054906101000a900460ff1615610c2e576040517f08c379a0000000000000000000000000000000000000000000000000000000008152600401610c2590611bd4565b60405180910390fd5b5f600e5f3373ffffffffffffffffffffffffffffffffffffffff1673ffffffffffffffffffffffffffffffffffffffff1681526020019081526020015f205490505f8111610cb1576040517f08c379a0000000000000000000000000000000000000000000000000000000008152600401610ca8906119e1565b60405180910390fd5b5f600e5f3373ffffffffffffffffffffffffffffffffffffffff1673ffffffffffffffffffffffffffffffffffffffff1681526020019081526020015f208190555060015f9054906101000a900473ffffffffffffffffffffffffffffffffffffffff1673ffffffffffffffffffffffffffffffffffffffff1663a9059cbb33836040518363ffffffff1660e01b8152600401610d4f929190611bf2565b6020604051808303815f875af1158015610d6b573d5f803e3d5ffd5b505050506040513d601f19601f82011682018060405250810190610d8f919061189c565b503373ffffffffffffffffffffffffffffffffffffffff167f8cda972e1308283a0f0961aaa210e5e4a7dea1a0a529a1008f72624d7f3e77c782604051610dd6919061100e565b60405180910390a250565b60055481565b60045481565b60075481565b600d5481565b600f5f9054906101000a900473ffffffffffffffffffffffffffffffffffffffff1681565b60035481565b60025f5403610e68576040517f08c379a0000000000000000000000000000000000000000000000000000000008152600401610e5f90611c63565b60405180910390fd5b60025f81905550565b60015f81905550565b5f8115159050919050565b610e8e81610e7a565b82525050565b5f602082019050610ea75f830184610e85565b92915050565b5f604051905090565b5f80fd5b5f80fd5b5f73ffffffffffffffffffffffffffffffffffffffff82169050919050565b5f610ee782610ebe565b9050919050565b610ef781610edd565b8114610f01575f80fd5b50565b5f81359050610f1281610eee565b92915050565b5f819050919050565b610f2a81610f18565b8114610f34575f80fd5b50565b5f81359050610f4581610f21565b92915050565b5f805f805f8060c08789031215610f6557610f64610eb6565b5b5f610f7289828a01610f04565b9650506020610f8389828a01610f37565b9550506040610f9489828a01610f37565b9450506060610fa589828a01610f37565b9350506080610fb689828a01610f37565b92505060a0610fc789828a01610f37565b9150509295509295509295565b5f60208284031215610fe957610fe8610eb6565b5b5f610ff684828501610f04565b91505092915050565b61100881610f18565b82525050565b5f6020820190506110215f830184610fff565b92915050565b5f80fd5b5f80fd5b5f601f19601f8301169050919050565b7f4e487b71000000000000000000000000000000000000000000000000000000005f52604160045260245ffd5b6110758261102f565b810181811067ffffffffffffffff821117156110945761109361103f565b5b80604052505050565b5f6110a6610ead565b90506110b2828261106c565b919050565b5f67ffffffffffffffff8211156110d1576110d061103f565b5b6110da8261102f565b9050602081019050919050565b828183375f83830152505050565b5f611107611102846110b7565b61109d565b9050828152602081018484840111156111235761112261102b565b5b61112e8482856110e7565b509392505050565b5f82601f83011261114a57611149611027565b5b813561115a8482602086016110f5565b91505092915050565b5f805f806080858703121561117b5761117a610eb6565b5b5f85013567ffffffffffffffff81111561119857611197610eba565b5b6111a487828801611136565b94505060206111b587828801610f37565b93505060406111c687828801610f37565b92505060606111d787828801610f37565b91505092959194509250565b5f81519050919050565b5f82825260208201905092915050565b5f5b8381101561121a5780820151818401526020810190506111ff565b5f8484015250505050565b5f61122f826111e3565b61123981856111ed565b93506112498185602086016111fd565b6112528161102f565b840191505092915050565b5f6020820190508181035f8301526112758184611225565b905092915050565b5f819050919050565b5f6112a061129b61129684610ebe565b61127d565b610ebe565b9050919050565b5f6112b182611286565b9050919050565b5f6112c2826112a7565b9050919050565b6112d2816112b8565b82525050565b5f6020820190506112eb5f8301846112c9565b92915050565b5f6112fb826112a7565b9050919050565b61130b816112f1565b82525050565b5f6020820190506113245f830184611302565b92915050565b5f6020828403121561133f5761133e610eb6565b5b5f61134c84828501610f37565b91505092915050565b61135e81610edd565b82525050565b5f6020820190506113775f830184611355565b92915050565b7f43616c6c6572206973206e6f7420616e2061646d696e000000000000000000005f82015250565b5f6113b16016836111ed565b91506113bc8261137d565b602082019050919050565b5f6020820190508181035f8301526113de816113a5565b9050919050565b7f4e487b71000000000000000000000000000000000000000000000000000000005f52602260045260245ffd5b5f600282049050600182168061142957607f821691505b60208210810361143c5761143b6113e5565b5b50919050565b5f819050815f5260205f209050919050565b5f6020601f8301049050919050565b5f82821b905092915050565b5f6008830261149e7fffffffffffffffffffffffffffffffffffffffffffffffffffffffffffffffff82611463565b6114a88683611463565b95508019841693508086168417925050509392505050565b5f6114da6114d56114d084610f18565b61127d565b610f18565b9050919050565b5f819050919050565b6114f3836114c0565b6115076114ff826114e1565b84845461146f565b825550505050565b5f90565b61151b61150f565b6115268184846114ea565b505050565b5b818110156115495761153e5f82611513565b60018101905061152c565b5050565b601f82111561158e5761155f81611442565b61156884611454565b81016020851015611577578190505b61158b61158385611454565b83018261152b565b50505b505050565b5f82821c905092915050565b5f6115ae5f1984600802611593565b1980831691505092915050565b5f6115c6838361159f565b9150826002028217905092915050565b6115df826111e3565b67ffffffffffffffff8111156115f8576115f761103f565b5b6116028254611412565b61160d82828561154d565b5f60209050601f83116001811461163e575f841561162c578287015190505b61163685826115bb565b86555061169d565b601f19841661164c86611442565b5f5b828110156116735784890151825560018201915060208501945060208101905061164e565b86831015611690578489015161168c601f89168261159f565b8355505b6001600288020188555050505b505050505050565b7f4e6f7420696e2072616973652074696d652077696e646f7700000000000000005f82015250565b5f6116d96018836111ed565b91506116e4826116a5565b602082019050919050565b5f6020820190508181035f830152611706816116cd565b9050919050565b7f4e487b71000000000000000000000000000000000000000000000000000000005f52601160045260245ffd5b5f61174482610f18565b915061174f83610f18565b92508282019050808211156117675761176661170d565b5b92915050565b7f45786365656473206d617820636f6e747269627574696f6e00000000000000005f82015250565b5f6117a16018836111ed565b91506117ac8261176d565b602082019050919050565b5f6020820190508181035f8301526117ce81611795565b9050919050565b7f42656c6f77206d696e20636f6e747269627574696f6e000000000000000000005f82015250565b5f6118096016836111ed565b9150611814826117d5565b602082019050919050565b5f6020820190508181035f830152611836816117fd565b9050919050565b5f6060820190506118505f830186611355565b61185d6020830185611355565b61186a6040830184610fff565b949350505050565b61187b81610e7a565b8114611885575f80fd5b50565b5f8151905061189681611872565b92915050565b5f602082840312156118b1576118b0610eb6565b5b5f6118be84828501611888565b91505092915050565b7f5261697365206e6f74207965742066696e6973686564000000000000000000005f82015250565b5f6118fb6016836111ed565b9150611906826118c7565b602082019050919050565b5f6020820190508181035f830152611928816118ef565b9050919050565b7f52616973652077617320756e7375636365737366756c000000000000000000005f82015250565b5f6119636016836111ed565b915061196e8261192f565b602082019050919050565b5f6020820190508181035f83015261199081611957565b9050919050565b7f4e6f20636f6e747269627574696f6e7320666f756e64000000000000000000005f82015250565b5f6119cb6016836111ed565b91506119d682611997565b602082019050919050565b5f6020820190508181035f8301526119f8816119bf565b9050919050565b5f8154611a0b81611412565b611a1581866111ed565b9450600182165f8114611a2f5760018114611a4557611a77565b60ff198316865281151560200286019350611a77565b611a4e85611442565b5f5b83811015611a6f57815481890152600182019150602081019050611a50565b808801955050505b50505092915050565b5f819050919050565b5f611aa3611a9e611a9984611a80565b61127d565b610f18565b9050919050565b611ab381611a89565b82525050565b5f61012082019050611acd5f83018c611355565b8181036020830152611adf818b6119ff565b9050611aee604083018a610fff565b611afb6060830189610fff565b611b086080830188610fff565b611b1560a0830187610fff565b611b2260c0830186610fff565b611b2f60e0830185610fff565b611b3d610100830184611aaa565b9a9950505050505050505050565b5f81519050611b5981610f21565b92915050565b5f60208284031215611b7457611b73610eb6565b5b5f611b8184828501611b4b565b91505092915050565b7f526169736520776173207375636365737366756c0000000000000000000000005f82015250565b5f611bbe6014836111ed565b9150611bc982611b8a565b602082019050919050565b5f6020820190508181035f830152611beb81611bb2565b9050919050565b5f604082019050611c055f830185611355565b611c126020830184610fff565b9392505050565b7f5265656e7472616e637947756172643a207265656e7472616e742063616c6c005f82015250565b5f611c4d601f836111ed565b9150611c5882611c19565b602082019050919050565b5f6020820190508181035f830152611c7a81611c41565b905091905056fea26469706673582212208337d14e956e36e64ae9bdae1210be82c52951a5bb38f3f19c6ede6223fad02e64736f6c63430008150033",
  "immutableReferences": {},
  "source": "\n// SPDX-License-Identifier: MIT\npragma solidity ^0.8.0;\n\nimport \"@openzeppelin/contracts/token/ERC20/IERC20.sol\";\nimport \"@openzeppelin/contracts/security/ReentrancyGuard.sol\";\nimport \"./PropertyNFT.sol\";\n\n/**\n * @title PropertyPAD\n * @dev A launchpad contract for raising funds to mint PropertyNFTs.\n */\ncontract PropertyPAD is ReentrancyGuard {\n\n    // State variables\n    IERC20 public raiseToken;\n    uint256 public amountToRaise;\n    uint256 public raiseStartTime;\n    uint256 public raiseEndTime;\n    uint256 public minContribution;\n    uint256 public maxContribution;\n    uint256 public totalRaised;\n    uint256 public uniquePropertyPADID;\n    bool public raiseSuccessful = false;\n\n    string public propertyName;\n    uint public apr;\n    uint public redeemFees;\n    uint public sellFees;\n\n    mapping(address => uint256) public userContributions;\n\n    address public admin;\n    PropertyNFT public propertyNFT;\n\n    // Events\n    event Participated(address indexed user, uint256 amount);\n    event ClaimedBack(address indexed user, uint256 amount);\n    event PropertyNFTClaimed(address indexed user, uint256 tokenId);\n\n    /**\n     * @dev Modifier to check if the caller is the admin.\n     */\n    modifier onlyAdmin() {\n        require(msg.sender == admin, \"Caller is not an admin\");\n        _;\n    }\n\n    /**\n     * @dev Constructor sets the initial admin and PropertyNFT contract reference.\n     * @param _propertyNFTAddress Address of the PropertyNFT contract.\n     */\n    constructor(address _propertyNFTAddress) {\n        admin = msg.sender;\n        propertyNFT = PropertyNFT(_propertyNFTAddress);\n    }\n\n    /**\n     * @dev Set the raise parameters.\n     * @param _raiseToken Address of the ERC20 token used for raising.\n     * @param _amountToRaise Total amount to raise.\n     * @param _raiseStartTime Start time of the raise.\n     * @param _raiseEndTime End time of the raise.\n     * @param _minContribution Minimum contribution per user.\n     * @param _maxContribution Maximum contribution per user.\n     */\n    function setRaiseParameters(\n        address _raiseToken, \n        uint256 _amountToRaise, \n        uint256 _raiseStartTime, \n        uint256 _raiseEndTime, \n        uint256 _minContribution, \n        uint256 _maxContribution\n    ) external onlyAdmin {\n        raiseToken = IERC20(_raiseToken);\n        amountToRaise = _amountToRaise;\n        raiseStartTime = _raiseStartTime;\n        raiseEndTime = _raiseEndTime;\n        minContribution = _minContribution;\n        maxContribution = _maxContribution;\n    }\n\n    /**\n     * @dev Set the property attributes.\n     * @param _propertyName Name of the property.\n     * @param _apr APR guaranteed by the property.\n     * @param _redeemFees Redeem fees.\n     * @param _sellFees Sell fees.\n     */\n    function setPropertyAttributes(\n        string memory _propertyName,\n        uint _apr,\n        uint _redeemFees,\n        uint _sellFees\n    ) external onlyAdmin {\n        propertyName = _propertyName;\n        apr = _apr;\n        redeemFees = _redeemFees;\n        sellFees = _sellFees;\n    }\n\n    /**\n     * @dev Participate in the raise.\n     * @param amount Amount of tokens to contribute.\n     */\n    function participate(uint256 amount) external {\n        require(block.timestamp >= raiseStartTime && block.timestamp <= raiseEndTime, \"Not in raise time window\");\n        require(userContributions[msg.sender] + amount <= maxContribution, \"Exceeds max contribution\");\n        require(userContributions[msg.sender] + amount >= minContribution, \"Below min contribution\");\n        \n        raiseToken.transferFrom(msg.sender, address(this), amount);\n        userContributions[msg.sender] += amount;\n        totalRaised += amount;\n\n        emit Participated(msg.sender, amount);\n    }\n\n    /**\n     * @dev Claim back tokens if the raise was unsuccessful.\n     */\n    function claimBack() external {\n        require(block.timestamp > raiseEndTime, \"Raise not yet finished\");\n        require(!raiseSuccessful, \"Raise was successful\");\n        \n        uint256 contribution = userContributions[msg.sender];\n        require(contribution > 0, \"No contributions found\");\n        \n        userContributions[msg.sender] = 0;\n        raiseToken.transfer(msg.sender, contribution);\n\n        emit ClaimedBack(msg.sender, contribution);\n    }\n    \n    /**\n     * @dev Claim PropertyNFT if the raise was successful.\n     */\n    function claimPropertyNFT() external nonReentrant{\n        require(block.timestamp > raiseEndTime, \"Raise not yet finished\");\n        require(raiseSuccessful, \"Raise was unsuccessful\");\n        \n        uint256 contribution = userContributions[msg.sender];\n        require(contribution > 0, \"No contributions found\");\n\n        // Mint the PropertyNFT for the user with the specified attributes\n        uint256 tokenId = propertyNFT.mintProperty(\n            msg.sender, \n            propertyName,\n            apr,\n            amountToRaise,\n            contribution,\n            uniquePropertyPADID,\n            redeemFees,\n            sellFees,\n            0\n        );\n        \n        userContributions[msg.sender] = 0;\n        emit PropertyNFTClaimed(msg.sender, tokenId);\n    }\n\n    /**\n     * @dev Determine if the raise was successful after the end time.\n     */\n    function finalizeRaise() internal {\n        require(block.timestamp > raiseEndTime, \"Raise not yet finished\");\n        if(totalRaised >= amountToRaise) {\n            raiseSuccessful = true;\n        }\n    }\n}\n",
  "sourcePath": "C:\\Users\\loren\\Desktop\\PersonalProjects\\PropertyNFT\\contracts\\PropertyPAD.sol",
  "compiler": {
    "name": "solc",
    "version": "0.8.21+commit.d9974bed.Emscripten.clang"
  },
  "schemaVersion": "3.4.16",
  "updatedAt": "2023-10-05T17:21:28.902Z",
  "devdoc": {
    "details": "A launchpad contract for raising funds to mint PropertyNFTs.",
    "kind": "dev",
    "methods": {
      "claimBack()": {
        "details": "Claim back tokens if the raise was unsuccessful."
      },
      "claimPropertyNFT()": {
        "details": "Claim PropertyNFT if the raise was successful."
      },
      "constructor": {
        "details": "Constructor sets the initial admin and PropertyNFT contract reference.",
        "params": {
          "_propertyNFTAddress": "Address of the PropertyNFT contract."
        }
      },
      "participate(uint256)": {
        "details": "Participate in the raise.",
        "params": {
          "amount": "Amount of tokens to contribute."
        }
      },
      "setPropertyAttributes(string,uint256,uint256,uint256)": {
        "details": "Set the property attributes.",
        "params": {
          "_apr": "APR guaranteed by the property.",
          "_propertyName": "Name of the property.",
          "_redeemFees": "Redeem fees.",
          "_sellFees": "Sell fees."
        }
      },
      "setRaiseParameters(address,uint256,uint256,uint256,uint256,uint256)": {
        "details": "Set the raise parameters.",
        "params": {
          "_amountToRaise": "Total amount to raise.",
          "_maxContribution": "Maximum contribution per user.",
          "_minContribution": "Minimum contribution per user.",
          "_raiseEndTime": "End time of the raise.",
          "_raiseStartTime": "Start time of the raise.",
          "_raiseToken": "Address of the ERC20 token used for raising."
        }
      }
    },
    "title": "PropertyPAD",
    "version": 1
  },
  "userdoc": {
    "kind": "user",
    "methods": {},
    "version": 1
  }
}