{
  "contractName": "PropertyPAD",
  "abi": [
    {
      "inputs": [
        {
          "internalType": "address",
          "name": "_propertyNFTAddress",
          "type": "address"
        }
      ],
      "stateMutability": "nonpayable",
      "type": "constructor"
    },
    {
      "anonymous": false,
      "inputs": [
        {
          "indexed": true,
          "internalType": "address",
          "name": "user",
          "type": "address"
        },
        {
          "indexed": false,
          "internalType": "uint256",
          "name": "amount",
          "type": "uint256"
        }
      ],
      "name": "ClaimedBack",
      "type": "event"
    },
    {
      "anonymous": false,
      "inputs": [
        {
          "indexed": true,
          "internalType": "address",
          "name": "admin",
          "type": "address"
        },
        {
          "indexed": false,
          "internalType": "uint256",
          "name": "amount",
          "type": "uint256"
        }
      ],
      "name": "FundsWithdrawn",
      "type": "event"
    },
    {
      "anonymous": false,
      "inputs": [
        {
          "indexed": true,
          "internalType": "address",
          "name": "user",
          "type": "address"
        },
        {
          "indexed": false,
          "internalType": "uint256",
          "name": "amount",
          "type": "uint256"
        }
      ],
      "name": "Participated",
      "type": "event"
    },
    {
      "anonymous": false,
      "inputs": [
        {
          "indexed": true,
          "internalType": "address",
          "name": "user",
          "type": "address"
        },
        {
          "indexed": false,
          "internalType": "uint256",
          "name": "tokenId",
          "type": "uint256"
        }
      ],
      "name": "PropertyNFTClaimed",
      "type": "event"
    },
    {
      "inputs": [],
      "name": "admin",
      "outputs": [
        {
          "internalType": "address",
          "name": "",
          "type": "address"
        }
      ],
      "stateMutability": "view",
      "type": "function"
    },
    {
      "inputs": [],
      "name": "amountToRaise",
      "outputs": [
        {
          "internalType": "uint256",
          "name": "",
          "type": "uint256"
        }
      ],
      "stateMutability": "view",
      "type": "function"
    },
    {
      "inputs": [],
      "name": "apr",
      "outputs": [
        {
          "internalType": "uint256",
          "name": "",
          "type": "uint256"
        }
      ],
      "stateMutability": "view",
      "type": "function"
    },
    {
      "inputs": [],
      "name": "isRaiseFinalized",
      "outputs": [
        {
          "internalType": "bool",
          "name": "",
          "type": "bool"
        }
      ],
      "stateMutability": "view",
      "type": "function"
    },
    {
      "inputs": [],
      "name": "maxContribution",
      "outputs": [
        {
          "internalType": "uint256",
          "name": "",
          "type": "uint256"
        }
      ],
      "stateMutability": "view",
      "type": "function"
    },
    {
      "inputs": [],
      "name": "minContribution",
      "outputs": [
        {
          "internalType": "uint256",
          "name": "",
          "type": "uint256"
        }
      ],
      "stateMutability": "view",
      "type": "function"
    },
    {
      "inputs": [],
      "name": "propertyID",
      "outputs": [
        {
          "internalType": "uint256",
          "name": "",
          "type": "uint256"
        }
      ],
      "stateMutability": "view",
      "type": "function"
    },
    {
      "inputs": [],
      "name": "propertyNFT",
      "outputs": [
        {
          "internalType": "contract PropertyNFT",
          "name": "",
          "type": "address"
        }
      ],
      "stateMutability": "view",
      "type": "function"
    },
    {
      "inputs": [],
      "name": "propertyName",
      "outputs": [
        {
          "internalType": "string",
          "name": "",
          "type": "string"
        }
      ],
      "stateMutability": "view",
      "type": "function"
    },
    {
      "inputs": [],
      "name": "raiseEndTime",
      "outputs": [
        {
          "internalType": "uint256",
          "name": "",
          "type": "uint256"
        }
      ],
      "stateMutability": "view",
      "type": "function"
    },
    {
      "inputs": [],
      "name": "raiseStartTime",
      "outputs": [
        {
          "internalType": "uint256",
          "name": "",
          "type": "uint256"
        }
      ],
      "stateMutability": "view",
      "type": "function"
    },
    {
      "inputs": [],
      "name": "raiseSuccessful",
      "outputs": [
        {
          "internalType": "bool",
          "name": "",
          "type": "bool"
        }
      ],
      "stateMutability": "view",
      "type": "function"
    },
    {
      "inputs": [],
      "name": "raiseToken",
      "outputs": [
        {
          "internalType": "contract IERC20",
          "name": "",
          "type": "address"
        }
      ],
      "stateMutability": "view",
      "type": "function"
    },
    {
      "inputs": [],
      "name": "redeemFees",
      "outputs": [
        {
          "internalType": "uint256",
          "name": "",
          "type": "uint256"
        }
      ],
      "stateMutability": "view",
      "type": "function"
    },
    {
      "inputs": [],
      "name": "sellFees",
      "outputs": [
        {
          "internalType": "uint256",
          "name": "",
          "type": "uint256"
        }
      ],
      "stateMutability": "view",
      "type": "function"
    },
    {
      "inputs": [],
      "name": "totalRaised",
      "outputs": [
        {
          "internalType": "uint256",
          "name": "",
          "type": "uint256"
        }
      ],
      "stateMutability": "view",
      "type": "function"
    },
    {
      "inputs": [
        {
          "internalType": "address",
          "name": "",
          "type": "address"
        }
      ],
      "name": "userContributions",
      "outputs": [
        {
          "internalType": "uint256",
          "name": "",
          "type": "uint256"
        }
      ],
      "stateMutability": "view",
      "type": "function"
    },
    {
      "inputs": [
        {
          "internalType": "address",
          "name": "_raiseToken",
          "type": "address"
        },
        {
          "internalType": "uint256",
          "name": "_amountToRaise",
          "type": "uint256"
        },
        {
          "internalType": "uint256",
          "name": "_raiseStartTime",
          "type": "uint256"
        },
        {
          "internalType": "uint256",
          "name": "_raiseEndTime",
          "type": "uint256"
        },
        {
          "internalType": "uint256",
          "name": "_minContribution",
          "type": "uint256"
        },
        {
          "internalType": "uint256",
          "name": "_maxContribution",
          "type": "uint256"
        }
      ],
      "name": "setRaiseParameters",
      "outputs": [],
      "stateMutability": "nonpayable",
      "type": "function"
    },
    {
      "inputs": [
        {
          "internalType": "string",
          "name": "_propertyName",
          "type": "string"
        },
        {
          "internalType": "uint256",
          "name": "_propertyID",
          "type": "uint256"
        },
        {
          "internalType": "uint256",
          "name": "_apr",
          "type": "uint256"
        },
        {
          "internalType": "uint256",
          "name": "_redeemFees",
          "type": "uint256"
        },
        {
          "internalType": "uint256",
          "name": "_sellFees",
          "type": "uint256"
        }
      ],
      "name": "setPropertyAttributes",
      "outputs": [],
      "stateMutability": "nonpayable",
      "type": "function"
    },
    {
      "inputs": [
        {
          "internalType": "uint256",
          "name": "amount",
          "type": "uint256"
        }
      ],
      "name": "participate",
      "outputs": [],
      "stateMutability": "nonpayable",
      "type": "function"
    },
    {
      "inputs": [],
      "name": "claimBack",
      "outputs": [],
      "stateMutability": "nonpayable",
      "type": "function"
    },
    {
      "inputs": [],
      "name": "claimPropertyNFT",
      "outputs": [],
      "stateMutability": "nonpayable",
      "type": "function"
    },
    {
      "inputs": [],
      "name": "withdrawFunds",
      "outputs": [],
      "stateMutability": "nonpayable",
      "type": "function"
    }
  ],
  "bytecode": "0x60806040525f60095f6101000a81548160ff0219169083151502179055505f600960016101000a81548160ff02191690831515021790555034801562000043575f80fd5b50604051620024a8380380620024a883398181016040528101906200006991906200015c565b60015f8190555033600f5f6101000a81548173ffffffffffffffffffffffffffffffffffffffff021916908373ffffffffffffffffffffffffffffffffffffffff1602179055508060105f6101000a81548173ffffffffffffffffffffffffffffffffffffffff021916908373ffffffffffffffffffffffffffffffffffffffff160217905550506200018c565b5f80fd5b5f73ffffffffffffffffffffffffffffffffffffffff82169050919050565b5f6200012682620000fb565b9050919050565b62000138816200011a565b811462000143575f80fd5b50565b5f8151905062000156816200012d565b92915050565b5f60208284031215620001745762000173620000f7565b5b5f620001838482850162000146565b91505092915050565b61230e806200019a5f395ff3fe608060405234801561000f575f80fd5b506004361061014b575f3560e01c8063850e1398116100c1578063c07ce1fe1161007a578063c07ce1fe1461031f578063c5c4744c1461033d578063e0f3ccf51461035b578063f851a44014610379578063f9db1ecc14610397578063fdd20708146103b35761014b565b8063850e1398146102935780638566f7371461029d5780638d3d6576146102bb5780639b8c3e21146102d9578063a23342de146102e3578063aaffadf3146103015761014b565b80632c35c08c116101135780632c35c08c146101e157806337f76838146101ff5780633a047bb31461021d5780634da60aa51461023b57806357ded9c914610259578063845c9306146102775761014b565b8063070173a21461014f578063082578681461016d5780630f6ca1a8146101895780631b0a2ba9146101b957806324600fc3146101d7575b5f80fd5b6101576103d1565b6040516101649190611338565b60405180910390f35b610187600480360381019061018291906113ef565b6103e3565b005b6101a3600480360381019061019e9190611478565b6104dd565b6040516101b091906114b2565b60405180910390f35b6101c16104f2565b6040516101ce9190611338565b60405180910390f35b6101df610505565b005b6101e961083f565b6040516101f69190611555565b60405180910390f35b6102076108cb565b60405161021491906115d0565b60405180910390f35b6102256108f0565b60405161023291906114b2565b60405180910390f35b6102436108f6565b6040516102509190611609565b60405180910390f35b61026161091b565b60405161026e91906114b2565b60405180910390f35b610291600480360381019061028c9190611622565b610921565b005b61029b610be9565b005b6102a5610e77565b6040516102b291906114b2565b60405180910390f35b6102c3610e7d565b6040516102d091906114b2565b60405180910390f35b6102e1610e83565b005b6102eb6110e6565b6040516102f891906114b2565b60405180910390f35b6103096110ec565b60405161031691906114b2565b60405180910390f35b6103276110f2565b60405161033491906114b2565b60405180910390f35b6103456110f8565b60405161035291906114b2565b60405180910390f35b6103636110fe565b60405161037091906114b2565b60405180910390f35b610381611104565b60405161038e919061165c565b60405180910390f35b6103b160048036038101906103ac91906117a1565b611129565b005b6103bb6111eb565b6040516103c891906114b2565b60405180910390f35b60095f9054906101000a900460ff1681565b600f5f9054906101000a900473ffffffffffffffffffffffffffffffffffffffff1673ffffffffffffffffffffffffffffffffffffffff163373ffffffffffffffffffffffffffffffffffffffff1614610472576040517f08c379a00000000000000000000000000000000000000000000000000000000081526004016104699061187e565b60405180910390fd5b8560015f6101000a81548173ffffffffffffffffffffffffffffffffffffffff021916908373ffffffffffffffffffffffffffffffffffffffff1602179055508460028190555083600381905550826004819055508160058190555080600681905550505050505050565b600e602052805f5260405f205f915090505481565b600960019054906101000a900460ff1681565b600f5f9054906101000a900473ffffffffffffffffffffffffffffffffffffffff1673ffffffffffffffffffffffffffffffffffffffff163373ffffffffffffffffffffffffffffffffffffffff1614610594576040517f08c379a000000000000000000000000000000000000000000000000000000000815260040161058b9061187e565b60405180910390fd5b600960019054906101000a900460ff166105e3576040517f08c379a00000000000000000000000000000000000000000000000000000000081526004016105da906118e6565b60405180910390fd5b60095f9054906101000a900460ff16610631576040517f08c379a00000000000000000000000000000000000000000000000000000000081526004016106289061194e565b60405180910390fd5b5f60015f9054906101000a900473ffffffffffffffffffffffffffffffffffffffff1673ffffffffffffffffffffffffffffffffffffffff166370a08231306040518263ffffffff1660e01b815260040161068c919061165c565b602060405180830381865afa1580156106a7573d5f803e3d5ffd5b505050506040513d601f19601f820116820180604052508101906106cb9190611980565b90505f811161070f576040517f08c379a0000000000000000000000000000000000000000000000000000000008152600401610706906119f5565b60405180910390fd5b60015f9054906101000a900473ffffffffffffffffffffffffffffffffffffffff1673ffffffffffffffffffffffffffffffffffffffff1663a9059cbb600f5f9054906101000a900473ffffffffffffffffffffffffffffffffffffffff16836040518363ffffffff1660e01b815260040161078c929190611a13565b6020604051808303815f875af11580156107a8573d5f803e3d5ffd5b505050506040513d601f19601f820116820180604052508101906107cc9190611a64565b50600f5f9054906101000a900473ffffffffffffffffffffffffffffffffffffffff1673ffffffffffffffffffffffffffffffffffffffff167feaff4b37086828766ad3268786972c0cd24259d4c87a80f9d3963a3c3d999b0d8260405161083491906114b2565b60405180910390a250565b600a805461084c90611abc565b80601f016020809104026020016040519081016040528092919081815260200182805461087890611abc565b80156108c35780601f1061089a576101008083540402835291602001916108c3565b820191905f5260205f20905b8154815290600101906020018083116108a657829003601f168201915b505050505081565b60105f9054906101000a900473ffffffffffffffffffffffffffffffffffffffff1681565b600c5481565b60015f9054906101000a900473ffffffffffffffffffffffffffffffffffffffff1681565b600b5481565b600354421015801561093557506004544211155b610974576040517f08c379a000000000000000000000000000000000000000000000000000000000815260040161096b90611b36565b60405180910390fd5b60065481600e5f3373ffffffffffffffffffffffffffffffffffffffff1673ffffffffffffffffffffffffffffffffffffffff1681526020019081526020015f20546109c09190611b81565b1115610a01576040517f08c379a00000000000000000000000000000000000000000000000000000000081526004016109f890611bfe565b60405180910390fd5b60055481600e5f3373ffffffffffffffffffffffffffffffffffffffff1673ffffffffffffffffffffffffffffffffffffffff1681526020019081526020015f2054610a4d9190611b81565b1015610a8e576040517f08c379a0000000000000000000000000000000000000000000000000000000008152600401610a8590611c66565b60405180910390fd5b60015f9054906101000a900473ffffffffffffffffffffffffffffffffffffffff1673ffffffffffffffffffffffffffffffffffffffff166323b872dd3330846040518463ffffffff1660e01b8152600401610aec93929190611c84565b6020604051808303815f875af1158015610b08573d5f803e3d5ffd5b505050506040513d601f19601f82011682018060405250810190610b2c9190611a64565b5080600e5f3373ffffffffffffffffffffffffffffffffffffffff1673ffffffffffffffffffffffffffffffffffffffff1681526020019081526020015f205f828254610b799190611b81565b925050819055508060075f828254610b919190611b81565b925050819055503373ffffffffffffffffffffffffffffffffffffffff167fb198f199c43cc078ad46e5a5fabe03eba401f7417816c86af0bd2e7345c9950682604051610bde91906114b2565b60405180910390a250565b610bf16111f1565b6004544211610c35576040517f08c379a0000000000000000000000000000000000000000000000000000000008152600401610c2c90611d03565b60405180910390fd5b600960019054906101000a900460ff16610c5257610c5161123e565b5b60095f9054906101000a900460ff16610ca0576040517f08c379a0000000000000000000000000000000000000000000000000000000008152600401610c9790611d6b565b60405180910390fd5b5f600e5f3373ffffffffffffffffffffffffffffffffffffffff1673ffffffffffffffffffffffffffffffffffffffff1681526020019081526020015f205490505f8111610d23576040517f08c379a0000000000000000000000000000000000000000000000000000000008152600401610d1a90611dd3565b60405180910390fd5b5f60105f9054906101000a900473ffffffffffffffffffffffffffffffffffffffff1673ffffffffffffffffffffffffffffffffffffffff16631cc5a78f33600a600b5460025487600854600c54600d545f6040518a63ffffffff1660e01b8152600401610d9999989796959493929190611ebd565b6020604051808303815f875af1158015610db5573d5f803e3d5ffd5b505050506040513d601f19601f82011682018060405250810190610dd99190611980565b90505f600e5f3373ffffffffffffffffffffffffffffffffffffffff1673ffffffffffffffffffffffffffffffffffffffff1681526020019081526020015f20819055503373ffffffffffffffffffffffffffffffffffffffff167f754130b2ee28ab3954b72b8e8075bd756b042eb6b3c3a1d0a15787f6125c59bc82604051610e6391906114b2565b60405180910390a25050610e75611315565b565b60025481565b60065481565b6004544211610ec7576040517f08c379a0000000000000000000000000000000000000000000000000000000008152600401610ebe90611d03565b60405180910390fd5b600960019054906101000a900460ff16610ee457610ee361123e565b5b60095f9054906101000a900460ff1615610f33576040517f08c379a0000000000000000000000000000000000000000000000000000000008152600401610f2a90611f99565b60405180910390fd5b5f600e5f3373ffffffffffffffffffffffffffffffffffffffff1673ffffffffffffffffffffffffffffffffffffffff1681526020019081526020015f205490505f8111610fb6576040517f08c379a0000000000000000000000000000000000000000000000000000000008152600401610fad90611dd3565b60405180910390fd5b5f600e5f3373ffffffffffffffffffffffffffffffffffffffff1673ffffffffffffffffffffffffffffffffffffffff1681526020019081526020015f208190555060015f9054906101000a900473ffffffffffffffffffffffffffffffffffffffff1673ffffffffffffffffffffffffffffffffffffffff1663a9059cbb33836040518363ffffffff1660e01b8152600401611054929190611a13565b6020604051808303815f875af1158015611070573d5f803e3d5ffd5b505050506040513d601f19601f820116820180604052508101906110949190611a64565b503373ffffffffffffffffffffffffffffffffffffffff167f8cda972e1308283a0f0961aaa210e5e4a7dea1a0a529a1008f72624d7f3e77c7826040516110db91906114b2565b60405180910390a250565b60085481565b60055481565b60045481565b60075481565b600d5481565b600f5f9054906101000a900473ffffffffffffffffffffffffffffffffffffffff1681565b600f5f9054906101000a900473ffffffffffffffffffffffffffffffffffffffff1673ffffffffffffffffffffffffffffffffffffffff163373ffffffffffffffffffffffffffffffffffffffff16146111b8576040517f08c379a00000000000000000000000000000000000000000000000000000000081526004016111af9061187e565b60405180910390fd5b84600a90816111c79190612139565b508360088190555082600b8190555081600c8190555080600d819055505050505050565b60035481565b60025f5403611235576040517f08c379a000000000000000000000000000000000000000000000000000000000815260040161122c90612252565b60405180910390fd5b60025f81905550565b6004544211611282576040517f08c379a000000000000000000000000000000000000000000000000000000000815260040161127990611d03565b60405180910390fd5b600960019054906101000a900460ff16156112d2576040517f08c379a00000000000000000000000000000000000000000000000000000000081526004016112c9906122ba565b60405180910390fd5b600254600754106112f857600160095f6101000a81548160ff0219169083151502179055505b6001600960016101000a81548160ff021916908315150217905550565b60015f81905550565b5f8115159050919050565b6113328161131e565b82525050565b5f60208201905061134b5f830184611329565b92915050565b5f604051905090565b5f80fd5b5f80fd5b5f73ffffffffffffffffffffffffffffffffffffffff82169050919050565b5f61138b82611362565b9050919050565b61139b81611381565b81146113a5575f80fd5b50565b5f813590506113b681611392565b92915050565b5f819050919050565b6113ce816113bc565b81146113d8575f80fd5b50565b5f813590506113e9816113c5565b92915050565b5f805f805f8060c087890312156114095761140861135a565b5b5f61141689828a016113a8565b965050602061142789828a016113db565b955050604061143889828a016113db565b945050606061144989828a016113db565b935050608061145a89828a016113db565b92505060a061146b89828a016113db565b9150509295509295509295565b5f6020828403121561148d5761148c61135a565b5b5f61149a848285016113a8565b91505092915050565b6114ac816113bc565b82525050565b5f6020820190506114c55f8301846114a3565b92915050565b5f81519050919050565b5f82825260208201905092915050565b5f5b838110156115025780820151818401526020810190506114e7565b5f8484015250505050565b5f601f19601f8301169050919050565b5f611527826114cb565b61153181856114d5565b93506115418185602086016114e5565b61154a8161150d565b840191505092915050565b5f6020820190508181035f83015261156d818461151d565b905092915050565b5f819050919050565b5f61159861159361158e84611362565b611575565b611362565b9050919050565b5f6115a98261157e565b9050919050565b5f6115ba8261159f565b9050919050565b6115ca816115b0565b82525050565b5f6020820190506115e35f8301846115c1565b92915050565b5f6115f38261159f565b9050919050565b611603816115e9565b82525050565b5f60208201905061161c5f8301846115fa565b92915050565b5f602082840312156116375761163661135a565b5b5f611644848285016113db565b91505092915050565b61165681611381565b82525050565b5f60208201905061166f5f83018461164d565b92915050565b5f80fd5b5f80fd5b7f4e487b71000000000000000000000000000000000000000000000000000000005f52604160045260245ffd5b6116b38261150d565b810181811067ffffffffffffffff821117156116d2576116d161167d565b5b80604052505050565b5f6116e4611351565b90506116f082826116aa565b919050565b5f67ffffffffffffffff82111561170f5761170e61167d565b5b6117188261150d565b9050602081019050919050565b828183375f83830152505050565b5f611745611740846116f5565b6116db565b90508281526020810184848401111561176157611760611679565b5b61176c848285611725565b509392505050565b5f82601f83011261178857611787611675565b5b8135611798848260208601611733565b91505092915050565b5f805f805f60a086880312156117ba576117b961135a565b5b5f86013567ffffffffffffffff8111156117d7576117d661135e565b5b6117e388828901611774565b95505060206117f4888289016113db565b9450506040611805888289016113db565b9350506060611816888289016113db565b9250506080611827888289016113db565b9150509295509295909350565b7f43616c6c6572206973206e6f7420616e2061646d696e000000000000000000005f82015250565b5f6118686016836114d5565b915061187382611834565b602082019050919050565b5f6020820190508181035f8301526118958161185c565b9050919050565b7f5261697365206e6f74207965742066696e616c697a65640000000000000000005f82015250565b5f6118d06017836114d5565b91506118db8261189c565b602082019050919050565b5f6020820190508181035f8301526118fd816118c4565b9050919050565b7f526169736520776173206e6f74207375636365737366756c00000000000000005f82015250565b5f6119386018836114d5565b915061194382611904565b602082019050919050565b5f6020820190508181035f8301526119658161192c565b9050919050565b5f8151905061197a816113c5565b92915050565b5f602082840312156119955761199461135a565b5b5f6119a28482850161196c565b91505092915050565b7f4e6f2066756e647320746f2077697468647261770000000000000000000000005f82015250565b5f6119df6014836114d5565b91506119ea826119ab565b602082019050919050565b5f6020820190508181035f830152611a0c816119d3565b9050919050565b5f604082019050611a265f83018561164d565b611a3360208301846114a3565b9392505050565b611a438161131e565b8114611a4d575f80fd5b50565b5f81519050611a5e81611a3a565b92915050565b5f60208284031215611a7957611a7861135a565b5b5f611a8684828501611a50565b91505092915050565b7f4e487b71000000000000000000000000000000000000000000000000000000005f52602260045260245ffd5b5f6002820490506001821680611ad357607f821691505b602082108103611ae657611ae5611a8f565b5b50919050565b7f4e6f7420696e2072616973652074696d652077696e646f7700000000000000005f82015250565b5f611b206018836114d5565b9150611b2b82611aec565b602082019050919050565b5f6020820190508181035f830152611b4d81611b14565b9050919050565b7f4e487b71000000000000000000000000000000000000000000000000000000005f52601160045260245ffd5b5f611b8b826113bc565b9150611b96836113bc565b9250828201905080821115611bae57611bad611b54565b5b92915050565b7f45786365656473206d617820636f6e747269627574696f6e00000000000000005f82015250565b5f611be86018836114d5565b9150611bf382611bb4565b602082019050919050565b5f6020820190508181035f830152611c1581611bdc565b9050919050565b7f42656c6f77206d696e20636f6e747269627574696f6e000000000000000000005f82015250565b5f611c506016836114d5565b9150611c5b82611c1c565b602082019050919050565b5f6020820190508181035f830152611c7d81611c44565b9050919050565b5f606082019050611c975f83018661164d565b611ca4602083018561164d565b611cb160408301846114a3565b949350505050565b7f5261697365206e6f74207965742066696e6973686564000000000000000000005f82015250565b5f611ced6016836114d5565b9150611cf882611cb9565b602082019050919050565b5f6020820190508181035f830152611d1a81611ce1565b9050919050565b7f52616973652077617320756e7375636365737366756c000000000000000000005f82015250565b5f611d556016836114d5565b9150611d6082611d21565b602082019050919050565b5f6020820190508181035f830152611d8281611d49565b9050919050565b7f4e6f20636f6e747269627574696f6e7320666f756e64000000000000000000005f82015250565b5f611dbd6016836114d5565b9150611dc882611d89565b602082019050919050565b5f6020820190508181035f830152611dea81611db1565b9050919050565b5f819050815f5260205f209050919050565b5f8154611e0f81611abc565b611e1981866114d5565b9450600182165f8114611e335760018114611e4957611e7b565b60ff198316865281151560200286019350611e7b565b611e5285611df1565b5f5b83811015611e7357815481890152600182019150602081019050611e54565b808801955050505b50505092915050565b5f819050919050565b5f611ea7611ea2611e9d84611e84565b611575565b6113bc565b9050919050565b611eb781611e8d565b82525050565b5f61012082019050611ed15f83018c61164d565b8181036020830152611ee3818b611e03565b9050611ef2604083018a6114a3565b611eff60608301896114a3565b611f0c60808301886114a3565b611f1960a08301876114a3565b611f2660c08301866114a3565b611f3360e08301856114a3565b611f41610100830184611eae565b9a9950505050505050505050565b7f526169736520776173207375636365737366756c0000000000000000000000005f82015250565b5f611f836014836114d5565b9150611f8e82611f4f565b602082019050919050565b5f6020820190508181035f830152611fb081611f77565b9050919050565b5f6020601f8301049050919050565b5f82821b905092915050565b5f600883026120017fffffffffffffffffffffffffffffffffffffffffffffffffffffffffffffffff82611fc6565b61200b8683611fc6565b95508019841693508086168417925050509392505050565b5f61203d612038612033846113bc565b611575565b6113bc565b9050919050565b5f819050919050565b61205683612023565b61206a61206282612044565b848454611fd2565b825550505050565b5f90565b61207e612072565b61208981848461204d565b505050565b5b818110156120ac576120a15f82612076565b60018101905061208f565b5050565b601f8211156120f1576120c281611df1565b6120cb84611fb7565b810160208510156120da578190505b6120ee6120e685611fb7565b83018261208e565b50505b505050565b5f82821c905092915050565b5f6121115f19846008026120f6565b1980831691505092915050565b5f6121298383612102565b9150826002028217905092915050565b612142826114cb565b67ffffffffffffffff81111561215b5761215a61167d565b5b6121658254611abc565b6121708282856120b0565b5f60209050601f8311600181146121a1575f841561218f578287015190505b612199858261211e565b865550612200565b601f1984166121af86611df1565b5f5b828110156121d6578489015182556001820191506020850194506020810190506121b1565b868310156121f357848901516121ef601f891682612102565b8355505b6001600288020188555050505b505050505050565b7f5265656e7472616e637947756172643a207265656e7472616e742063616c6c005f82015250565b5f61223c601f836114d5565b915061224782612208565b602082019050919050565b5f6020820190508181035f83015261226981612230565b9050919050565b7f526169736520616c72656164792066696e616c697a65640000000000000000005f82015250565b5f6122a46017836114d5565b91506122af82612270565b602082019050919050565b5f6020820190508181035f8301526122d181612298565b905091905056fea2646970667358221220c0513edf2b970c0d648822f4abf0609bdf6b28128156fb6fe9f38b24478ca30e64736f6c63430008150033",
  "immutableReferences": {},
  "source": "\r\n// SPDX-License-Identifier: MIT\r\npragma solidity ^0.8.0;\r\n\r\nimport \"@openzeppelin/contracts/token/ERC20/IERC20.sol\";\r\nimport \"@openzeppelin/contracts/security/ReentrancyGuard.sol\";\r\nimport \"./PropertyNFT.sol\";\r\n\r\n/**\r\n * @title PropertyPAD\r\n * @dev A launchpad contract for raising funds to mint PropertyNFTs.\r\n */\r\ncontract PropertyPAD is ReentrancyGuard {\r\n\r\n    // State variables\r\n    IERC20 public raiseToken;\r\n    uint256 public amountToRaise;\r\n    uint256 public raiseStartTime;\r\n    uint256 public raiseEndTime;\r\n    uint256 public minContribution;\r\n    uint256 public maxContribution;\r\n    uint256 public totalRaised;\r\n    uint256 public propertyID;\r\n    bool public raiseSuccessful = false;\r\n    bool public isRaiseFinalized = false;\r\n\r\n\r\n    string public propertyName;\r\n    uint public apr;\r\n    uint public redeemFees;\r\n    uint public sellFees;\r\n\r\n    mapping(address => uint256) public userContributions;\r\n\r\n    address public admin;\r\n    PropertyNFT public propertyNFT;\r\n\r\n    // Events\r\n    event Participated(address indexed user, uint256 amount);\r\n    event ClaimedBack(address indexed user, uint256 amount);\r\n    event PropertyNFTClaimed(address indexed user, uint256 tokenId);\r\n    event FundsWithdrawn(address indexed admin, uint256 amount);\r\n\r\n\r\n    /**\r\n     * @dev Modifier to check if the caller is the admin.\r\n     */\r\n    modifier onlyAdmin() {\r\n        require(msg.sender == admin, \"Caller is not an admin\");\r\n        _;\r\n    }\r\n\r\n    /**\r\n     * @dev Constructor sets the initial admin and PropertyNFT contract reference.\r\n     * @param _propertyNFTAddress Address of the PropertyNFT contract.\r\n     */\r\n    constructor(address _propertyNFTAddress) {\r\n        admin = msg.sender;\r\n        propertyNFT = PropertyNFT(_propertyNFTAddress);\r\n    }\r\n\r\n    /**\r\n     * @dev Set the raise parameters.\r\n     * @param _raiseToken Address of the ERC20 token used for raising.\r\n     * @param _amountToRaise Total amount to raise.\r\n     * @param _raiseStartTime Start time of the raise.\r\n     * @param _raiseEndTime End time of the raise.\r\n     * @param _minContribution Minimum contribution per user.\r\n     * @param _maxContribution Maximum contribution per user.\r\n     */\r\n    function setRaiseParameters(\r\n        address _raiseToken, \r\n        uint256 _amountToRaise, \r\n        uint256 _raiseStartTime, \r\n        uint256 _raiseEndTime, \r\n        uint256 _minContribution, \r\n        uint256 _maxContribution\r\n    ) external onlyAdmin {\r\n        raiseToken = IERC20(_raiseToken);\r\n        amountToRaise = _amountToRaise;\r\n        raiseStartTime = _raiseStartTime;\r\n        raiseEndTime = _raiseEndTime;\r\n        minContribution = _minContribution;\r\n        maxContribution = _maxContribution;\r\n    }\r\n\r\n    /**\r\n     * @dev Set the property attributes.\r\n     * @param _propertyName Name of the property.\r\n     * @param _propertyID ID of the proeprty.\r\n     * @param _apr APR guaranteed by the property.\r\n     * @param _redeemFees Redeem fees.\r\n     * @param _sellFees Sell fees.\r\n     */\r\n    function setPropertyAttributes(\r\n        string memory _propertyName,\r\n        uint _propertyID,\r\n        uint _apr,\r\n        uint _redeemFees,\r\n        uint _sellFees\r\n    ) external onlyAdmin {\r\n        propertyName = _propertyName;\r\n        propertyID = _propertyID;\r\n        apr = _apr;\r\n        redeemFees = _redeemFees;\r\n        sellFees = _sellFees;\r\n    }\r\n\r\n    /**\r\n     * @dev Participate in the raise.\r\n     * @param amount Amount of tokens to contribute.\r\n     */\r\n    function participate(uint256 amount) external {\r\n        require(block.timestamp >= raiseStartTime && block.timestamp <= raiseEndTime, \"Not in raise time window\");\r\n        require(userContributions[msg.sender] + amount <= maxContribution, \"Exceeds max contribution\");\r\n        require(userContributions[msg.sender] + amount >= minContribution, \"Below min contribution\");\r\n        \r\n        raiseToken.transferFrom(msg.sender, address(this), amount);\r\n        userContributions[msg.sender] += amount;\r\n        totalRaised += amount;\r\n\r\n        emit Participated(msg.sender, amount);\r\n    }\r\n\r\n    /**\r\n     * @dev Claim back tokens if the raise was unsuccessful.\r\n     */\r\n    function claimBack() external {\r\n        require(block.timestamp > raiseEndTime, \"Raise not yet finished\");\r\n        if (!isRaiseFinalized) {\r\n        finalizeRaise();\r\n        }\r\n        require(!raiseSuccessful, \"Raise was successful\");\r\n        uint256 contribution = userContributions[msg.sender];\r\n        require(contribution > 0, \"No contributions found\");\r\n\r\n        \r\n        userContributions[msg.sender] = 0;\r\n        raiseToken.transfer(msg.sender, contribution);\r\n\r\n        emit ClaimedBack(msg.sender, contribution);\r\n    }\r\n    \r\n    /**\r\n     * @dev Claim PropertyNFT if the raise was successful.\r\n     */\r\n    function claimPropertyNFT() external nonReentrant{\r\n        require(block.timestamp > raiseEndTime, \"Raise not yet finished\");\r\n        if (!isRaiseFinalized) {\r\n        finalizeRaise();\r\n        }\r\n        require(raiseSuccessful, \"Raise was unsuccessful\");\r\n        \r\n        uint256 contribution = userContributions[msg.sender];\r\n        require(contribution > 0, \"No contributions found\");\r\n\r\n        // Mint the PropertyNFT for the user with the specified attributes\r\n        uint256 tokenId = propertyNFT.mintProperty(\r\n            msg.sender, \r\n            propertyName,\r\n            apr,\r\n            amountToRaise,\r\n            contribution,\r\n            propertyID,\r\n            redeemFees,\r\n            sellFees,\r\n            0\r\n        );\r\n        \r\n        userContributions[msg.sender] = 0;\r\n        emit PropertyNFTClaimed(msg.sender, tokenId);\r\n    }\r\n\r\n\r\n\r\n    /**\r\n     * @dev Determine if the raise was successful after the end time.\r\n     */\r\n    function finalizeRaise() internal {\r\n        require(block.timestamp > raiseEndTime, \"Raise not yet finished\");\r\n        require(!isRaiseFinalized, \"Raise already finalized\");\r\n\r\n        if(totalRaised >= amountToRaise) {\r\n            raiseSuccessful = true;\r\n        }\r\n        isRaiseFinalized = true;\r\n\r\n    }\r\n\r\n    /**\r\n    * @dev Allows the admin to withdraw the raised tokens after a successful raise.\r\n    */\r\n    function withdrawFunds() external onlyAdmin {\r\n        require(isRaiseFinalized, \"Raise not yet finalized\");\r\n        require(raiseSuccessful, \"Raise was not successful\");\r\n        \r\n        uint256 balance = raiseToken.balanceOf(address(this));\r\n        require(balance > 0, \"No funds to withdraw\");\r\n\r\n        raiseToken.transfer(admin, balance);\r\n        \r\n        emit FundsWithdrawn(admin, balance);\r\n    }\r\n}\r\n",
  "sourcePath": "C:\\Users\\loren\\Desktop\\PersonalProjects\\PropertyNFT\\contracts\\PropertyPAD.sol",
  "compiler": {
    "name": "solc",
    "version": "0.8.21+commit.d9974bed.Emscripten.clang"
  },
  "schemaVersion": "3.4.16",
  "updatedAt": "2023-10-06T23:27:46.655Z",
  "devdoc": {
    "details": "A launchpad contract for raising funds to mint PropertyNFTs.",
    "kind": "dev",
    "methods": {
      "claimBack()": {
        "details": "Claim back tokens if the raise was unsuccessful."
      },
      "claimPropertyNFT()": {
        "details": "Claim PropertyNFT if the raise was successful."
      },
      "constructor": {
        "details": "Constructor sets the initial admin and PropertyNFT contract reference.",
        "params": {
          "_propertyNFTAddress": "Address of the PropertyNFT contract."
        }
      },
      "participate(uint256)": {
        "details": "Participate in the raise.",
        "params": {
          "amount": "Amount of tokens to contribute."
        }
      },
      "setPropertyAttributes(string,uint256,uint256,uint256,uint256)": {
        "details": "Set the property attributes.",
        "params": {
          "_apr": "APR guaranteed by the property.",
          "_propertyID": "ID of the proeprty.",
          "_propertyName": "Name of the property.",
          "_redeemFees": "Redeem fees.",
          "_sellFees": "Sell fees."
        }
      },
      "setRaiseParameters(address,uint256,uint256,uint256,uint256,uint256)": {
        "details": "Set the raise parameters.",
        "params": {
          "_amountToRaise": "Total amount to raise.",
          "_maxContribution": "Maximum contribution per user.",
          "_minContribution": "Minimum contribution per user.",
          "_raiseEndTime": "End time of the raise.",
          "_raiseStartTime": "Start time of the raise.",
          "_raiseToken": "Address of the ERC20 token used for raising."
        }
      },
      "withdrawFunds()": {
        "details": "Allows the admin to withdraw the raised tokens after a successful raise."
      }
    },
    "title": "PropertyPAD",
    "version": 1
  },
  "userdoc": {
    "kind": "user",
    "methods": {},
    "version": 1
  }
}